{
	"contracts/array.sol": {
		"Array": {
			"abi": [
				{
					"inputs": [],
					"name": "addNewArr",
					"outputs": [],
					"stateMutability": "pure",
					"type": "function"
				},
				{
					"inputs": [
						{
							"internalType": "uint256",
							"name": "",
							"type": "uint256"
						}
					],
					"name": "arr",
					"outputs": [
						{
							"internalType": "uint256",
							"name": "",
							"type": "uint256"
						}
					],
					"stateMutability": "view",
					"type": "function"
				},
				{
					"inputs": [
						{
							"internalType": "uint256",
							"name": "",
							"type": "uint256"
						}
					],
					"name": "arr2",
					"outputs": [
						{
							"internalType": "uint256",
							"name": "",
							"type": "uint256"
						}
					],
					"stateMutability": "view",
					"type": "function"
				},
				{
					"inputs": [
						{
							"internalType": "uint256",
							"name": "",
							"type": "uint256"
						}
					],
					"name": "arrFixed",
					"outputs": [
						{
							"internalType": "uint256",
							"name": "",
							"type": "uint256"
						}
					],
					"stateMutability": "view",
					"type": "function"
				},
				{
					"inputs": [
						{
							"internalType": "uint256",
							"name": "index",
							"type": "uint256"
						}
					],
					"name": "delElementFromArr",
					"outputs": [],
					"stateMutability": "nonpayable",
					"type": "function"
				},
				{
					"inputs": [],
					"name": "getArr",
					"outputs": [
						{
							"internalType": "uint256[]",
							"name": "",
							"type": "uint256[]"
						}
					],
					"stateMutability": "view",
					"type": "function"
				},
				{
					"inputs": [],
					"name": "getLength",
					"outputs": [
						{
							"internalType": "uint256",
							"name": "",
							"type": "uint256"
						}
					],
					"stateMutability": "view",
					"type": "function"
				},
				{
					"inputs": [],
					"name": "pop",
					"outputs": [],
					"stateMutability": "nonpayable",
					"type": "function"
				},
				{
					"inputs": [
						{
							"internalType": "uint256",
							"name": "i",
							"type": "uint256"
						}
					],
					"name": "push",
					"outputs": [],
					"stateMutability": "nonpayable",
					"type": "function"
				},
				{
					"inputs": [
						{
							"internalType": "uint256",
							"name": "index",
							"type": "uint256"
						},
						{
							"internalType": "uint256",
							"name": "val",
							"type": "uint256"
						}
					],
					"name": "setValueAtArr",
					"outputs": [],
					"stateMutability": "nonpayable",
					"type": "function"
				}
			],
			"devdoc": {
				"kind": "dev",
				"methods": {},
				"version": 1
			},
			"evm": {
				"assembly": "    /* \"contracts/array.sol\":58:1575  contract Array {... */\n  mstore(0x40, 0x80)\n    /* \"contracts/array.sol\":147:187  uint256[] public arr2 = [1, 34, 131, 13] */\n  mload(0x40)\n  dup1\n  0x80\n  add\n  0x40\n  mstore\n  dup1\n    /* \"contracts/array.sol\":172:173  1 */\n  0x01\n    /* \"contracts/array.sol\":147:187  uint256[] public arr2 = [1, 34, 131, 13] */\n  0xff\n  and\n  dup2\n  mstore\n  0x20\n  add\n    /* \"contracts/array.sol\":175:177  34 */\n  0x22\n    /* \"contracts/array.sol\":147:187  uint256[] public arr2 = [1, 34, 131, 13] */\n  0xff\n  and\n  dup2\n  mstore\n  0x20\n  add\n    /* \"contracts/array.sol\":179:182  131 */\n  0x83\n    /* \"contracts/array.sol\":147:187  uint256[] public arr2 = [1, 34, 131, 13] */\n  0xff\n  and\n  dup2\n  mstore\n  0x20\n  add\n    /* \"contracts/array.sol\":184:186  13 */\n  0x0d\n    /* \"contracts/array.sol\":147:187  uint256[] public arr2 = [1, 34, 131, 13] */\n  0xff\n  and\n  dup2\n  mstore\n  pop\n  0x01\n  swap1\n  0x04\n  tag_1\n  swap3\n  swap2\n  swap1\n  tag_2\n  jump\t// in\ntag_1:\n  pop\n    /* \"contracts/array.sol\":58:1575  contract Array {... */\n  callvalue\n  dup1\n  iszero\n  tag_3\n  jumpi\n  0x00\n  dup1\n  revert\ntag_3:\n  pop\n  jump(tag_4)\ntag_2:\n  dup3\n  dup1\n  sload\n  dup3\n  dup3\n  sstore\n  swap1\n  0x00\n  mstore\n  keccak256(0x00, 0x20)\n  swap1\n  dup2\n  add\n  swap3\n  dup3\n  iszero\n  tag_5\n  jumpi\n  swap2\n  0x20\n  mul\n  dup3\n  add\ntag_6:\n  dup3\n  dup2\n  gt\n  iszero\n  tag_7\n  jumpi\n  dup3\n  mload\n  dup3\n  swap1\n  0xff\n  and\n  swap1\n  sstore\n  swap2\n  0x20\n  add\n  swap2\n  swap1\n  0x01\n  add\n  swap1\n  jump(tag_6)\ntag_7:\ntag_5:\n  pop\n  swap1\n  pop\n  tag_8\n  swap2\n  swap1\n  tag_9\n  jump\t// in\ntag_8:\n  pop\n  swap1\n  jump\t// out\ntag_9:\ntag_10:\n  dup1\n  dup3\n  gt\n  iszero\n  tag_11\n  jumpi\n  0x00\n  dup2\n  0x00\n  swap1\n  sstore\n  pop\n  0x01\n  add\n  jump(tag_10)\ntag_11:\n  pop\n  swap1\n  jump\t// out\ntag_4:\n  dataSize(sub_0)\n  dup1\n  dataOffset(sub_0)\n  0x00\n  codecopy\n  0x00\n  return\nstop\n\nsub_0: assembly {\n        /* \"contracts/array.sol\":58:1575  contract Array {... */\n      mstore(0x40, 0x80)\n      callvalue\n      dup1\n      iszero\n      tag_1\n      jumpi\n      0x00\n      dup1\n      revert\n    tag_1:\n      pop\n      jumpi(tag_2, lt(calldatasize, 0x04))\n      shr(0xe0, calldataload(0x00))\n      dup1\n      0xbe1c766b\n      gt\n      tag_13\n      jumpi\n      dup1\n      0xbe1c766b\n      eq\n      tag_8\n      jumpi\n      dup1\n      0xead615c1\n      eq\n      tag_9\n      jumpi\n      dup1\n      0xec895bc0\n      eq\n      tag_10\n      jumpi\n      dup1\n      0xedf0099b\n      eq\n      tag_11\n      jumpi\n      dup1\n      0xfb8cbced\n      eq\n      tag_12\n      jumpi\n      jump(tag_2)\n    tag_13:\n      dup1\n      0x689456dd\n      eq\n      tag_3\n      jumpi\n      dup1\n      0x71e5ee5f\n      eq\n      tag_4\n      jumpi\n      dup1\n      0x959ac484\n      eq\n      tag_5\n      jumpi\n      dup1\n      0xa0809777\n      eq\n      tag_6\n      jumpi\n      dup1\n      0xa4ece52c\n      eq\n      tag_7\n      jumpi\n    tag_2:\n      0x00\n      dup1\n      revert\n        /* \"contracts/array.sol\":1445:1573  function setValueAtArr(uint index, uint val) public {... */\n    tag_3:\n      tag_14\n      0x04\n      dup1\n      calldatasize\n      sub\n      dup2\n      add\n      swap1\n      tag_15\n      swap2\n      swap1\n      tag_16\n      jump\t// in\n    tag_15:\n      tag_17\n      jump\t// in\n    tag_14:\n      stop\n        /* \"contracts/array.sol\":121:141  uint256[] public arr */\n    tag_4:\n      tag_18\n      0x04\n      dup1\n      calldatasize\n      sub\n      dup2\n      add\n      swap1\n      tag_19\n      swap2\n      swap1\n      tag_20\n      jump\t// in\n    tag_19:\n      tag_21\n      jump\t// in\n    tag_18:\n      mload(0x40)\n      tag_22\n      swap2\n      swap1\n      tag_23\n      jump\t// in\n    tag_22:\n      mload(0x40)\n      dup1\n      swap2\n      sub\n      swap1\n      return\n        /* \"contracts/array.sol\":469:526  function push(uint i) public {... */\n    tag_5:\n      tag_24\n      0x04\n      dup1\n      calldatasize\n      sub\n      dup2\n      add\n      swap1\n      tag_25\n      swap2\n      swap1\n      tag_20\n      jump\t// in\n    tag_25:\n      tag_26\n      jump\t// in\n    tag_24:\n      stop\n        /* \"contracts/array.sol\":249:273  uint[10] public arrFixed */\n    tag_6:\n      tag_27\n      0x04\n      dup1\n      calldatasize\n      sub\n      dup2\n      add\n      swap1\n      tag_28\n      swap2\n      swap1\n      tag_20\n      jump\t// in\n    tag_28:\n      tag_29\n      jump\t// in\n    tag_27:\n      mload(0x40)\n      tag_30\n      swap2\n      swap1\n      tag_23\n      jump\t// in\n    tag_30:\n      mload(0x40)\n      dup1\n      swap2\n      sub\n      swap1\n      return\n        /* \"contracts/array.sol\":585:687  function pop() public {... */\n    tag_7:\n      tag_31\n      tag_32\n      jump\t// in\n    tag_31:\n      stop\n        /* \"contracts/array.sol\":717:801  function getLength() public view returns(uint256) {... */\n    tag_8:\n      tag_33\n      tag_34\n      jump\t// in\n    tag_33:\n      mload(0x40)\n      tag_35\n      swap2\n      swap1\n      tag_23\n      jump\t// in\n    tag_35:\n      mload(0x40)\n      dup1\n      swap2\n      sub\n      swap1\n      return\n        /* \"contracts/array.sol\":1132:1403  function addNewArr() pure public {... */\n    tag_9:\n      tag_36\n      tag_37\n      jump\t// in\n    tag_36:\n      stop\n        /* \"contracts/array.sol\":844:1091  function delElementFromArr(uint index) public{... */\n    tag_10:\n      tag_38\n      0x04\n      dup1\n      calldatasize\n      sub\n      dup2\n      add\n      swap1\n      tag_39\n      swap2\n      swap1\n      tag_20\n      jump\t// in\n    tag_39:\n      tag_40\n      jump\t// in\n    tag_38:\n      stop\n        /* \"contracts/array.sol\":147:187  uint256[] public arr2 = [1, 34, 131, 13] */\n    tag_11:\n      tag_41\n      0x04\n      dup1\n      calldatasize\n      sub\n      dup2\n      add\n      swap1\n      tag_42\n      swap2\n      swap1\n      tag_20\n      jump\t// in\n    tag_42:\n      tag_43\n      jump\t// in\n    tag_41:\n      mload(0x40)\n      tag_44\n      swap2\n      swap1\n      tag_23\n      jump\t// in\n    tag_44:\n      mload(0x40)\n      dup1\n      swap2\n      sub\n      swap1\n      return\n        /* \"contracts/array.sol\":341:424  function getArr() public view returns(uint256[] memory) {... */\n    tag_12:\n      tag_45\n      tag_46\n      jump\t// in\n    tag_45:\n      mload(0x40)\n      tag_47\n      swap2\n      swap1\n      tag_48\n      jump\t// in\n    tag_47:\n      mload(0x40)\n      dup1\n      swap2\n      sub\n      swap1\n      return\n        /* \"contracts/array.sol\":1445:1573  function setValueAtArr(uint index, uint val) public {... */\n    tag_17:\n        /* \"contracts/array.sol\":1520:1523  val */\n      dup1\n        /* \"contracts/array.sol\":1507:1510  arr */\n      0x00\n        /* \"contracts/array.sol\":1511:1516  index */\n      dup4\n        /* \"contracts/array.sol\":1507:1517  arr[index] */\n      dup2\n      sload\n      dup2\n      lt\n      tag_50\n      jumpi\n      tag_51\n      tag_52\n      jump\t// in\n    tag_51:\n    tag_50:\n      swap1\n      0x00\n      mstore\n      keccak256(0x00, 0x20)\n      add\n        /* \"contracts/array.sol\":1507:1523  arr[index] = val */\n      dup2\n      swap1\n      sstore\n      pop\n        /* \"contracts/array.sol\":1445:1573  function setValueAtArr(uint index, uint val) public {... */\n      pop\n      pop\n      jump\t// out\n        /* \"contracts/array.sol\":121:141  uint256[] public arr */\n    tag_21:\n      0x00\n      dup2\n      dup2\n      sload\n      dup2\n      lt\n      tag_54\n      jumpi\n      0x00\n      dup1\n      revert\n    tag_54:\n      swap1\n      0x00\n      mstore\n      keccak256(0x00, 0x20)\n      add\n      0x00\n      swap2\n      pop\n      swap1\n      pop\n      sload\n      dup2\n      jump\t// out\n        /* \"contracts/array.sol\":469:526  function push(uint i) public {... */\n    tag_26:\n        /* \"contracts/array.sol\":508:511  arr */\n      0x00\n        /* \"contracts/array.sol\":517:518  i */\n      dup2\n        /* \"contracts/array.sol\":508:519  arr.push(i) */\n      swap1\n      dup1\n      0x01\n      dup2\n      sload\n      add\n      dup1\n      dup3\n      sstore\n      dup1\n      swap2\n      pop\n      pop\n      0x01\n      swap1\n      sub\n      swap1\n      0x00\n      mstore\n      keccak256(0x00, 0x20)\n      add\n      0x00\n      swap1\n      swap2\n      swap1\n      swap2\n      swap1\n      swap2\n      pop\n      sstore\n        /* \"contracts/array.sol\":469:526  function push(uint i) public {... */\n      pop\n      jump\t// out\n        /* \"contracts/array.sol\":249:273  uint[10] public arrFixed */\n    tag_29:\n      0x02\n      dup2\n      0x0a\n      dup2\n      lt\n      tag_58\n      jumpi\n      0x00\n      dup1\n      revert\n    tag_58:\n      add\n      0x00\n      swap2\n      pop\n      swap1\n      pop\n      sload\n      dup2\n      jump\t// out\n        /* \"contracts/array.sol\":585:687  function pop() public {... */\n    tag_32:\n        /* \"contracts/array.sol\":624:627  arr */\n      0x00\n        /* \"contracts/array.sol\":624:633  arr.pop() */\n      dup1\n      sload\n      dup1\n      tag_61\n      jumpi\n      tag_62\n      tag_63\n      jump\t// in\n    tag_62:\n    tag_61:\n      0x01\n      swap1\n      sub\n      dup2\n      dup2\n      swap1\n      0x00\n      mstore\n      keccak256(0x00, 0x20)\n      add\n      0x00\n      swap1\n      sstore\n      swap1\n      sstore\n        /* \"contracts/array.sol\":585:687  function pop() public {... */\n      jump\t// out\n        /* \"contracts/array.sol\":717:801  function getLength() public view returns(uint256) {... */\n    tag_34:\n        /* \"contracts/array.sol\":758:765  uint256 */\n      0x00\n        /* \"contracts/array.sol\":784:787  arr */\n      dup1\n        /* \"contracts/array.sol\":784:794  arr.length */\n      dup1\n      sload\n      swap1\n      pop\n        /* \"contracts/array.sol\":777:794  return arr.length */\n      swap1\n      pop\n        /* \"contracts/array.sol\":717:801  function getLength() public view returns(uint256) {... */\n      swap1\n      jump\t// out\n        /* \"contracts/array.sol\":1132:1403  function addNewArr() pure public {... */\n    tag_37:\n        /* \"contracts/array.sol\":1175:1196  uint[] memory _newArr */\n      0x00\n        /* \"contracts/array.sol\":1210:1211  5 */\n      0x05\n        /* \"contracts/array.sol\":1199:1212  new uint[](5) */\n      0xffffffffffffffff\n      dup2\n      gt\n      iszero\n      tag_67\n      jumpi\n      tag_68\n      tag_69\n      jump\t// in\n    tag_68:\n    tag_67:\n      mload(0x40)\n      swap1\n      dup1\n      dup3\n      mstore\n      dup1\n      0x20\n      mul\n      0x20\n      add\n      dup3\n      add\n      0x40\n      mstore\n      dup1\n      iszero\n      tag_70\n      jumpi\n      dup2\n      0x20\n      add\n      0x20\n      dup3\n      mul\n      dup1\n      calldatasize\n      dup4\n      calldatacopy\n      dup1\n      dup3\n      add\n      swap2\n      pop\n      pop\n      swap1\n      pop\n    tag_70:\n      pop\n        /* \"contracts/array.sol\":1175:1212  uint[] memory _newArr = new uint[](5) */\n      swap1\n      pop\n        /* \"contracts/array.sol\":1165:1403  {... */\n      pop\n        /* \"contracts/array.sol\":1132:1403  function addNewArr() pure public {... */\n      jump\t// out\n        /* \"contracts/array.sol\":844:1091  function delElementFromArr(uint index) public{... */\n    tag_40:\n        /* \"contracts/array.sol\":1042:1045  arr */\n      0x00\n        /* \"contracts/array.sol\":1046:1051  index */\n      dup2\n        /* \"contracts/array.sol\":1042:1052  arr[index] */\n      dup2\n      sload\n      dup2\n      lt\n      tag_72\n      jumpi\n      tag_73\n      tag_52\n      jump\t// in\n    tag_73:\n    tag_72:\n      swap1\n      0x00\n      mstore\n      keccak256(0x00, 0x20)\n      add\n        /* \"contracts/array.sol\":1035:1052  delete arr[index] */\n      0x00\n      swap1\n      sstore\n        /* \"contracts/array.sol\":844:1091  function delElementFromArr(uint index) public{... */\n      pop\n      jump\t// out\n        /* \"contracts/array.sol\":147:187  uint256[] public arr2 = [1, 34, 131, 13] */\n    tag_43:\n      0x01\n      dup2\n      dup2\n      sload\n      dup2\n      lt\n      tag_75\n      jumpi\n      0x00\n      dup1\n      revert\n    tag_75:\n      swap1\n      0x00\n      mstore\n      keccak256(0x00, 0x20)\n      add\n      0x00\n      swap2\n      pop\n      swap1\n      pop\n      sload\n      dup2\n      jump\t// out\n        /* \"contracts/array.sol\":341:424  function getArr() public view returns(uint256[] memory) {... */\n    tag_46:\n        /* \"contracts/array.sol\":379:395  uint256[] memory */\n      0x60\n        /* \"contracts/array.sol\":414:417  arr */\n      0x00\n        /* \"contracts/array.sol\":407:417  return arr */\n      dup1\n      sload\n      dup1\n      0x20\n      mul\n      0x20\n      add\n      mload(0x40)\n      swap1\n      dup2\n      add\n      0x40\n      mstore\n      dup1\n      swap3\n      swap2\n      swap1\n      dup2\n      dup2\n      mstore\n      0x20\n      add\n      dup3\n      dup1\n      sload\n      dup1\n      iszero\n      tag_78\n      jumpi\n      0x20\n      mul\n      dup3\n      add\n      swap2\n      swap1\n      0x00\n      mstore\n      keccak256(0x00, 0x20)\n      swap1\n    tag_79:\n      dup2\n      sload\n      dup2\n      mstore\n      0x20\n      add\n      swap1\n      0x01\n      add\n      swap1\n      dup1\n      dup4\n      gt\n      tag_79\n      jumpi\n    tag_78:\n      pop\n      pop\n      pop\n      pop\n      pop\n      swap1\n      pop\n        /* \"contracts/array.sol\":341:424  function getArr() public view returns(uint256[] memory) {... */\n      swap1\n      jump\t// out\n        /* \"#utility.yul\":88:205   */\n    tag_81:\n        /* \"#utility.yul\":197:198   */\n      0x00\n        /* \"#utility.yul\":194:195   */\n      dup1\n        /* \"#utility.yul\":187:199   */\n      revert\n        /* \"#utility.yul\":334:411   */\n    tag_83:\n        /* \"#utility.yul\":371:378   */\n      0x00\n        /* \"#utility.yul\":400:405   */\n      dup2\n        /* \"#utility.yul\":389:405   */\n      swap1\n      pop\n        /* \"#utility.yul\":334:411   */\n      swap2\n      swap1\n      pop\n      jump\t// out\n        /* \"#utility.yul\":417:539   */\n    tag_84:\n        /* \"#utility.yul\":490:514   */\n      tag_100\n        /* \"#utility.yul\":508:513   */\n      dup2\n        /* \"#utility.yul\":490:514   */\n      tag_83\n      jump\t// in\n    tag_100:\n        /* \"#utility.yul\":483:488   */\n      dup2\n        /* \"#utility.yul\":480:515   */\n      eq\n        /* \"#utility.yul\":470:533   */\n      tag_101\n      jumpi\n        /* \"#utility.yul\":529:530   */\n      0x00\n        /* \"#utility.yul\":526:527   */\n      dup1\n        /* \"#utility.yul\":519:531   */\n      revert\n        /* \"#utility.yul\":470:533   */\n    tag_101:\n        /* \"#utility.yul\":417:539   */\n      pop\n      jump\t// out\n        /* \"#utility.yul\":545:684   */\n    tag_85:\n        /* \"#utility.yul\":591:596   */\n      0x00\n        /* \"#utility.yul\":629:635   */\n      dup2\n        /* \"#utility.yul\":616:636   */\n      calldataload\n        /* \"#utility.yul\":607:636   */\n      swap1\n      pop\n        /* \"#utility.yul\":645:678   */\n      tag_103\n        /* \"#utility.yul\":672:677   */\n      dup2\n        /* \"#utility.yul\":645:678   */\n      tag_84\n      jump\t// in\n    tag_103:\n        /* \"#utility.yul\":545:684   */\n      swap3\n      swap2\n      pop\n      pop\n      jump\t// out\n        /* \"#utility.yul\":690:1164   */\n    tag_16:\n        /* \"#utility.yul\":758:764   */\n      0x00\n        /* \"#utility.yul\":766:772   */\n      dup1\n        /* \"#utility.yul\":815:817   */\n      0x40\n        /* \"#utility.yul\":803:812   */\n      dup4\n        /* \"#utility.yul\":794:801   */\n      dup6\n        /* \"#utility.yul\":790:813   */\n      sub\n        /* \"#utility.yul\":786:818   */\n      slt\n        /* \"#utility.yul\":783:902   */\n      iszero\n      tag_105\n      jumpi\n        /* \"#utility.yul\":821:900   */\n      tag_106\n      tag_81\n      jump\t// in\n    tag_106:\n        /* \"#utility.yul\":783:902   */\n    tag_105:\n        /* \"#utility.yul\":941:942   */\n      0x00\n        /* \"#utility.yul\":966:1019   */\n      tag_107\n        /* \"#utility.yul\":1011:1018   */\n      dup6\n        /* \"#utility.yul\":1002:1008   */\n      dup3\n        /* \"#utility.yul\":991:1000   */\n      dup7\n        /* \"#utility.yul\":987:1009   */\n      add\n        /* \"#utility.yul\":966:1019   */\n      tag_85\n      jump\t// in\n    tag_107:\n        /* \"#utility.yul\":956:1019   */\n      swap3\n      pop\n        /* \"#utility.yul\":912:1029   */\n      pop\n        /* \"#utility.yul\":1068:1070   */\n      0x20\n        /* \"#utility.yul\":1094:1147   */\n      tag_108\n        /* \"#utility.yul\":1139:1146   */\n      dup6\n        /* \"#utility.yul\":1130:1136   */\n      dup3\n        /* \"#utility.yul\":1119:1128   */\n      dup7\n        /* \"#utility.yul\":1115:1137   */\n      add\n        /* \"#utility.yul\":1094:1147   */\n      tag_85\n      jump\t// in\n    tag_108:\n        /* \"#utility.yul\":1084:1147   */\n      swap2\n      pop\n        /* \"#utility.yul\":1039:1157   */\n      pop\n        /* \"#utility.yul\":690:1164   */\n      swap3\n      pop\n      swap3\n      swap1\n      pop\n      jump\t// out\n        /* \"#utility.yul\":1170:1499   */\n    tag_20:\n        /* \"#utility.yul\":1229:1235   */\n      0x00\n        /* \"#utility.yul\":1278:1280   */\n      0x20\n        /* \"#utility.yul\":1266:1275   */\n      dup3\n        /* \"#utility.yul\":1257:1264   */\n      dup5\n        /* \"#utility.yul\":1253:1276   */\n      sub\n        /* \"#utility.yul\":1249:1281   */\n      slt\n        /* \"#utility.yul\":1246:1365   */\n      iszero\n      tag_110\n      jumpi\n        /* \"#utility.yul\":1284:1363   */\n      tag_111\n      tag_81\n      jump\t// in\n    tag_111:\n        /* \"#utility.yul\":1246:1365   */\n    tag_110:\n        /* \"#utility.yul\":1404:1405   */\n      0x00\n        /* \"#utility.yul\":1429:1482   */\n      tag_112\n        /* \"#utility.yul\":1474:1481   */\n      dup5\n        /* \"#utility.yul\":1465:1471   */\n      dup3\n        /* \"#utility.yul\":1454:1463   */\n      dup6\n        /* \"#utility.yul\":1450:1472   */\n      add\n        /* \"#utility.yul\":1429:1482   */\n      tag_85\n      jump\t// in\n    tag_112:\n        /* \"#utility.yul\":1419:1482   */\n      swap2\n      pop\n        /* \"#utility.yul\":1375:1492   */\n      pop\n        /* \"#utility.yul\":1170:1499   */\n      swap3\n      swap2\n      pop\n      pop\n      jump\t// out\n        /* \"#utility.yul\":1505:1623   */\n    tag_86:\n        /* \"#utility.yul\":1592:1616   */\n      tag_114\n        /* \"#utility.yul\":1610:1615   */\n      dup2\n        /* \"#utility.yul\":1592:1616   */\n      tag_83\n      jump\t// in\n    tag_114:\n        /* \"#utility.yul\":1587:1590   */\n      dup3\n        /* \"#utility.yul\":1580:1617   */\n      mstore\n        /* \"#utility.yul\":1505:1623   */\n      pop\n      pop\n      jump\t// out\n        /* \"#utility.yul\":1629:1851   */\n    tag_23:\n        /* \"#utility.yul\":1722:1726   */\n      0x00\n        /* \"#utility.yul\":1760:1762   */\n      0x20\n        /* \"#utility.yul\":1749:1758   */\n      dup3\n        /* \"#utility.yul\":1745:1763   */\n      add\n        /* \"#utility.yul\":1737:1763   */\n      swap1\n      pop\n        /* \"#utility.yul\":1773:1844   */\n      tag_116\n        /* \"#utility.yul\":1841:1842   */\n      0x00\n        /* \"#utility.yul\":1830:1839   */\n      dup4\n        /* \"#utility.yul\":1826:1843   */\n      add\n        /* \"#utility.yul\":1817:1823   */\n      dup5\n        /* \"#utility.yul\":1773:1844   */\n      tag_86\n      jump\t// in\n    tag_116:\n        /* \"#utility.yul\":1629:1851   */\n      swap3\n      swap2\n      pop\n      pop\n      jump\t// out\n        /* \"#utility.yul\":1857:1971   */\n    tag_87:\n        /* \"#utility.yul\":1924:1930   */\n      0x00\n        /* \"#utility.yul\":1958:1963   */\n      dup2\n        /* \"#utility.yul\":1952:1964   */\n      mload\n        /* \"#utility.yul\":1942:1964   */\n      swap1\n      pop\n        /* \"#utility.yul\":1857:1971   */\n      swap2\n      swap1\n      pop\n      jump\t// out\n        /* \"#utility.yul\":1977:2161   */\n    tag_88:\n        /* \"#utility.yul\":2076:2087   */\n      0x00\n        /* \"#utility.yul\":2110:2116   */\n      dup3\n        /* \"#utility.yul\":2105:2108   */\n      dup3\n        /* \"#utility.yul\":2098:2117   */\n      mstore\n        /* \"#utility.yul\":2150:2154   */\n      0x20\n        /* \"#utility.yul\":2145:2148   */\n      dup3\n        /* \"#utility.yul\":2141:2155   */\n      add\n        /* \"#utility.yul\":2126:2155   */\n      swap1\n      pop\n        /* \"#utility.yul\":1977:2161   */\n      swap3\n      swap2\n      pop\n      pop\n      jump\t// out\n        /* \"#utility.yul\":2167:2299   */\n    tag_89:\n        /* \"#utility.yul\":2234:2238   */\n      0x00\n        /* \"#utility.yul\":2257:2260   */\n      dup2\n        /* \"#utility.yul\":2249:2260   */\n      swap1\n      pop\n        /* \"#utility.yul\":2287:2291   */\n      0x20\n        /* \"#utility.yul\":2282:2285   */\n      dup3\n        /* \"#utility.yul\":2278:2292   */\n      add\n        /* \"#utility.yul\":2270:2292   */\n      swap1\n      pop\n        /* \"#utility.yul\":2167:2299   */\n      swap2\n      swap1\n      pop\n      jump\t// out\n        /* \"#utility.yul\":2305:2413   */\n    tag_90:\n        /* \"#utility.yul\":2382:2406   */\n      tag_121\n        /* \"#utility.yul\":2400:2405   */\n      dup2\n        /* \"#utility.yul\":2382:2406   */\n      tag_83\n      jump\t// in\n    tag_121:\n        /* \"#utility.yul\":2377:2380   */\n      dup3\n        /* \"#utility.yul\":2370:2407   */\n      mstore\n        /* \"#utility.yul\":2305:2413   */\n      pop\n      pop\n      jump\t// out\n        /* \"#utility.yul\":2419:2598   */\n    tag_91:\n        /* \"#utility.yul\":2488:2498   */\n      0x00\n        /* \"#utility.yul\":2509:2555   */\n      tag_123\n        /* \"#utility.yul\":2551:2554   */\n      dup4\n        /* \"#utility.yul\":2543:2549   */\n      dup4\n        /* \"#utility.yul\":2509:2555   */\n      tag_90\n      jump\t// in\n    tag_123:\n        /* \"#utility.yul\":2587:2591   */\n      0x20\n        /* \"#utility.yul\":2582:2585   */\n      dup4\n        /* \"#utility.yul\":2578:2592   */\n      add\n        /* \"#utility.yul\":2564:2592   */\n      swap1\n      pop\n        /* \"#utility.yul\":2419:2598   */\n      swap3\n      swap2\n      pop\n      pop\n      jump\t// out\n        /* \"#utility.yul\":2604:2717   */\n    tag_92:\n        /* \"#utility.yul\":2674:2678   */\n      0x00\n        /* \"#utility.yul\":2706:2710   */\n      0x20\n        /* \"#utility.yul\":2701:2704   */\n      dup3\n        /* \"#utility.yul\":2697:2711   */\n      add\n        /* \"#utility.yul\":2689:2711   */\n      swap1\n      pop\n        /* \"#utility.yul\":2604:2717   */\n      swap2\n      swap1\n      pop\n      jump\t// out\n        /* \"#utility.yul\":2753:3485   */\n    tag_93:\n        /* \"#utility.yul\":2872:2875   */\n      0x00\n        /* \"#utility.yul\":2901:2955   */\n      tag_126\n        /* \"#utility.yul\":2949:2954   */\n      dup3\n        /* \"#utility.yul\":2901:2955   */\n      tag_87\n      jump\t// in\n    tag_126:\n        /* \"#utility.yul\":2971:3057   */\n      tag_127\n        /* \"#utility.yul\":3050:3056   */\n      dup2\n        /* \"#utility.yul\":3045:3048   */\n      dup6\n        /* \"#utility.yul\":2971:3057   */\n      tag_88\n      jump\t// in\n    tag_127:\n        /* \"#utility.yul\":2964:3057   */\n      swap4\n      pop\n        /* \"#utility.yul\":3081:3137   */\n      tag_128\n        /* \"#utility.yul\":3131:3136   */\n      dup4\n        /* \"#utility.yul\":3081:3137   */\n      tag_89\n      jump\t// in\n    tag_128:\n        /* \"#utility.yul\":3160:3167   */\n      dup1\n        /* \"#utility.yul\":3191:3192   */\n      0x00\n        /* \"#utility.yul\":3176:3460   */\n    tag_129:\n        /* \"#utility.yul\":3201:3207   */\n      dup4\n        /* \"#utility.yul\":3198:3199   */\n      dup2\n        /* \"#utility.yul\":3195:3208   */\n      lt\n        /* \"#utility.yul\":3176:3460   */\n      iszero\n      tag_131\n      jumpi\n        /* \"#utility.yul\":3277:3283   */\n      dup2\n        /* \"#utility.yul\":3271:3284   */\n      mload\n        /* \"#utility.yul\":3304:3367   */\n      tag_132\n        /* \"#utility.yul\":3363:3366   */\n      dup9\n        /* \"#utility.yul\":3348:3361   */\n      dup3\n        /* \"#utility.yul\":3304:3367   */\n      tag_91\n      jump\t// in\n    tag_132:\n        /* \"#utility.yul\":3297:3367   */\n      swap8\n      pop\n        /* \"#utility.yul\":3390:3450   */\n      tag_133\n        /* \"#utility.yul\":3443:3449   */\n      dup4\n        /* \"#utility.yul\":3390:3450   */\n      tag_92\n      jump\t// in\n    tag_133:\n        /* \"#utility.yul\":3380:3450   */\n      swap3\n      pop\n        /* \"#utility.yul\":3236:3460   */\n      pop\n        /* \"#utility.yul\":3223:3224   */\n      0x01\n        /* \"#utility.yul\":3220:3221   */\n      dup2\n        /* \"#utility.yul\":3216:3225   */\n      add\n        /* \"#utility.yul\":3211:3225   */\n      swap1\n      pop\n        /* \"#utility.yul\":3176:3460   */\n      jump(tag_129)\n    tag_131:\n        /* \"#utility.yul\":3180:3194   */\n      pop\n        /* \"#utility.yul\":3476:3479   */\n      dup6\n        /* \"#utility.yul\":3469:3479   */\n      swap4\n      pop\n        /* \"#utility.yul\":2877:3485   */\n      pop\n      pop\n      pop\n        /* \"#utility.yul\":2753:3485   */\n      swap3\n      swap2\n      pop\n      pop\n      jump\t// out\n        /* \"#utility.yul\":3491:3864   */\n    tag_48:\n        /* \"#utility.yul\":3634:3638   */\n      0x00\n        /* \"#utility.yul\":3672:3674   */\n      0x20\n        /* \"#utility.yul\":3661:3670   */\n      dup3\n        /* \"#utility.yul\":3657:3675   */\n      add\n        /* \"#utility.yul\":3649:3675   */\n      swap1\n      pop\n        /* \"#utility.yul\":3721:3730   */\n      dup2\n        /* \"#utility.yul\":3715:3719   */\n      dup2\n        /* \"#utility.yul\":3711:3731   */\n      sub\n        /* \"#utility.yul\":3707:3708   */\n      0x00\n        /* \"#utility.yul\":3696:3705   */\n      dup4\n        /* \"#utility.yul\":3692:3709   */\n      add\n        /* \"#utility.yul\":3685:3732   */\n      mstore\n        /* \"#utility.yul\":3749:3857   */\n      tag_135\n        /* \"#utility.yul\":3852:3856   */\n      dup2\n        /* \"#utility.yul\":3843:3849   */\n      dup5\n        /* \"#utility.yul\":3749:3857   */\n      tag_93\n      jump\t// in\n    tag_135:\n        /* \"#utility.yul\":3741:3857   */\n      swap1\n      pop\n        /* \"#utility.yul\":3491:3864   */\n      swap3\n      swap2\n      pop\n      pop\n      jump\t// out\n        /* \"#utility.yul\":3870:4050   */\n    tag_52:\n        /* \"#utility.yul\":3918:3995   */\n      0x4e487b7100000000000000000000000000000000000000000000000000000000\n        /* \"#utility.yul\":3915:3916   */\n      0x00\n        /* \"#utility.yul\":3908:3996   */\n      mstore\n        /* \"#utility.yul\":4015:4019   */\n      0x32\n        /* \"#utility.yul\":4012:4013   */\n      0x04\n        /* \"#utility.yul\":4005:4020   */\n      mstore\n        /* \"#utility.yul\":4039:4043   */\n      0x24\n        /* \"#utility.yul\":4036:4037   */\n      0x00\n        /* \"#utility.yul\":4029:4044   */\n      revert\n        /* \"#utility.yul\":4056:4236   */\n    tag_63:\n        /* \"#utility.yul\":4104:4181   */\n      0x4e487b7100000000000000000000000000000000000000000000000000000000\n        /* \"#utility.yul\":4101:4102   */\n      0x00\n        /* \"#utility.yul\":4094:4182   */\n      mstore\n        /* \"#utility.yul\":4201:4205   */\n      0x31\n        /* \"#utility.yul\":4198:4199   */\n      0x04\n        /* \"#utility.yul\":4191:4206   */\n      mstore\n        /* \"#utility.yul\":4225:4229   */\n      0x24\n        /* \"#utility.yul\":4222:4223   */\n      0x00\n        /* \"#utility.yul\":4215:4230   */\n      revert\n        /* \"#utility.yul\":4242:4422   */\n    tag_69:\n        /* \"#utility.yul\":4290:4367   */\n      0x4e487b7100000000000000000000000000000000000000000000000000000000\n        /* \"#utility.yul\":4287:4288   */\n      0x00\n        /* \"#utility.yul\":4280:4368   */\n      mstore\n        /* \"#utility.yul\":4387:4391   */\n      0x41\n        /* \"#utility.yul\":4384:4385   */\n      0x04\n        /* \"#utility.yul\":4377:4392   */\n      mstore\n        /* \"#utility.yul\":4411:4415   */\n      0x24\n        /* \"#utility.yul\":4408:4409   */\n      0x00\n        /* \"#utility.yul\":4401:4416   */\n      revert\n\n    auxdata: 0xa2646970667358221220e369549a414110a12aac005cf6d171208104ca25b9062f7d0c0573b86fcaaa3064736f6c634300081a0033\n}\n",
				"bytecode": {
					"linkReferences": {},
					"object": "60806040526040518060800160405280600160ff168152602001602260ff168152602001608360ff168152602001600d60ff16815250600190600460439291906053565b50348015604e575f80fd5b5060b7565b828054828255905f5260205f20908101928215608f579160200282015b82811115608e578251829060ff169055916020019190600101906070565b5b509050609a9190609e565b5090565b5b8082111560b3575f815f905550600101609f565b5090565b6105cb806100c45f395ff3fe608060405234801561000f575f80fd5b506004361061009c575f3560e01c8063be1c766b11610064578063be1c766b14610142578063ead615c114610160578063ec895bc01461016a578063edf0099b14610186578063fb8cbced146101b65761009c565b8063689456dd146100a057806371e5ee5f146100bc578063959ac484146100ec578063a080977714610108578063a4ece52c14610138575b5f80fd5b6100ba60048036038101906100b591906103a6565b6101d4565b005b6100d660048036038101906100d191906103e4565b6101f8565b6040516100e3919061041e565b60405180910390f35b610106600480360381019061010191906103e4565b610217565b005b610122600480360381019061011d91906103e4565b61023f565b60405161012f919061041e565b60405180910390f35b610140610258565b005b61014a61027e565b604051610157919061041e565b60405180910390f35b610168610289565b005b610184600480360381019061017f91906103e4565b6102d9565b005b6101a0600480360381019061019b91906103e4565b6102fa565b6040516101ad919061041e565b60405180910390f35b6101be61031a565b6040516101cb91906104ee565b60405180910390f35b805f83815481106101e8576101e761050e565b5b905f5260205f2001819055505050565b5f8181548110610206575f80fd5b905f5260205f20015f915090505481565b5f81908060018154018082558091505060019003905f5260205f20015f909190919091505550565b600281600a811061024e575f80fd5b015f915090505481565b5f8054806102695761026861053b565b5b600190038181905f5260205f20015f90559055565b5f8080549050905090565b5f600567ffffffffffffffff8111156102a5576102a4610568565b5b6040519080825280602002602001820160405280156102d35781602001602082028036833780820191505090505b50905050565b5f81815481106102ec576102eb61050e565b5b905f5260205f20015f905550565b60018181548110610309575f80fd5b905f5260205f20015f915090505481565b60605f80548060200260200160405190810160405280929190818152602001828054801561036557602002820191905f5260205f20905b815481526020019060010190808311610351575b5050505050905090565b5f80fd5b5f819050919050565b61038581610373565b811461038f575f80fd5b50565b5f813590506103a08161037c565b92915050565b5f80604083850312156103bc576103bb61036f565b5b5f6103c985828601610392565b92505060206103da85828601610392565b9150509250929050565b5f602082840312156103f9576103f861036f565b5b5f61040684828501610392565b91505092915050565b61041881610373565b82525050565b5f6020820190506104315f83018461040f565b92915050565b5f81519050919050565b5f82825260208201905092915050565b5f819050602082019050919050565b61046981610373565b82525050565b5f61047a8383610460565b60208301905092915050565b5f602082019050919050565b5f61049c82610437565b6104a68185610441565b93506104b183610451565b805f5b838110156104e15781516104c8888261046f565b97506104d383610486565b9250506001810190506104b4565b5085935050505092915050565b5f6020820190508181035f8301526105068184610492565b905092915050565b7f4e487b71000000000000000000000000000000000000000000000000000000005f52603260045260245ffd5b7f4e487b71000000000000000000000000000000000000000000000000000000005f52603160045260245ffd5b7f4e487b71000000000000000000000000000000000000000000000000000000005f52604160045260245ffdfea2646970667358221220e369549a414110a12aac005cf6d171208104ca25b9062f7d0c0573b86fcaaa3064736f6c634300081a0033",
					"opcodes": "PUSH1 0x80 PUSH1 0x40 MSTORE PUSH1 0x40 MLOAD DUP1 PUSH1 0x80 ADD PUSH1 0x40 MSTORE DUP1 PUSH1 0x1 PUSH1 0xFF AND DUP2 MSTORE PUSH1 0x20 ADD PUSH1 0x22 PUSH1 0xFF AND DUP2 MSTORE PUSH1 0x20 ADD PUSH1 0x83 PUSH1 0xFF AND DUP2 MSTORE PUSH1 0x20 ADD PUSH1 0xD PUSH1 0xFF AND DUP2 MSTORE POP PUSH1 0x1 SWAP1 PUSH1 0x4 PUSH1 0x43 SWAP3 SWAP2 SWAP1 PUSH1 0x53 JUMP JUMPDEST POP CALLVALUE DUP1 ISZERO PUSH1 0x4E JUMPI PUSH0 DUP1 REVERT JUMPDEST POP PUSH1 0xB7 JUMP JUMPDEST DUP3 DUP1 SLOAD DUP3 DUP3 SSTORE SWAP1 PUSH0 MSTORE PUSH1 0x20 PUSH0 KECCAK256 SWAP1 DUP2 ADD SWAP3 DUP3 ISZERO PUSH1 0x8F JUMPI SWAP2 PUSH1 0x20 MUL DUP3 ADD JUMPDEST DUP3 DUP2 GT ISZERO PUSH1 0x8E JUMPI DUP3 MLOAD DUP3 SWAP1 PUSH1 0xFF AND SWAP1 SSTORE SWAP2 PUSH1 0x20 ADD SWAP2 SWAP1 PUSH1 0x1 ADD SWAP1 PUSH1 0x70 JUMP JUMPDEST JUMPDEST POP SWAP1 POP PUSH1 0x9A SWAP2 SWAP1 PUSH1 0x9E JUMP JUMPDEST POP SWAP1 JUMP JUMPDEST JUMPDEST DUP1 DUP3 GT ISZERO PUSH1 0xB3 JUMPI PUSH0 DUP2 PUSH0 SWAP1 SSTORE POP PUSH1 0x1 ADD PUSH1 0x9F JUMP JUMPDEST POP SWAP1 JUMP JUMPDEST PUSH2 0x5CB DUP1 PUSH2 0xC4 PUSH0 CODECOPY PUSH0 RETURN INVALID PUSH1 0x80 PUSH1 0x40 MSTORE CALLVALUE DUP1 ISZERO PUSH2 0xF JUMPI PUSH0 DUP1 REVERT JUMPDEST POP PUSH1 0x4 CALLDATASIZE LT PUSH2 0x9C JUMPI PUSH0 CALLDATALOAD PUSH1 0xE0 SHR DUP1 PUSH4 0xBE1C766B GT PUSH2 0x64 JUMPI DUP1 PUSH4 0xBE1C766B EQ PUSH2 0x142 JUMPI DUP1 PUSH4 0xEAD615C1 EQ PUSH2 0x160 JUMPI DUP1 PUSH4 0xEC895BC0 EQ PUSH2 0x16A JUMPI DUP1 PUSH4 0xEDF0099B EQ PUSH2 0x186 JUMPI DUP1 PUSH4 0xFB8CBCED EQ PUSH2 0x1B6 JUMPI PUSH2 0x9C JUMP JUMPDEST DUP1 PUSH4 0x689456DD EQ PUSH2 0xA0 JUMPI DUP1 PUSH4 0x71E5EE5F EQ PUSH2 0xBC JUMPI DUP1 PUSH4 0x959AC484 EQ PUSH2 0xEC JUMPI DUP1 PUSH4 0xA0809777 EQ PUSH2 0x108 JUMPI DUP1 PUSH4 0xA4ECE52C EQ PUSH2 0x138 JUMPI JUMPDEST PUSH0 DUP1 REVERT JUMPDEST PUSH2 0xBA PUSH1 0x4 DUP1 CALLDATASIZE SUB DUP2 ADD SWAP1 PUSH2 0xB5 SWAP2 SWAP1 PUSH2 0x3A6 JUMP JUMPDEST PUSH2 0x1D4 JUMP JUMPDEST STOP JUMPDEST PUSH2 0xD6 PUSH1 0x4 DUP1 CALLDATASIZE SUB DUP2 ADD SWAP1 PUSH2 0xD1 SWAP2 SWAP1 PUSH2 0x3E4 JUMP JUMPDEST PUSH2 0x1F8 JUMP JUMPDEST PUSH1 0x40 MLOAD PUSH2 0xE3 SWAP2 SWAP1 PUSH2 0x41E JUMP JUMPDEST PUSH1 0x40 MLOAD DUP1 SWAP2 SUB SWAP1 RETURN JUMPDEST PUSH2 0x106 PUSH1 0x4 DUP1 CALLDATASIZE SUB DUP2 ADD SWAP1 PUSH2 0x101 SWAP2 SWAP1 PUSH2 0x3E4 JUMP JUMPDEST PUSH2 0x217 JUMP JUMPDEST STOP JUMPDEST PUSH2 0x122 PUSH1 0x4 DUP1 CALLDATASIZE SUB DUP2 ADD SWAP1 PUSH2 0x11D SWAP2 SWAP1 PUSH2 0x3E4 JUMP JUMPDEST PUSH2 0x23F JUMP JUMPDEST PUSH1 0x40 MLOAD PUSH2 0x12F SWAP2 SWAP1 PUSH2 0x41E JUMP JUMPDEST PUSH1 0x40 MLOAD DUP1 SWAP2 SUB SWAP1 RETURN JUMPDEST PUSH2 0x140 PUSH2 0x258 JUMP JUMPDEST STOP JUMPDEST PUSH2 0x14A PUSH2 0x27E JUMP JUMPDEST PUSH1 0x40 MLOAD PUSH2 0x157 SWAP2 SWAP1 PUSH2 0x41E JUMP JUMPDEST PUSH1 0x40 MLOAD DUP1 SWAP2 SUB SWAP1 RETURN JUMPDEST PUSH2 0x168 PUSH2 0x289 JUMP JUMPDEST STOP JUMPDEST PUSH2 0x184 PUSH1 0x4 DUP1 CALLDATASIZE SUB DUP2 ADD SWAP1 PUSH2 0x17F SWAP2 SWAP1 PUSH2 0x3E4 JUMP JUMPDEST PUSH2 0x2D9 JUMP JUMPDEST STOP JUMPDEST PUSH2 0x1A0 PUSH1 0x4 DUP1 CALLDATASIZE SUB DUP2 ADD SWAP1 PUSH2 0x19B SWAP2 SWAP1 PUSH2 0x3E4 JUMP JUMPDEST PUSH2 0x2FA JUMP JUMPDEST PUSH1 0x40 MLOAD PUSH2 0x1AD SWAP2 SWAP1 PUSH2 0x41E JUMP JUMPDEST PUSH1 0x40 MLOAD DUP1 SWAP2 SUB SWAP1 RETURN JUMPDEST PUSH2 0x1BE PUSH2 0x31A JUMP JUMPDEST PUSH1 0x40 MLOAD PUSH2 0x1CB SWAP2 SWAP1 PUSH2 0x4EE JUMP JUMPDEST PUSH1 0x40 MLOAD DUP1 SWAP2 SUB SWAP1 RETURN JUMPDEST DUP1 PUSH0 DUP4 DUP2 SLOAD DUP2 LT PUSH2 0x1E8 JUMPI PUSH2 0x1E7 PUSH2 0x50E JUMP JUMPDEST JUMPDEST SWAP1 PUSH0 MSTORE PUSH1 0x20 PUSH0 KECCAK256 ADD DUP2 SWAP1 SSTORE POP POP POP JUMP JUMPDEST PUSH0 DUP2 DUP2 SLOAD DUP2 LT PUSH2 0x206 JUMPI PUSH0 DUP1 REVERT JUMPDEST SWAP1 PUSH0 MSTORE PUSH1 0x20 PUSH0 KECCAK256 ADD PUSH0 SWAP2 POP SWAP1 POP SLOAD DUP2 JUMP JUMPDEST PUSH0 DUP2 SWAP1 DUP1 PUSH1 0x1 DUP2 SLOAD ADD DUP1 DUP3 SSTORE DUP1 SWAP2 POP POP PUSH1 0x1 SWAP1 SUB SWAP1 PUSH0 MSTORE PUSH1 0x20 PUSH0 KECCAK256 ADD PUSH0 SWAP1 SWAP2 SWAP1 SWAP2 SWAP1 SWAP2 POP SSTORE POP JUMP JUMPDEST PUSH1 0x2 DUP2 PUSH1 0xA DUP2 LT PUSH2 0x24E JUMPI PUSH0 DUP1 REVERT JUMPDEST ADD PUSH0 SWAP2 POP SWAP1 POP SLOAD DUP2 JUMP JUMPDEST PUSH0 DUP1 SLOAD DUP1 PUSH2 0x269 JUMPI PUSH2 0x268 PUSH2 0x53B JUMP JUMPDEST JUMPDEST PUSH1 0x1 SWAP1 SUB DUP2 DUP2 SWAP1 PUSH0 MSTORE PUSH1 0x20 PUSH0 KECCAK256 ADD PUSH0 SWAP1 SSTORE SWAP1 SSTORE JUMP JUMPDEST PUSH0 DUP1 DUP1 SLOAD SWAP1 POP SWAP1 POP SWAP1 JUMP JUMPDEST PUSH0 PUSH1 0x5 PUSH8 0xFFFFFFFFFFFFFFFF DUP2 GT ISZERO PUSH2 0x2A5 JUMPI PUSH2 0x2A4 PUSH2 0x568 JUMP JUMPDEST JUMPDEST PUSH1 0x40 MLOAD SWAP1 DUP1 DUP3 MSTORE DUP1 PUSH1 0x20 MUL PUSH1 0x20 ADD DUP3 ADD PUSH1 0x40 MSTORE DUP1 ISZERO PUSH2 0x2D3 JUMPI DUP2 PUSH1 0x20 ADD PUSH1 0x20 DUP3 MUL DUP1 CALLDATASIZE DUP4 CALLDATACOPY DUP1 DUP3 ADD SWAP2 POP POP SWAP1 POP JUMPDEST POP SWAP1 POP POP JUMP JUMPDEST PUSH0 DUP2 DUP2 SLOAD DUP2 LT PUSH2 0x2EC JUMPI PUSH2 0x2EB PUSH2 0x50E JUMP JUMPDEST JUMPDEST SWAP1 PUSH0 MSTORE PUSH1 0x20 PUSH0 KECCAK256 ADD PUSH0 SWAP1 SSTORE POP JUMP JUMPDEST PUSH1 0x1 DUP2 DUP2 SLOAD DUP2 LT PUSH2 0x309 JUMPI PUSH0 DUP1 REVERT JUMPDEST SWAP1 PUSH0 MSTORE PUSH1 0x20 PUSH0 KECCAK256 ADD PUSH0 SWAP2 POP SWAP1 POP SLOAD DUP2 JUMP JUMPDEST PUSH1 0x60 PUSH0 DUP1 SLOAD DUP1 PUSH1 0x20 MUL PUSH1 0x20 ADD PUSH1 0x40 MLOAD SWAP1 DUP2 ADD PUSH1 0x40 MSTORE DUP1 SWAP3 SWAP2 SWAP1 DUP2 DUP2 MSTORE PUSH1 0x20 ADD DUP3 DUP1 SLOAD DUP1 ISZERO PUSH2 0x365 JUMPI PUSH1 0x20 MUL DUP3 ADD SWAP2 SWAP1 PUSH0 MSTORE PUSH1 0x20 PUSH0 KECCAK256 SWAP1 JUMPDEST DUP2 SLOAD DUP2 MSTORE PUSH1 0x20 ADD SWAP1 PUSH1 0x1 ADD SWAP1 DUP1 DUP4 GT PUSH2 0x351 JUMPI JUMPDEST POP POP POP POP POP SWAP1 POP SWAP1 JUMP JUMPDEST PUSH0 DUP1 REVERT JUMPDEST PUSH0 DUP2 SWAP1 POP SWAP2 SWAP1 POP JUMP JUMPDEST PUSH2 0x385 DUP2 PUSH2 0x373 JUMP JUMPDEST DUP2 EQ PUSH2 0x38F JUMPI PUSH0 DUP1 REVERT JUMPDEST POP JUMP JUMPDEST PUSH0 DUP2 CALLDATALOAD SWAP1 POP PUSH2 0x3A0 DUP2 PUSH2 0x37C JUMP JUMPDEST SWAP3 SWAP2 POP POP JUMP JUMPDEST PUSH0 DUP1 PUSH1 0x40 DUP4 DUP6 SUB SLT ISZERO PUSH2 0x3BC JUMPI PUSH2 0x3BB PUSH2 0x36F JUMP JUMPDEST JUMPDEST PUSH0 PUSH2 0x3C9 DUP6 DUP3 DUP7 ADD PUSH2 0x392 JUMP JUMPDEST SWAP3 POP POP PUSH1 0x20 PUSH2 0x3DA DUP6 DUP3 DUP7 ADD PUSH2 0x392 JUMP JUMPDEST SWAP2 POP POP SWAP3 POP SWAP3 SWAP1 POP JUMP JUMPDEST PUSH0 PUSH1 0x20 DUP3 DUP5 SUB SLT ISZERO PUSH2 0x3F9 JUMPI PUSH2 0x3F8 PUSH2 0x36F JUMP JUMPDEST JUMPDEST PUSH0 PUSH2 0x406 DUP5 DUP3 DUP6 ADD PUSH2 0x392 JUMP JUMPDEST SWAP2 POP POP SWAP3 SWAP2 POP POP JUMP JUMPDEST PUSH2 0x418 DUP2 PUSH2 0x373 JUMP JUMPDEST DUP3 MSTORE POP POP JUMP JUMPDEST PUSH0 PUSH1 0x20 DUP3 ADD SWAP1 POP PUSH2 0x431 PUSH0 DUP4 ADD DUP5 PUSH2 0x40F JUMP JUMPDEST SWAP3 SWAP2 POP POP JUMP JUMPDEST PUSH0 DUP2 MLOAD SWAP1 POP SWAP2 SWAP1 POP JUMP JUMPDEST PUSH0 DUP3 DUP3 MSTORE PUSH1 0x20 DUP3 ADD SWAP1 POP SWAP3 SWAP2 POP POP JUMP JUMPDEST PUSH0 DUP2 SWAP1 POP PUSH1 0x20 DUP3 ADD SWAP1 POP SWAP2 SWAP1 POP JUMP JUMPDEST PUSH2 0x469 DUP2 PUSH2 0x373 JUMP JUMPDEST DUP3 MSTORE POP POP JUMP JUMPDEST PUSH0 PUSH2 0x47A DUP4 DUP4 PUSH2 0x460 JUMP JUMPDEST PUSH1 0x20 DUP4 ADD SWAP1 POP SWAP3 SWAP2 POP POP JUMP JUMPDEST PUSH0 PUSH1 0x20 DUP3 ADD SWAP1 POP SWAP2 SWAP1 POP JUMP JUMPDEST PUSH0 PUSH2 0x49C DUP3 PUSH2 0x437 JUMP JUMPDEST PUSH2 0x4A6 DUP2 DUP6 PUSH2 0x441 JUMP JUMPDEST SWAP4 POP PUSH2 0x4B1 DUP4 PUSH2 0x451 JUMP JUMPDEST DUP1 PUSH0 JUMPDEST DUP4 DUP2 LT ISZERO PUSH2 0x4E1 JUMPI DUP2 MLOAD PUSH2 0x4C8 DUP9 DUP3 PUSH2 0x46F JUMP JUMPDEST SWAP8 POP PUSH2 0x4D3 DUP4 PUSH2 0x486 JUMP JUMPDEST SWAP3 POP POP PUSH1 0x1 DUP2 ADD SWAP1 POP PUSH2 0x4B4 JUMP JUMPDEST POP DUP6 SWAP4 POP POP POP POP SWAP3 SWAP2 POP POP JUMP JUMPDEST PUSH0 PUSH1 0x20 DUP3 ADD SWAP1 POP DUP2 DUP2 SUB PUSH0 DUP4 ADD MSTORE PUSH2 0x506 DUP2 DUP5 PUSH2 0x492 JUMP JUMPDEST SWAP1 POP SWAP3 SWAP2 POP POP JUMP JUMPDEST PUSH32 0x4E487B7100000000000000000000000000000000000000000000000000000000 PUSH0 MSTORE PUSH1 0x32 PUSH1 0x4 MSTORE PUSH1 0x24 PUSH0 REVERT JUMPDEST PUSH32 0x4E487B7100000000000000000000000000000000000000000000000000000000 PUSH0 MSTORE PUSH1 0x31 PUSH1 0x4 MSTORE PUSH1 0x24 PUSH0 REVERT JUMPDEST PUSH32 0x4E487B7100000000000000000000000000000000000000000000000000000000 PUSH0 MSTORE PUSH1 0x41 PUSH1 0x4 MSTORE PUSH1 0x24 PUSH0 REVERT INVALID LOG2 PUSH5 0x6970667358 0x22 SLT KECCAK256 0xE3 PUSH10 0x549A414110A12AAC005C 0xF6 0xD1 PUSH18 0x208104CA25B9062F7D0C0573B86FCAAA3064 PUSH20 0x6F6C634300081A00330000000000000000000000 "
				},
				"gasEstimates": {
					"creation": {
						"codeDepositCost": "296600",
						"executionCost": "infinite",
						"totalCost": "infinite"
					},
					"external": {
						"addNewArr()": "360",
						"arr(uint256)": "infinite",
						"arr2(uint256)": "infinite",
						"arrFixed(uint256)": "infinite",
						"delElementFromArr(uint256)": "7630",
						"getArr()": "infinite",
						"getLength()": "2440",
						"pop()": "29529",
						"push(uint256)": "46865",
						"setValueAtArr(uint256,uint256)": "infinite"
					}
				},
				"methodIdentifiers": {
					"addNewArr()": "ead615c1",
					"arr(uint256)": "71e5ee5f",
					"arr2(uint256)": "edf0099b",
					"arrFixed(uint256)": "a0809777",
					"delElementFromArr(uint256)": "ec895bc0",
					"getArr()": "fb8cbced",
					"getLength()": "be1c766b",
					"pop()": "a4ece52c",
					"push(uint256)": "959ac484",
					"setValueAtArr(uint256,uint256)": "689456dd"
				}
			},
			"storageLayout": {
				"storage": [
					{
						"astId": 4,
						"contract": "contracts/array.sol:Array",
						"label": "arr",
						"offset": 0,
						"slot": "0",
						"type": "t_array(t_uint256)dyn_storage"
					},
					{
						"astId": 12,
						"contract": "contracts/array.sol:Array",
						"label": "arr2",
						"offset": 0,
						"slot": "1",
						"type": "t_array(t_uint256)dyn_storage"
					},
					{
						"astId": 16,
						"contract": "contracts/array.sol:Array",
						"label": "arrFixed",
						"offset": 0,
						"slot": "2",
						"type": "t_array(t_uint256)10_storage"
					}
				],
				"types": {
					"t_array(t_uint256)10_storage": {
						"base": "t_uint256",
						"encoding": "inplace",
						"label": "uint256[10]",
						"numberOfBytes": "320"
					},
					"t_array(t_uint256)dyn_storage": {
						"base": "t_uint256",
						"encoding": "dynamic_array",
						"label": "uint256[]",
						"numberOfBytes": "32"
					},
					"t_uint256": {
						"encoding": "inplace",
						"label": "uint256",
						"numberOfBytes": "32"
					}
				}
			},
			"userdoc": {
				"kind": "user",
				"methods": {},
				"version": 1
			}
		}
	}
}