{
	"contracts/twitter.sol": {
		"Twiiter": {
			"abi": [
				{
					"inputs": [],
					"name": "_externalFucntion",
					"outputs": [
						{
							"internalType": "string",
							"name": "",
							"type": "string"
						}
					],
					"stateMutability": "view",
					"type": "function"
				},
				{
					"inputs": [
						{
							"internalType": "string",
							"name": "_tweet",
							"type": "string"
						}
					],
					"name": "createTweet",
					"outputs": [
						{
							"internalType": "address",
							"name": "",
							"type": "address"
						},
						{
							"internalType": "string",
							"name": "",
							"type": "string"
						}
					],
					"stateMutability": "nonpayable",
					"type": "function"
				},
				{
					"inputs": [],
					"name": "sayHello",
					"outputs": [
						{
							"internalType": "string",
							"name": "",
							"type": "string"
						}
					],
					"stateMutability": "view",
					"type": "function"
				}
			],
			"devdoc": {
				"kind": "dev",
				"methods": {},
				"version": 1
			},
			"evm": {
				"assembly": "    /* \"contracts/twitter.sol\":58:1145  contract Twiiter {... */\n  mstore(0x40, 0x80)\n  callvalue\n  dup1\n  iszero\n  tag_1\n  jumpi\n  0x00\n  dup1\n  revert\ntag_1:\n  pop\n  dataSize(sub_0)\n  dup1\n  dataOffset(sub_0)\n  0x00\n  codecopy\n  0x00\n  return\nstop\n\nsub_0: assembly {\n        /* \"contracts/twitter.sol\":58:1145  contract Twiiter {... */\n      mstore(0x40, 0x80)\n      callvalue\n      dup1\n      iszero\n      tag_1\n      jumpi\n      0x00\n      dup1\n      revert\n    tag_1:\n      pop\n      jumpi(tag_2, lt(calldatasize, 0x04))\n      shr(0xe0, calldataload(0x00))\n      dup1\n      0x7c9cd2bc\n      eq\n      tag_3\n      jumpi\n      dup1\n      0xa63b92cc\n      eq\n      tag_4\n      jumpi\n      dup1\n      0xef5fb05b\n      eq\n      tag_5\n      jumpi\n    tag_2:\n      0x00\n      dup1\n      revert\n        /* \"contracts/twitter.sol\":273:429  function createTweet(string memory _tweet) public returns(address, string memory){... */\n    tag_3:\n      tag_6\n      0x04\n      dup1\n      calldatasize\n      sub\n      dup2\n      add\n      swap1\n      tag_7\n      swap2\n      swap1\n      tag_8\n      jump\t// in\n    tag_7:\n      tag_9\n      jump\t// in\n    tag_6:\n      mload(0x40)\n      tag_10\n      swap3\n      swap2\n      swap1\n      tag_11\n      jump\t// in\n    tag_10:\n      mload(0x40)\n      dup1\n      swap2\n      sub\n      swap1\n      return\n        /* \"contracts/twitter.sol\":1032:1142  function _externalFucntion () external view returns(string memory) {... */\n    tag_4:\n      tag_12\n      tag_13\n      jump\t// in\n    tag_12:\n      mload(0x40)\n      tag_14\n      swap2\n      swap1\n      tag_15\n      jump\t// in\n    tag_14:\n      mload(0x40)\n      dup1\n      swap2\n      sub\n      swap1\n      return\n        /* \"contracts/twitter.sol\":564:659  function sayHello() public view returns (string memory ) {... */\n    tag_5:\n      tag_16\n      tag_17\n      jump\t// in\n    tag_16:\n      mload(0x40)\n      tag_18\n      swap2\n      swap1\n      tag_15\n      jump\t// in\n    tag_18:\n      mload(0x40)\n      dup1\n      swap2\n      sub\n      swap1\n      return\n        /* \"contracts/twitter.sol\":273:429  function createTweet(string memory _tweet) public returns(address, string memory){... */\n    tag_9:\n        /* \"contracts/twitter.sol\":331:338  address */\n      0x00\n        /* \"contracts/twitter.sol\":340:353  string memory */\n      0x60\n        /* \"contracts/twitter.sol\":383:389  _tweet */\n      dup3\n        /* \"contracts/twitter.sol\":364:370  tweets */\n      0x00\n        /* \"contracts/twitter.sol\":364:382  tweets[msg.sender] */\n      dup1\n        /* \"contracts/twitter.sol\":371:381  msg.sender */\n      caller\n        /* \"contracts/twitter.sol\":364:382  tweets[msg.sender] */\n      0xffffffffffffffffffffffffffffffffffffffff\n      and\n      0xffffffffffffffffffffffffffffffffffffffff\n      and\n      dup2\n      mstore\n      0x20\n      add\n      swap1\n      dup2\n      mstore\n      0x20\n      add\n      0x00\n      keccak256\n        /* \"contracts/twitter.sol\":364:389  tweets[msg.sender]=_tweet */\n      swap1\n      dup2\n      tag_20\n      swap2\n      swap1\n      tag_21\n      jump\t// in\n    tag_20:\n      pop\n        /* \"contracts/twitter.sol\":407:417  msg.sender */\n      caller\n        /* \"contracts/twitter.sol\":399:422  return (msg.sender, \"\") */\n      mload(0x40)\n      dup1\n      0x20\n      add\n      0x40\n      mstore\n      dup1\n      0x00\n      dup2\n      mstore\n      pop\n      swap2\n      pop\n      swap2\n      pop\n        /* \"contracts/twitter.sol\":273:429  function createTweet(string memory _tweet) public returns(address, string memory){... */\n      swap2\n      pop\n      swap2\n      jump\t// out\n        /* \"contracts/twitter.sol\":1032:1142  function _externalFucntion () external view returns(string memory) {... */\n    tag_13:\n        /* \"contracts/twitter.sol\":1084:1097  string memory */\n      0x60\n        /* \"contracts/twitter.sol\":1117:1123  tweets */\n      0x00\n        /* \"contracts/twitter.sol\":1117:1135  tweets[msg.sender] */\n      dup1\n        /* \"contracts/twitter.sol\":1124:1134  msg.sender */\n      caller\n        /* \"contracts/twitter.sol\":1117:1135  tweets[msg.sender] */\n      0xffffffffffffffffffffffffffffffffffffffff\n      and\n      0xffffffffffffffffffffffffffffffffffffffff\n      and\n      dup2\n      mstore\n      0x20\n      add\n      swap1\n      dup2\n      mstore\n      0x20\n      add\n      0x00\n      keccak256\n        /* \"contracts/twitter.sol\":1109:1135  return  tweets[msg.sender] */\n      dup1\n      sload\n      tag_23\n      swap1\n      tag_24\n      jump\t// in\n    tag_23:\n      dup1\n      0x1f\n      add\n      0x20\n      dup1\n      swap2\n      div\n      mul\n      0x20\n      add\n      mload(0x40)\n      swap1\n      dup2\n      add\n      0x40\n      mstore\n      dup1\n      swap3\n      swap2\n      swap1\n      dup2\n      dup2\n      mstore\n      0x20\n      add\n      dup3\n      dup1\n      sload\n      tag_25\n      swap1\n      tag_24\n      jump\t// in\n    tag_25:\n      dup1\n      iszero\n      tag_26\n      jumpi\n      dup1\n      0x1f\n      lt\n      tag_27\n      jumpi\n      0x0100\n      dup1\n      dup4\n      sload\n      div\n      mul\n      dup4\n      mstore\n      swap2\n      0x20\n      add\n      swap2\n      jump(tag_26)\n    tag_27:\n      dup3\n      add\n      swap2\n      swap1\n      0x00\n      mstore\n      keccak256(0x00, 0x20)\n      swap1\n    tag_28:\n      dup2\n      sload\n      dup2\n      mstore\n      swap1\n      0x01\n      add\n      swap1\n      0x20\n      add\n      dup1\n      dup4\n      gt\n      tag_28\n      jumpi\n      dup3\n      swap1\n      sub\n      0x1f\n      and\n      dup3\n      add\n      swap2\n    tag_26:\n      pop\n      pop\n      pop\n      pop\n      pop\n      swap1\n      pop\n        /* \"contracts/twitter.sol\":1032:1142  function _externalFucntion () external view returns(string memory) {... */\n      swap1\n      jump\t// out\n        /* \"contracts/twitter.sol\":564:659  function sayHello() public view returns (string memory ) {... */\n    tag_17:\n        /* \"contracts/twitter.sol\":605:618  string memory */\n      0x60\n        /* \"contracts/twitter.sol\":631:652  return  \"Hello world\" */\n      mload(0x40)\n      dup1\n      0x40\n      add\n      0x40\n      mstore\n      dup1\n      0x0b\n      dup2\n      mstore\n      0x20\n      add\n      0x48656c6c6f20776f726c64000000000000000000000000000000000000000000\n      dup2\n      mstore\n      pop\n      swap1\n      pop\n        /* \"contracts/twitter.sol\":564:659  function sayHello() public view returns (string memory ) {... */\n      swap1\n      jump\t// out\n        /* \"#utility.yul\":7:82   */\n    tag_30:\n        /* \"#utility.yul\":40:46   */\n      0x00\n        /* \"#utility.yul\":73:75   */\n      0x40\n        /* \"#utility.yul\":67:76   */\n      mload\n        /* \"#utility.yul\":57:76   */\n      swap1\n      pop\n        /* \"#utility.yul\":7:82   */\n      swap1\n      jump\t// out\n        /* \"#utility.yul\":88:205   */\n    tag_31:\n        /* \"#utility.yul\":197:198   */\n      0x00\n        /* \"#utility.yul\":194:195   */\n      dup1\n        /* \"#utility.yul\":187:199   */\n      revert\n        /* \"#utility.yul\":211:328   */\n    tag_32:\n        /* \"#utility.yul\":320:321   */\n      0x00\n        /* \"#utility.yul\":317:318   */\n      dup1\n        /* \"#utility.yul\":310:322   */\n      revert\n        /* \"#utility.yul\":334:451   */\n    tag_33:\n        /* \"#utility.yul\":443:444   */\n      0x00\n        /* \"#utility.yul\":440:441   */\n      dup1\n        /* \"#utility.yul\":433:445   */\n      revert\n        /* \"#utility.yul\":457:574   */\n    tag_34:\n        /* \"#utility.yul\":566:567   */\n      0x00\n        /* \"#utility.yul\":563:564   */\n      dup1\n        /* \"#utility.yul\":556:568   */\n      revert\n        /* \"#utility.yul\":580:682   */\n    tag_35:\n        /* \"#utility.yul\":621:627   */\n      0x00\n        /* \"#utility.yul\":672:674   */\n      0x1f\n        /* \"#utility.yul\":668:675   */\n      not\n        /* \"#utility.yul\":663:665   */\n      0x1f\n        /* \"#utility.yul\":656:661   */\n      dup4\n        /* \"#utility.yul\":652:666   */\n      add\n        /* \"#utility.yul\":648:676   */\n      and\n        /* \"#utility.yul\":638:676   */\n      swap1\n      pop\n        /* \"#utility.yul\":580:682   */\n      swap2\n      swap1\n      pop\n      jump\t// out\n        /* \"#utility.yul\":688:868   */\n    tag_36:\n        /* \"#utility.yul\":736:813   */\n      0x4e487b7100000000000000000000000000000000000000000000000000000000\n        /* \"#utility.yul\":733:734   */\n      0x00\n        /* \"#utility.yul\":726:814   */\n      mstore\n        /* \"#utility.yul\":833:837   */\n      0x41\n        /* \"#utility.yul\":830:831   */\n      0x04\n        /* \"#utility.yul\":823:838   */\n      mstore\n        /* \"#utility.yul\":857:861   */\n      0x24\n        /* \"#utility.yul\":854:855   */\n      0x00\n        /* \"#utility.yul\":847:862   */\n      revert\n        /* \"#utility.yul\":874:1155   */\n    tag_37:\n        /* \"#utility.yul\":957:984   */\n      tag_76\n        /* \"#utility.yul\":979:983   */\n      dup3\n        /* \"#utility.yul\":957:984   */\n      tag_35\n      jump\t// in\n    tag_76:\n        /* \"#utility.yul\":949:955   */\n      dup2\n        /* \"#utility.yul\":945:985   */\n      add\n        /* \"#utility.yul\":1087:1093   */\n      dup2\n        /* \"#utility.yul\":1075:1085   */\n      dup2\n        /* \"#utility.yul\":1072:1094   */\n      lt\n        /* \"#utility.yul\":1051:1069   */\n      0xffffffffffffffff\n        /* \"#utility.yul\":1039:1049   */\n      dup3\n        /* \"#utility.yul\":1036:1070   */\n      gt\n        /* \"#utility.yul\":1033:1095   */\n      or\n        /* \"#utility.yul\":1030:1118   */\n      iszero\n      tag_77\n      jumpi\n        /* \"#utility.yul\":1098:1116   */\n      tag_78\n      tag_36\n      jump\t// in\n    tag_78:\n        /* \"#utility.yul\":1030:1118   */\n    tag_77:\n        /* \"#utility.yul\":1138:1148   */\n      dup1\n        /* \"#utility.yul\":1134:1136   */\n      0x40\n        /* \"#utility.yul\":1127:1149   */\n      mstore\n        /* \"#utility.yul\":917:1155   */\n      pop\n        /* \"#utility.yul\":874:1155   */\n      pop\n      pop\n      jump\t// out\n        /* \"#utility.yul\":1161:1290   */\n    tag_38:\n        /* \"#utility.yul\":1195:1201   */\n      0x00\n        /* \"#utility.yul\":1222:1242   */\n      tag_80\n      tag_30\n      jump\t// in\n    tag_80:\n        /* \"#utility.yul\":1212:1242   */\n      swap1\n      pop\n        /* \"#utility.yul\":1251:1284   */\n      tag_81\n        /* \"#utility.yul\":1279:1283   */\n      dup3\n        /* \"#utility.yul\":1271:1277   */\n      dup3\n        /* \"#utility.yul\":1251:1284   */\n      tag_37\n      jump\t// in\n    tag_81:\n        /* \"#utility.yul\":1161:1290   */\n      swap2\n      swap1\n      pop\n      jump\t// out\n        /* \"#utility.yul\":1296:1604   */\n    tag_39:\n        /* \"#utility.yul\":1358:1362   */\n      0x00\n        /* \"#utility.yul\":1448:1466   */\n      0xffffffffffffffff\n        /* \"#utility.yul\":1440:1446   */\n      dup3\n        /* \"#utility.yul\":1437:1467   */\n      gt\n        /* \"#utility.yul\":1434:1490   */\n      iszero\n      tag_83\n      jumpi\n        /* \"#utility.yul\":1470:1488   */\n      tag_84\n      tag_36\n      jump\t// in\n    tag_84:\n        /* \"#utility.yul\":1434:1490   */\n    tag_83:\n        /* \"#utility.yul\":1508:1537   */\n      tag_85\n        /* \"#utility.yul\":1530:1536   */\n      dup3\n        /* \"#utility.yul\":1508:1537   */\n      tag_35\n      jump\t// in\n    tag_85:\n        /* \"#utility.yul\":1500:1537   */\n      swap1\n      pop\n        /* \"#utility.yul\":1592:1596   */\n      0x20\n        /* \"#utility.yul\":1586:1590   */\n      dup2\n        /* \"#utility.yul\":1582:1597   */\n      add\n        /* \"#utility.yul\":1574:1597   */\n      swap1\n      pop\n        /* \"#utility.yul\":1296:1604   */\n      swap2\n      swap1\n      pop\n      jump\t// out\n        /* \"#utility.yul\":1610:1758   */\n    tag_40:\n        /* \"#utility.yul\":1708:1714   */\n      dup3\n        /* \"#utility.yul\":1703:1706   */\n      dup2\n        /* \"#utility.yul\":1698:1701   */\n      dup4\n        /* \"#utility.yul\":1685:1715   */\n      calldatacopy\n        /* \"#utility.yul\":1749:1750   */\n      0x00\n        /* \"#utility.yul\":1740:1746   */\n      dup4\n        /* \"#utility.yul\":1735:1738   */\n      dup4\n        /* \"#utility.yul\":1731:1747   */\n      add\n        /* \"#utility.yul\":1724:1751   */\n      mstore\n        /* \"#utility.yul\":1610:1758   */\n      pop\n      pop\n      pop\n      jump\t// out\n        /* \"#utility.yul\":1764:2189   */\n    tag_41:\n        /* \"#utility.yul\":1842:1847   */\n      0x00\n        /* \"#utility.yul\":1867:1933   */\n      tag_88\n        /* \"#utility.yul\":1883:1932   */\n      tag_89\n        /* \"#utility.yul\":1925:1931   */\n      dup5\n        /* \"#utility.yul\":1883:1932   */\n      tag_39\n      jump\t// in\n    tag_89:\n        /* \"#utility.yul\":1867:1933   */\n      tag_38\n      jump\t// in\n    tag_88:\n        /* \"#utility.yul\":1858:1933   */\n      swap1\n      pop\n        /* \"#utility.yul\":1956:1962   */\n      dup3\n        /* \"#utility.yul\":1949:1954   */\n      dup2\n        /* \"#utility.yul\":1942:1963   */\n      mstore\n        /* \"#utility.yul\":1994:1998   */\n      0x20\n        /* \"#utility.yul\":1987:1992   */\n      dup2\n        /* \"#utility.yul\":1983:1999   */\n      add\n        /* \"#utility.yul\":2032:2035   */\n      dup5\n        /* \"#utility.yul\":2023:2029   */\n      dup5\n        /* \"#utility.yul\":2018:2021   */\n      dup5\n        /* \"#utility.yul\":2014:2030   */\n      add\n        /* \"#utility.yul\":2011:2036   */\n      gt\n        /* \"#utility.yul\":2008:2120   */\n      iszero\n      tag_90\n      jumpi\n        /* \"#utility.yul\":2039:2118   */\n      tag_91\n      tag_34\n      jump\t// in\n    tag_91:\n        /* \"#utility.yul\":2008:2120   */\n    tag_90:\n        /* \"#utility.yul\":2129:2183   */\n      tag_92\n        /* \"#utility.yul\":2176:2182   */\n      dup5\n        /* \"#utility.yul\":2171:2174   */\n      dup3\n        /* \"#utility.yul\":2166:2169   */\n      dup6\n        /* \"#utility.yul\":2129:2183   */\n      tag_40\n      jump\t// in\n    tag_92:\n        /* \"#utility.yul\":1848:2189   */\n      pop\n        /* \"#utility.yul\":1764:2189   */\n      swap4\n      swap3\n      pop\n      pop\n      pop\n      jump\t// out\n        /* \"#utility.yul\":2209:2549   */\n    tag_42:\n        /* \"#utility.yul\":2265:2270   */\n      0x00\n        /* \"#utility.yul\":2314:2317   */\n      dup3\n        /* \"#utility.yul\":2307:2311   */\n      0x1f\n        /* \"#utility.yul\":2299:2305   */\n      dup4\n        /* \"#utility.yul\":2295:2312   */\n      add\n        /* \"#utility.yul\":2291:2318   */\n      slt\n        /* \"#utility.yul\":2281:2403   */\n      tag_94\n      jumpi\n        /* \"#utility.yul\":2322:2401   */\n      tag_95\n      tag_33\n      jump\t// in\n    tag_95:\n        /* \"#utility.yul\":2281:2403   */\n    tag_94:\n        /* \"#utility.yul\":2439:2445   */\n      dup2\n        /* \"#utility.yul\":2426:2446   */\n      calldataload\n        /* \"#utility.yul\":2464:2543   */\n      tag_96\n        /* \"#utility.yul\":2539:2542   */\n      dup5\n        /* \"#utility.yul\":2531:2537   */\n      dup3\n        /* \"#utility.yul\":2524:2528   */\n      0x20\n        /* \"#utility.yul\":2516:2522   */\n      dup7\n        /* \"#utility.yul\":2512:2529   */\n      add\n        /* \"#utility.yul\":2464:2543   */\n      tag_41\n      jump\t// in\n    tag_96:\n        /* \"#utility.yul\":2455:2543   */\n      swap2\n      pop\n        /* \"#utility.yul\":2271:2549   */\n      pop\n        /* \"#utility.yul\":2209:2549   */\n      swap3\n      swap2\n      pop\n      pop\n      jump\t// out\n        /* \"#utility.yul\":2555:3064   */\n    tag_8:\n        /* \"#utility.yul\":2624:2630   */\n      0x00\n        /* \"#utility.yul\":2673:2675   */\n      0x20\n        /* \"#utility.yul\":2661:2670   */\n      dup3\n        /* \"#utility.yul\":2652:2659   */\n      dup5\n        /* \"#utility.yul\":2648:2671   */\n      sub\n        /* \"#utility.yul\":2644:2676   */\n      slt\n        /* \"#utility.yul\":2641:2760   */\n      iszero\n      tag_98\n      jumpi\n        /* \"#utility.yul\":2679:2758   */\n      tag_99\n      tag_31\n      jump\t// in\n    tag_99:\n        /* \"#utility.yul\":2641:2760   */\n    tag_98:\n        /* \"#utility.yul\":2827:2828   */\n      0x00\n        /* \"#utility.yul\":2816:2825   */\n      dup3\n        /* \"#utility.yul\":2812:2829   */\n      add\n        /* \"#utility.yul\":2799:2830   */\n      calldataload\n        /* \"#utility.yul\":2857:2875   */\n      0xffffffffffffffff\n        /* \"#utility.yul\":2849:2855   */\n      dup2\n        /* \"#utility.yul\":2846:2876   */\n      gt\n        /* \"#utility.yul\":2843:2960   */\n      iszero\n      tag_100\n      jumpi\n        /* \"#utility.yul\":2879:2958   */\n      tag_101\n      tag_32\n      jump\t// in\n    tag_101:\n        /* \"#utility.yul\":2843:2960   */\n    tag_100:\n        /* \"#utility.yul\":2984:3047   */\n      tag_102\n        /* \"#utility.yul\":3039:3046   */\n      dup5\n        /* \"#utility.yul\":3030:3036   */\n      dup3\n        /* \"#utility.yul\":3019:3028   */\n      dup6\n        /* \"#utility.yul\":3015:3037   */\n      add\n        /* \"#utility.yul\":2984:3047   */\n      tag_42\n      jump\t// in\n    tag_102:\n        /* \"#utility.yul\":2974:3047   */\n      swap2\n      pop\n        /* \"#utility.yul\":2770:3057   */\n      pop\n        /* \"#utility.yul\":2555:3064   */\n      swap3\n      swap2\n      pop\n      pop\n      jump\t// out\n        /* \"#utility.yul\":3070:3196   */\n    tag_43:\n        /* \"#utility.yul\":3107:3114   */\n      0x00\n        /* \"#utility.yul\":3147:3189   */\n      0xffffffffffffffffffffffffffffffffffffffff\n        /* \"#utility.yul\":3140:3145   */\n      dup3\n        /* \"#utility.yul\":3136:3190   */\n      and\n        /* \"#utility.yul\":3125:3190   */\n      swap1\n      pop\n        /* \"#utility.yul\":3070:3196   */\n      swap2\n      swap1\n      pop\n      jump\t// out\n        /* \"#utility.yul\":3202:3298   */\n    tag_44:\n        /* \"#utility.yul\":3239:3246   */\n      0x00\n        /* \"#utility.yul\":3268:3292   */\n      tag_105\n        /* \"#utility.yul\":3286:3291   */\n      dup3\n        /* \"#utility.yul\":3268:3292   */\n      tag_43\n      jump\t// in\n    tag_105:\n        /* \"#utility.yul\":3257:3292   */\n      swap1\n      pop\n        /* \"#utility.yul\":3202:3298   */\n      swap2\n      swap1\n      pop\n      jump\t// out\n        /* \"#utility.yul\":3304:3422   */\n    tag_45:\n        /* \"#utility.yul\":3391:3415   */\n      tag_107\n        /* \"#utility.yul\":3409:3414   */\n      dup2\n        /* \"#utility.yul\":3391:3415   */\n      tag_44\n      jump\t// in\n    tag_107:\n        /* \"#utility.yul\":3386:3389   */\n      dup3\n        /* \"#utility.yul\":3379:3416   */\n      mstore\n        /* \"#utility.yul\":3304:3422   */\n      pop\n      pop\n      jump\t// out\n        /* \"#utility.yul\":3428:3527   */\n    tag_46:\n        /* \"#utility.yul\":3480:3486   */\n      0x00\n        /* \"#utility.yul\":3514:3519   */\n      dup2\n        /* \"#utility.yul\":3508:3520   */\n      mload\n        /* \"#utility.yul\":3498:3520   */\n      swap1\n      pop\n        /* \"#utility.yul\":3428:3527   */\n      swap2\n      swap1\n      pop\n      jump\t// out\n        /* \"#utility.yul\":3533:3702   */\n    tag_47:\n        /* \"#utility.yul\":3617:3628   */\n      0x00\n        /* \"#utility.yul\":3651:3657   */\n      dup3\n        /* \"#utility.yul\":3646:3649   */\n      dup3\n        /* \"#utility.yul\":3639:3658   */\n      mstore\n        /* \"#utility.yul\":3691:3695   */\n      0x20\n        /* \"#utility.yul\":3686:3689   */\n      dup3\n        /* \"#utility.yul\":3682:3696   */\n      add\n        /* \"#utility.yul\":3667:3696   */\n      swap1\n      pop\n        /* \"#utility.yul\":3533:3702   */\n      swap3\n      swap2\n      pop\n      pop\n      jump\t// out\n        /* \"#utility.yul\":3708:3847   */\n    tag_48:\n        /* \"#utility.yul\":3797:3803   */\n      dup3\n        /* \"#utility.yul\":3792:3795   */\n      dup2\n        /* \"#utility.yul\":3787:3790   */\n      dup4\n        /* \"#utility.yul\":3781:3804   */\n      mcopy\n        /* \"#utility.yul\":3838:3839   */\n      0x00\n        /* \"#utility.yul\":3829:3835   */\n      dup4\n        /* \"#utility.yul\":3824:3827   */\n      dup4\n        /* \"#utility.yul\":3820:3836   */\n      add\n        /* \"#utility.yul\":3813:3840   */\n      mstore\n        /* \"#utility.yul\":3708:3847   */\n      pop\n      pop\n      pop\n      jump\t// out\n        /* \"#utility.yul\":3853:4230   */\n    tag_49:\n        /* \"#utility.yul\":3941:3944   */\n      0x00\n        /* \"#utility.yul\":3969:4008   */\n      tag_112\n        /* \"#utility.yul\":4002:4007   */\n      dup3\n        /* \"#utility.yul\":3969:4008   */\n      tag_46\n      jump\t// in\n    tag_112:\n        /* \"#utility.yul\":4024:4095   */\n      tag_113\n        /* \"#utility.yul\":4088:4094   */\n      dup2\n        /* \"#utility.yul\":4083:4086   */\n      dup6\n        /* \"#utility.yul\":4024:4095   */\n      tag_47\n      jump\t// in\n    tag_113:\n        /* \"#utility.yul\":4017:4095   */\n      swap4\n      pop\n        /* \"#utility.yul\":4104:4169   */\n      tag_114\n        /* \"#utility.yul\":4162:4168   */\n      dup2\n        /* \"#utility.yul\":4157:4160   */\n      dup6\n        /* \"#utility.yul\":4150:4154   */\n      0x20\n        /* \"#utility.yul\":4143:4148   */\n      dup7\n        /* \"#utility.yul\":4139:4155   */\n      add\n        /* \"#utility.yul\":4104:4169   */\n      tag_48\n      jump\t// in\n    tag_114:\n        /* \"#utility.yul\":4194:4223   */\n      tag_115\n        /* \"#utility.yul\":4216:4222   */\n      dup2\n        /* \"#utility.yul\":4194:4223   */\n      tag_35\n      jump\t// in\n    tag_115:\n        /* \"#utility.yul\":4189:4192   */\n      dup5\n        /* \"#utility.yul\":4185:4224   */\n      add\n        /* \"#utility.yul\":4178:4224   */\n      swap2\n      pop\n        /* \"#utility.yul\":3945:4230   */\n      pop\n        /* \"#utility.yul\":3853:4230   */\n      swap3\n      swap2\n      pop\n      pop\n      jump\t// out\n        /* \"#utility.yul\":4236:4659   */\n    tag_11:\n        /* \"#utility.yul\":4377:4381   */\n      0x00\n        /* \"#utility.yul\":4415:4417   */\n      0x40\n        /* \"#utility.yul\":4404:4413   */\n      dup3\n        /* \"#utility.yul\":4400:4418   */\n      add\n        /* \"#utility.yul\":4392:4418   */\n      swap1\n      pop\n        /* \"#utility.yul\":4428:4499   */\n      tag_117\n        /* \"#utility.yul\":4496:4497   */\n      0x00\n        /* \"#utility.yul\":4485:4494   */\n      dup4\n        /* \"#utility.yul\":4481:4498   */\n      add\n        /* \"#utility.yul\":4472:4478   */\n      dup6\n        /* \"#utility.yul\":4428:4499   */\n      tag_45\n      jump\t// in\n    tag_117:\n        /* \"#utility.yul\":4546:4555   */\n      dup2\n        /* \"#utility.yul\":4540:4544   */\n      dup2\n        /* \"#utility.yul\":4536:4556   */\n      sub\n        /* \"#utility.yul\":4531:4533   */\n      0x20\n        /* \"#utility.yul\":4520:4529   */\n      dup4\n        /* \"#utility.yul\":4516:4534   */\n      add\n        /* \"#utility.yul\":4509:4557   */\n      mstore\n        /* \"#utility.yul\":4574:4652   */\n      tag_118\n        /* \"#utility.yul\":4647:4651   */\n      dup2\n        /* \"#utility.yul\":4638:4644   */\n      dup5\n        /* \"#utility.yul\":4574:4652   */\n      tag_49\n      jump\t// in\n    tag_118:\n        /* \"#utility.yul\":4566:4652   */\n      swap1\n      pop\n        /* \"#utility.yul\":4236:4659   */\n      swap4\n      swap3\n      pop\n      pop\n      pop\n      jump\t// out\n        /* \"#utility.yul\":4665:4978   */\n    tag_15:\n        /* \"#utility.yul\":4778:4782   */\n      0x00\n        /* \"#utility.yul\":4816:4818   */\n      0x20\n        /* \"#utility.yul\":4805:4814   */\n      dup3\n        /* \"#utility.yul\":4801:4819   */\n      add\n        /* \"#utility.yul\":4793:4819   */\n      swap1\n      pop\n        /* \"#utility.yul\":4865:4874   */\n      dup2\n        /* \"#utility.yul\":4859:4863   */\n      dup2\n        /* \"#utility.yul\":4855:4875   */\n      sub\n        /* \"#utility.yul\":4851:4852   */\n      0x00\n        /* \"#utility.yul\":4840:4849   */\n      dup4\n        /* \"#utility.yul\":4836:4853   */\n      add\n        /* \"#utility.yul\":4829:4876   */\n      mstore\n        /* \"#utility.yul\":4893:4971   */\n      tag_120\n        /* \"#utility.yul\":4966:4970   */\n      dup2\n        /* \"#utility.yul\":4957:4963   */\n      dup5\n        /* \"#utility.yul\":4893:4971   */\n      tag_49\n      jump\t// in\n    tag_120:\n        /* \"#utility.yul\":4885:4971   */\n      swap1\n      pop\n        /* \"#utility.yul\":4665:4978   */\n      swap3\n      swap2\n      pop\n      pop\n      jump\t// out\n        /* \"#utility.yul\":4984:5164   */\n    tag_50:\n        /* \"#utility.yul\":5032:5109   */\n      0x4e487b7100000000000000000000000000000000000000000000000000000000\n        /* \"#utility.yul\":5029:5030   */\n      0x00\n        /* \"#utility.yul\":5022:5110   */\n      mstore\n        /* \"#utility.yul\":5129:5133   */\n      0x22\n        /* \"#utility.yul\":5126:5127   */\n      0x04\n        /* \"#utility.yul\":5119:5134   */\n      mstore\n        /* \"#utility.yul\":5153:5157   */\n      0x24\n        /* \"#utility.yul\":5150:5151   */\n      0x00\n        /* \"#utility.yul\":5143:5158   */\n      revert\n        /* \"#utility.yul\":5170:5490   */\n    tag_24:\n        /* \"#utility.yul\":5214:5220   */\n      0x00\n        /* \"#utility.yul\":5251:5252   */\n      0x02\n        /* \"#utility.yul\":5245:5249   */\n      dup3\n        /* \"#utility.yul\":5241:5253   */\n      div\n        /* \"#utility.yul\":5231:5253   */\n      swap1\n      pop\n        /* \"#utility.yul\":5298:5299   */\n      0x01\n        /* \"#utility.yul\":5292:5296   */\n      dup3\n        /* \"#utility.yul\":5288:5300   */\n      and\n        /* \"#utility.yul\":5319:5337   */\n      dup1\n        /* \"#utility.yul\":5309:5390   */\n      tag_123\n      jumpi\n        /* \"#utility.yul\":5375:5379   */\n      0x7f\n        /* \"#utility.yul\":5367:5373   */\n      dup3\n        /* \"#utility.yul\":5363:5380   */\n      and\n        /* \"#utility.yul\":5353:5380   */\n      swap2\n      pop\n        /* \"#utility.yul\":5309:5390   */\n    tag_123:\n        /* \"#utility.yul\":5437:5439   */\n      0x20\n        /* \"#utility.yul\":5429:5435   */\n      dup3\n        /* \"#utility.yul\":5426:5440   */\n      lt\n        /* \"#utility.yul\":5406:5424   */\n      dup2\n        /* \"#utility.yul\":5403:5441   */\n      sub\n        /* \"#utility.yul\":5400:5484   */\n      tag_124\n      jumpi\n        /* \"#utility.yul\":5456:5474   */\n      tag_125\n      tag_50\n      jump\t// in\n    tag_125:\n        /* \"#utility.yul\":5400:5484   */\n    tag_124:\n        /* \"#utility.yul\":5221:5490   */\n      pop\n        /* \"#utility.yul\":5170:5490   */\n      swap2\n      swap1\n      pop\n      jump\t// out\n        /* \"#utility.yul\":5496:5637   */\n    tag_51:\n        /* \"#utility.yul\":5545:5549   */\n      0x00\n        /* \"#utility.yul\":5568:5571   */\n      dup2\n        /* \"#utility.yul\":5560:5571   */\n      swap1\n      pop\n        /* \"#utility.yul\":5591:5594   */\n      dup2\n        /* \"#utility.yul\":5588:5589   */\n      0x00\n        /* \"#utility.yul\":5581:5595   */\n      mstore\n        /* \"#utility.yul\":5625:5629   */\n      0x20\n        /* \"#utility.yul\":5622:5623   */\n      0x00\n        /* \"#utility.yul\":5612:5630   */\n      keccak256\n        /* \"#utility.yul\":5604:5630   */\n      swap1\n      pop\n        /* \"#utility.yul\":5496:5637   */\n      swap2\n      swap1\n      pop\n      jump\t// out\n        /* \"#utility.yul\":5643:5736   */\n    tag_52:\n        /* \"#utility.yul\":5680:5686   */\n      0x00\n        /* \"#utility.yul\":5727:5729   */\n      0x20\n        /* \"#utility.yul\":5722:5724   */\n      0x1f\n        /* \"#utility.yul\":5715:5720   */\n      dup4\n        /* \"#utility.yul\":5711:5725   */\n      add\n        /* \"#utility.yul\":5707:5730   */\n      div\n        /* \"#utility.yul\":5697:5730   */\n      swap1\n      pop\n        /* \"#utility.yul\":5643:5736   */\n      swap2\n      swap1\n      pop\n      jump\t// out\n        /* \"#utility.yul\":5742:5849   */\n    tag_53:\n        /* \"#utility.yul\":5786:5794   */\n      0x00\n        /* \"#utility.yul\":5836:5841   */\n      dup3\n        /* \"#utility.yul\":5830:5834   */\n      dup3\n        /* \"#utility.yul\":5826:5842   */\n      shl\n        /* \"#utility.yul\":5805:5842   */\n      swap1\n      pop\n        /* \"#utility.yul\":5742:5849   */\n      swap3\n      swap2\n      pop\n      pop\n      jump\t// out\n        /* \"#utility.yul\":5855:6248   */\n    tag_54:\n        /* \"#utility.yul\":5924:5930   */\n      0x00\n        /* \"#utility.yul\":5974:5975   */\n      0x08\n        /* \"#utility.yul\":5962:5972   */\n      dup4\n        /* \"#utility.yul\":5958:5976   */\n      mul\n        /* \"#utility.yul\":5997:6094   */\n      tag_130\n        /* \"#utility.yul\":6027:6093   */\n      0xffffffffffffffffffffffffffffffffffffffffffffffffffffffffffffffff\n        /* \"#utility.yul\":6016:6025   */\n      dup3\n        /* \"#utility.yul\":5997:6094   */\n      tag_53\n      jump\t// in\n    tag_130:\n        /* \"#utility.yul\":6115:6154   */\n      tag_131\n        /* \"#utility.yul\":6145:6153   */\n      dup7\n        /* \"#utility.yul\":6134:6143   */\n      dup4\n        /* \"#utility.yul\":6115:6154   */\n      tag_53\n      jump\t// in\n    tag_131:\n        /* \"#utility.yul\":6103:6154   */\n      swap6\n      pop\n        /* \"#utility.yul\":6187:6191   */\n      dup1\n        /* \"#utility.yul\":6183:6192   */\n      not\n        /* \"#utility.yul\":6176:6181   */\n      dup5\n        /* \"#utility.yul\":6172:6193   */\n      and\n        /* \"#utility.yul\":6163:6193   */\n      swap4\n      pop\n        /* \"#utility.yul\":6236:6240   */\n      dup1\n        /* \"#utility.yul\":6226:6234   */\n      dup7\n        /* \"#utility.yul\":6222:6241   */\n      and\n        /* \"#utility.yul\":6215:6220   */\n      dup5\n        /* \"#utility.yul\":6212:6242   */\n      or\n        /* \"#utility.yul\":6202:6242   */\n      swap3\n      pop\n        /* \"#utility.yul\":5931:6248   */\n      pop\n      pop\n        /* \"#utility.yul\":5855:6248   */\n      swap4\n      swap3\n      pop\n      pop\n      pop\n      jump\t// out\n        /* \"#utility.yul\":6254:6331   */\n    tag_55:\n        /* \"#utility.yul\":6291:6298   */\n      0x00\n        /* \"#utility.yul\":6320:6325   */\n      dup2\n        /* \"#utility.yul\":6309:6325   */\n      swap1\n      pop\n        /* \"#utility.yul\":6254:6331   */\n      swap2\n      swap1\n      pop\n      jump\t// out\n        /* \"#utility.yul\":6337:6397   */\n    tag_56:\n        /* \"#utility.yul\":6365:6368   */\n      0x00\n        /* \"#utility.yul\":6386:6391   */\n      dup2\n        /* \"#utility.yul\":6379:6391   */\n      swap1\n      pop\n        /* \"#utility.yul\":6337:6397   */\n      swap2\n      swap1\n      pop\n      jump\t// out\n        /* \"#utility.yul\":6403:6545   */\n    tag_57:\n        /* \"#utility.yul\":6453:6462   */\n      0x00\n        /* \"#utility.yul\":6486:6539   */\n      tag_135\n        /* \"#utility.yul\":6504:6538   */\n      tag_136\n        /* \"#utility.yul\":6513:6537   */\n      tag_137\n        /* \"#utility.yul\":6531:6536   */\n      dup5\n        /* \"#utility.yul\":6513:6537   */\n      tag_55\n      jump\t// in\n    tag_137:\n        /* \"#utility.yul\":6504:6538   */\n      tag_56\n      jump\t// in\n    tag_136:\n        /* \"#utility.yul\":6486:6539   */\n      tag_55\n      jump\t// in\n    tag_135:\n        /* \"#utility.yul\":6473:6539   */\n      swap1\n      pop\n        /* \"#utility.yul\":6403:6545   */\n      swap2\n      swap1\n      pop\n      jump\t// out\n        /* \"#utility.yul\":6551:6626   */\n    tag_58:\n        /* \"#utility.yul\":6594:6597   */\n      0x00\n        /* \"#utility.yul\":6615:6620   */\n      dup2\n        /* \"#utility.yul\":6608:6620   */\n      swap1\n      pop\n        /* \"#utility.yul\":6551:6626   */\n      swap2\n      swap1\n      pop\n      jump\t// out\n        /* \"#utility.yul\":6632:6901   */\n    tag_59:\n        /* \"#utility.yul\":6742:6781   */\n      tag_140\n        /* \"#utility.yul\":6773:6780   */\n      dup4\n        /* \"#utility.yul\":6742:6781   */\n      tag_57\n      jump\t// in\n    tag_140:\n        /* \"#utility.yul\":6803:6894   */\n      tag_141\n        /* \"#utility.yul\":6852:6893   */\n      tag_142\n        /* \"#utility.yul\":6876:6892   */\n      dup3\n        /* \"#utility.yul\":6852:6893   */\n      tag_58\n      jump\t// in\n    tag_142:\n        /* \"#utility.yul\":6844:6850   */\n      dup5\n        /* \"#utility.yul\":6837:6841   */\n      dup5\n        /* \"#utility.yul\":6831:6842   */\n      sload\n        /* \"#utility.yul\":6803:6894   */\n      tag_54\n      jump\t// in\n    tag_141:\n        /* \"#utility.yul\":6797:6801   */\n      dup3\n        /* \"#utility.yul\":6790:6895   */\n      sstore\n        /* \"#utility.yul\":6708:6901   */\n      pop\n        /* \"#utility.yul\":6632:6901   */\n      pop\n      pop\n      pop\n      jump\t// out\n        /* \"#utility.yul\":6907:6980   */\n    tag_60:\n        /* \"#utility.yul\":6952:6955   */\n      0x00\n        /* \"#utility.yul\":6907:6980   */\n      swap1\n      jump\t// out\n        /* \"#utility.yul\":6986:7175   */\n    tag_61:\n        /* \"#utility.yul\":7063:7095   */\n      tag_145\n      tag_60\n      jump\t// in\n    tag_145:\n        /* \"#utility.yul\":7104:7169   */\n      tag_146\n        /* \"#utility.yul\":7162:7168   */\n      dup2\n        /* \"#utility.yul\":7154:7160   */\n      dup5\n        /* \"#utility.yul\":7148:7152   */\n      dup5\n        /* \"#utility.yul\":7104:7169   */\n      tag_59\n      jump\t// in\n    tag_146:\n        /* \"#utility.yul\":7039:7175   */\n      pop\n        /* \"#utility.yul\":6986:7175   */\n      pop\n      pop\n      jump\t// out\n        /* \"#utility.yul\":7181:7367   */\n    tag_62:\n        /* \"#utility.yul\":7241:7361   */\n    tag_148:\n        /* \"#utility.yul\":7258:7261   */\n      dup2\n        /* \"#utility.yul\":7251:7256   */\n      dup2\n        /* \"#utility.yul\":7248:7262   */\n      lt\n        /* \"#utility.yul\":7241:7361   */\n      iszero\n      tag_150\n      jumpi\n        /* \"#utility.yul\":7312:7351   */\n      tag_151\n        /* \"#utility.yul\":7349:7350   */\n      0x00\n        /* \"#utility.yul\":7342:7347   */\n      dup3\n        /* \"#utility.yul\":7312:7351   */\n      tag_61\n      jump\t// in\n    tag_151:\n        /* \"#utility.yul\":7285:7286   */\n      0x01\n        /* \"#utility.yul\":7278:7283   */\n      dup2\n        /* \"#utility.yul\":7274:7287   */\n      add\n        /* \"#utility.yul\":7265:7287   */\n      swap1\n      pop\n        /* \"#utility.yul\":7241:7361   */\n      jump(tag_148)\n    tag_150:\n        /* \"#utility.yul\":7181:7367   */\n      pop\n      pop\n      jump\t// out\n        /* \"#utility.yul\":7373:7916   */\n    tag_63:\n        /* \"#utility.yul\":7474:7476   */\n      0x1f\n        /* \"#utility.yul\":7469:7472   */\n      dup3\n        /* \"#utility.yul\":7466:7477   */\n      gt\n        /* \"#utility.yul\":7463:7909   */\n      iszero\n      tag_153\n      jumpi\n        /* \"#utility.yul\":7508:7546   */\n      tag_154\n        /* \"#utility.yul\":7540:7545   */\n      dup2\n        /* \"#utility.yul\":7508:7546   */\n      tag_51\n      jump\t// in\n    tag_154:\n        /* \"#utility.yul\":7592:7621   */\n      tag_155\n        /* \"#utility.yul\":7610:7620   */\n      dup5\n        /* \"#utility.yul\":7592:7621   */\n      tag_52\n      jump\t// in\n    tag_155:\n        /* \"#utility.yul\":7582:7590   */\n      dup2\n        /* \"#utility.yul\":7578:7622   */\n      add\n        /* \"#utility.yul\":7775:7777   */\n      0x20\n        /* \"#utility.yul\":7763:7773   */\n      dup6\n        /* \"#utility.yul\":7760:7778   */\n      lt\n        /* \"#utility.yul\":7757:7806   */\n      iszero\n      tag_156\n      jumpi\n        /* \"#utility.yul\":7796:7804   */\n      dup2\n        /* \"#utility.yul\":7781:7804   */\n      swap1\n      pop\n        /* \"#utility.yul\":7757:7806   */\n    tag_156:\n        /* \"#utility.yul\":7819:7899   */\n      tag_157\n        /* \"#utility.yul\":7875:7897   */\n      tag_158\n        /* \"#utility.yul\":7893:7896   */\n      dup6\n        /* \"#utility.yul\":7875:7897   */\n      tag_52\n      jump\t// in\n    tag_158:\n        /* \"#utility.yul\":7865:7873   */\n      dup4\n        /* \"#utility.yul\":7861:7898   */\n      add\n        /* \"#utility.yul\":7848:7859   */\n      dup3\n        /* \"#utility.yul\":7819:7899   */\n      tag_62\n      jump\t// in\n    tag_157:\n        /* \"#utility.yul\":7478:7909   */\n      pop\n      pop\n        /* \"#utility.yul\":7463:7909   */\n    tag_153:\n        /* \"#utility.yul\":7373:7916   */\n      pop\n      pop\n      pop\n      jump\t// out\n        /* \"#utility.yul\":7922:8039   */\n    tag_64:\n        /* \"#utility.yul\":7976:7984   */\n      0x00\n        /* \"#utility.yul\":8026:8031   */\n      dup3\n        /* \"#utility.yul\":8020:8024   */\n      dup3\n        /* \"#utility.yul\":8016:8032   */\n      shr\n        /* \"#utility.yul\":7995:8032   */\n      swap1\n      pop\n        /* \"#utility.yul\":7922:8039   */\n      swap3\n      swap2\n      pop\n      pop\n      jump\t// out\n        /* \"#utility.yul\":8045:8214   */\n    tag_65:\n        /* \"#utility.yul\":8089:8095   */\n      0x00\n        /* \"#utility.yul\":8122:8173   */\n      tag_161\n        /* \"#utility.yul\":8170:8171   */\n      0x00\n        /* \"#utility.yul\":8166:8172   */\n      not\n        /* \"#utility.yul\":8158:8163   */\n      dup5\n        /* \"#utility.yul\":8155:8156   */\n      0x08\n        /* \"#utility.yul\":8151:8164   */\n      mul\n        /* \"#utility.yul\":8122:8173   */\n      tag_64\n      jump\t// in\n    tag_161:\n        /* \"#utility.yul\":8118:8174   */\n      not\n        /* \"#utility.yul\":8203:8207   */\n      dup1\n        /* \"#utility.yul\":8197:8201   */\n      dup4\n        /* \"#utility.yul\":8193:8208   */\n      and\n        /* \"#utility.yul\":8183:8208   */\n      swap2\n      pop\n        /* \"#utility.yul\":8096:8214   */\n      pop\n        /* \"#utility.yul\":8045:8214   */\n      swap3\n      swap2\n      pop\n      pop\n      jump\t// out\n        /* \"#utility.yul\":8219:8514   */\n    tag_66:\n        /* \"#utility.yul\":8295:8299   */\n      0x00\n        /* \"#utility.yul\":8441:8470   */\n      tag_163\n        /* \"#utility.yul\":8466:8469   */\n      dup4\n        /* \"#utility.yul\":8460:8464   */\n      dup4\n        /* \"#utility.yul\":8441:8470   */\n      tag_65\n      jump\t// in\n    tag_163:\n        /* \"#utility.yul\":8433:8470   */\n      swap2\n      pop\n        /* \"#utility.yul\":8503:8506   */\n      dup3\n        /* \"#utility.yul\":8500:8501   */\n      0x02\n        /* \"#utility.yul\":8496:8507   */\n      mul\n        /* \"#utility.yul\":8490:8494   */\n      dup3\n        /* \"#utility.yul\":8487:8508   */\n      or\n        /* \"#utility.yul\":8479:8508   */\n      swap1\n      pop\n        /* \"#utility.yul\":8219:8514   */\n      swap3\n      swap2\n      pop\n      pop\n      jump\t// out\n        /* \"#utility.yul\":8519:9914   */\n    tag_21:\n        /* \"#utility.yul\":8636:8673   */\n      tag_165\n        /* \"#utility.yul\":8669:8672   */\n      dup3\n        /* \"#utility.yul\":8636:8673   */\n      tag_46\n      jump\t// in\n    tag_165:\n        /* \"#utility.yul\":8738:8756   */\n      0xffffffffffffffff\n        /* \"#utility.yul\":8730:8736   */\n      dup2\n        /* \"#utility.yul\":8727:8757   */\n      gt\n        /* \"#utility.yul\":8724:8780   */\n      iszero\n      tag_166\n      jumpi\n        /* \"#utility.yul\":8760:8778   */\n      tag_167\n      tag_36\n      jump\t// in\n    tag_167:\n        /* \"#utility.yul\":8724:8780   */\n    tag_166:\n        /* \"#utility.yul\":8804:8842   */\n      tag_168\n        /* \"#utility.yul\":8836:8840   */\n      dup3\n        /* \"#utility.yul\":8830:8841   */\n      sload\n        /* \"#utility.yul\":8804:8842   */\n      tag_24\n      jump\t// in\n    tag_168:\n        /* \"#utility.yul\":8889:8956   */\n      tag_169\n        /* \"#utility.yul\":8949:8955   */\n      dup3\n        /* \"#utility.yul\":8941:8947   */\n      dup3\n        /* \"#utility.yul\":8935:8939   */\n      dup6\n        /* \"#utility.yul\":8889:8956   */\n      tag_63\n      jump\t// in\n    tag_169:\n        /* \"#utility.yul\":8983:8984   */\n      0x00\n        /* \"#utility.yul\":9007:9011   */\n      0x20\n        /* \"#utility.yul\":8994:9011   */\n      swap1\n      pop\n        /* \"#utility.yul\":9039:9041   */\n      0x1f\n        /* \"#utility.yul\":9031:9037   */\n      dup4\n        /* \"#utility.yul\":9028:9042   */\n      gt\n        /* \"#utility.yul\":9056:9057   */\n      0x01\n        /* \"#utility.yul\":9051:9669   */\n      dup2\n      eq\n      tag_171\n      jumpi\n        /* \"#utility.yul\":9713:9714   */\n      0x00\n        /* \"#utility.yul\":9730:9736   */\n      dup5\n        /* \"#utility.yul\":9727:9804   */\n      iszero\n      tag_172\n      jumpi\n        /* \"#utility.yul\":9779:9788   */\n      dup3\n        /* \"#utility.yul\":9774:9777   */\n      dup8\n        /* \"#utility.yul\":9770:9789   */\n      add\n        /* \"#utility.yul\":9764:9790   */\n      mload\n        /* \"#utility.yul\":9755:9790   */\n      swap1\n      pop\n        /* \"#utility.yul\":9727:9804   */\n    tag_172:\n        /* \"#utility.yul\":9830:9897   */\n      tag_173\n        /* \"#utility.yul\":9890:9896   */\n      dup6\n        /* \"#utility.yul\":9883:9888   */\n      dup3\n        /* \"#utility.yul\":9830:9897   */\n      tag_66\n      jump\t// in\n    tag_173:\n        /* \"#utility.yul\":9824:9828   */\n      dup7\n        /* \"#utility.yul\":9817:9898   */\n      sstore\n        /* \"#utility.yul\":9686:9908   */\n      pop\n        /* \"#utility.yul\":9021:9908   */\n      jump(tag_170)\n        /* \"#utility.yul\":9051:9669   */\n    tag_171:\n        /* \"#utility.yul\":9103:9107   */\n      0x1f\n        /* \"#utility.yul\":9099:9108   */\n      not\n        /* \"#utility.yul\":9091:9097   */\n      dup5\n        /* \"#utility.yul\":9087:9109   */\n      and\n        /* \"#utility.yul\":9137:9174   */\n      tag_174\n        /* \"#utility.yul\":9169:9173   */\n      dup7\n        /* \"#utility.yul\":9137:9174   */\n      tag_51\n      jump\t// in\n    tag_174:\n        /* \"#utility.yul\":9196:9197   */\n      0x00\n        /* \"#utility.yul\":9210:9418   */\n    tag_175:\n        /* \"#utility.yul\":9224:9231   */\n      dup3\n        /* \"#utility.yul\":9221:9222   */\n      dup2\n        /* \"#utility.yul\":9218:9232   */\n      lt\n        /* \"#utility.yul\":9210:9418   */\n      iszero\n      tag_177\n      jumpi\n        /* \"#utility.yul\":9303:9312   */\n      dup5\n        /* \"#utility.yul\":9298:9301   */\n      dup10\n        /* \"#utility.yul\":9294:9313   */\n      add\n        /* \"#utility.yul\":9288:9314   */\n      mload\n        /* \"#utility.yul\":9280:9286   */\n      dup3\n        /* \"#utility.yul\":9273:9315   */\n      sstore\n        /* \"#utility.yul\":9354:9355   */\n      0x01\n        /* \"#utility.yul\":9346:9352   */\n      dup3\n        /* \"#utility.yul\":9342:9356   */\n      add\n        /* \"#utility.yul\":9332:9356   */\n      swap2\n      pop\n        /* \"#utility.yul\":9401:9403   */\n      0x20\n        /* \"#utility.yul\":9390:9399   */\n      dup6\n        /* \"#utility.yul\":9386:9404   */\n      add\n        /* \"#utility.yul\":9373:9404   */\n      swap5\n      pop\n        /* \"#utility.yul\":9247:9251   */\n      0x20\n        /* \"#utility.yul\":9244:9245   */\n      dup2\n        /* \"#utility.yul\":9240:9252   */\n      add\n        /* \"#utility.yul\":9235:9252   */\n      swap1\n      pop\n        /* \"#utility.yul\":9210:9418   */\n      jump(tag_175)\n    tag_177:\n        /* \"#utility.yul\":9446:9452   */\n      dup7\n        /* \"#utility.yul\":9437:9444   */\n      dup4\n        /* \"#utility.yul\":9434:9453   */\n      lt\n        /* \"#utility.yul\":9431:9610   */\n      iszero\n      tag_178\n      jumpi\n        /* \"#utility.yul\":9504:9513   */\n      dup5\n        /* \"#utility.yul\":9499:9502   */\n      dup10\n        /* \"#utility.yul\":9495:9514   */\n      add\n        /* \"#utility.yul\":9489:9515   */\n      mload\n        /* \"#utility.yul\":9547:9595   */\n      tag_179\n        /* \"#utility.yul\":9589:9593   */\n      0x1f\n        /* \"#utility.yul\":9581:9587   */\n      dup10\n        /* \"#utility.yul\":9577:9594   */\n      and\n        /* \"#utility.yul\":9566:9575   */\n      dup3\n        /* \"#utility.yul\":9547:9595   */\n      tag_65\n      jump\t// in\n    tag_179:\n        /* \"#utility.yul\":9539:9545   */\n      dup4\n        /* \"#utility.yul\":9532:9596   */\n      sstore\n        /* \"#utility.yul\":9454:9610   */\n      pop\n        /* \"#utility.yul\":9431:9610   */\n    tag_178:\n        /* \"#utility.yul\":9656:9657   */\n      0x01\n        /* \"#utility.yul\":9652:9653   */\n      0x02\n        /* \"#utility.yul\":9644:9650   */\n      dup9\n        /* \"#utility.yul\":9640:9654   */\n      mul\n        /* \"#utility.yul\":9636:9658   */\n      add\n        /* \"#utility.yul\":9630:9634   */\n      dup9\n        /* \"#utility.yul\":9623:9659   */\n      sstore\n        /* \"#utility.yul\":9058:9669   */\n      pop\n      pop\n      pop\n        /* \"#utility.yul\":9021:9908   */\n    tag_170:\n      pop\n        /* \"#utility.yul\":8611:9914   */\n      pop\n      pop\n      pop\n        /* \"#utility.yul\":8519:9914   */\n      pop\n      pop\n      jump\t// out\n\n    auxdata: 0xa26469706673582212209c577511b788ce7855297e49c3aafb15781c777c31fb64963b92da2d9018660664736f6c634300081a0033\n}\n",
				"bytecode": {
					"linkReferences": {},
					"object": "6080604052348015600e575f80fd5b506107a68061001c5f395ff3fe608060405234801561000f575f80fd5b506004361061003f575f3560e01c80637c9cd2bc14610043578063a63b92cc14610074578063ef5fb05b14610092575b5f80fd5b61005d6004803603810190610058919061036a565b6100b0565b60405161006b929190610450565b60405180910390f35b61007c610116565b604051610089919061047e565b60405180910390f35b61009a6101e0565b6040516100a7919061047e565b60405180910390f35b5f6060825f803373ffffffffffffffffffffffffffffffffffffffff1673ffffffffffffffffffffffffffffffffffffffff1681526020019081526020015f2090816100fc91906106a1565b503360405180602001604052805f81525091509150915091565b60605f803373ffffffffffffffffffffffffffffffffffffffff1673ffffffffffffffffffffffffffffffffffffffff1681526020019081526020015f20805461015f906104cb565b80601f016020809104026020016040519081016040528092919081815260200182805461018b906104cb565b80156101d65780601f106101ad576101008083540402835291602001916101d6565b820191905f5260205f20905b8154815290600101906020018083116101b957829003601f168201915b5050505050905090565b60606040518060400160405280600b81526020017f48656c6c6f20776f726c64000000000000000000000000000000000000000000815250905090565b5f604051905090565b5f80fd5b5f80fd5b5f80fd5b5f80fd5b5f601f19601f8301169050919050565b7f4e487b71000000000000000000000000000000000000000000000000000000005f52604160045260245ffd5b61027c82610236565b810181811067ffffffffffffffff8211171561029b5761029a610246565b5b80604052505050565b5f6102ad61021d565b90506102b98282610273565b919050565b5f67ffffffffffffffff8211156102d8576102d7610246565b5b6102e182610236565b9050602081019050919050565b828183375f83830152505050565b5f61030e610309846102be565b6102a4565b90508281526020810184848401111561032a57610329610232565b5b6103358482856102ee565b509392505050565b5f82601f8301126103515761035061022e565b5b81356103618482602086016102fc565b91505092915050565b5f6020828403121561037f5761037e610226565b5b5f82013567ffffffffffffffff81111561039c5761039b61022a565b5b6103a88482850161033d565b91505092915050565b5f73ffffffffffffffffffffffffffffffffffffffff82169050919050565b5f6103da826103b1565b9050919050565b6103ea816103d0565b82525050565b5f81519050919050565b5f82825260208201905092915050565b8281835e5f83830152505050565b5f610422826103f0565b61042c81856103fa565b935061043c81856020860161040a565b61044581610236565b840191505092915050565b5f6040820190506104635f8301856103e1565b81810360208301526104758184610418565b90509392505050565b5f6020820190508181035f8301526104968184610418565b905092915050565b7f4e487b71000000000000000000000000000000000000000000000000000000005f52602260045260245ffd5b5f60028204905060018216806104e257607f821691505b6020821081036104f5576104f461049e565b5b50919050565b5f819050815f5260205f209050919050565b5f6020601f8301049050919050565b5f82821b905092915050565b5f600883026105577fffffffffffffffffffffffffffffffffffffffffffffffffffffffffffffffff8261051c565b610561868361051c565b95508019841693508086168417925050509392505050565b5f819050919050565b5f819050919050565b5f6105a56105a061059b84610579565b610582565b610579565b9050919050565b5f819050919050565b6105be8361058b565b6105d26105ca826105ac565b848454610528565b825550505050565b5f90565b6105e66105da565b6105f18184846105b5565b505050565b5b81811015610614576106095f826105de565b6001810190506105f7565b5050565b601f8211156106595761062a816104fb565b6106338461050d565b81016020851015610642578190505b61065661064e8561050d565b8301826105f6565b50505b505050565b5f82821c905092915050565b5f6106795f198460080261065e565b1980831691505092915050565b5f610691838361066a565b9150826002028217905092915050565b6106aa826103f0565b67ffffffffffffffff8111156106c3576106c2610246565b5b6106cd82546104cb565b6106d8828285610618565b5f60209050601f831160018114610709575f84156106f7578287015190505b6107018582610686565b865550610768565b601f198416610717866104fb565b5f5b8281101561073e57848901518255600182019150602085019450602081019050610719565b8683101561075b5784890151610757601f89168261066a565b8355505b6001600288020188555050505b50505050505056fea26469706673582212209c577511b788ce7855297e49c3aafb15781c777c31fb64963b92da2d9018660664736f6c634300081a0033",
					"opcodes": "PUSH1 0x80 PUSH1 0x40 MSTORE CALLVALUE DUP1 ISZERO PUSH1 0xE JUMPI PUSH0 DUP1 REVERT JUMPDEST POP PUSH2 0x7A6 DUP1 PUSH2 0x1C PUSH0 CODECOPY PUSH0 RETURN INVALID PUSH1 0x80 PUSH1 0x40 MSTORE CALLVALUE DUP1 ISZERO PUSH2 0xF JUMPI PUSH0 DUP1 REVERT JUMPDEST POP PUSH1 0x4 CALLDATASIZE LT PUSH2 0x3F JUMPI PUSH0 CALLDATALOAD PUSH1 0xE0 SHR DUP1 PUSH4 0x7C9CD2BC EQ PUSH2 0x43 JUMPI DUP1 PUSH4 0xA63B92CC EQ PUSH2 0x74 JUMPI DUP1 PUSH4 0xEF5FB05B EQ PUSH2 0x92 JUMPI JUMPDEST PUSH0 DUP1 REVERT JUMPDEST PUSH2 0x5D PUSH1 0x4 DUP1 CALLDATASIZE SUB DUP2 ADD SWAP1 PUSH2 0x58 SWAP2 SWAP1 PUSH2 0x36A JUMP JUMPDEST PUSH2 0xB0 JUMP JUMPDEST PUSH1 0x40 MLOAD PUSH2 0x6B SWAP3 SWAP2 SWAP1 PUSH2 0x450 JUMP JUMPDEST PUSH1 0x40 MLOAD DUP1 SWAP2 SUB SWAP1 RETURN JUMPDEST PUSH2 0x7C PUSH2 0x116 JUMP JUMPDEST PUSH1 0x40 MLOAD PUSH2 0x89 SWAP2 SWAP1 PUSH2 0x47E JUMP JUMPDEST PUSH1 0x40 MLOAD DUP1 SWAP2 SUB SWAP1 RETURN JUMPDEST PUSH2 0x9A PUSH2 0x1E0 JUMP JUMPDEST PUSH1 0x40 MLOAD PUSH2 0xA7 SWAP2 SWAP1 PUSH2 0x47E JUMP JUMPDEST PUSH1 0x40 MLOAD DUP1 SWAP2 SUB SWAP1 RETURN JUMPDEST PUSH0 PUSH1 0x60 DUP3 PUSH0 DUP1 CALLER PUSH20 0xFFFFFFFFFFFFFFFFFFFFFFFFFFFFFFFFFFFFFFFF AND PUSH20 0xFFFFFFFFFFFFFFFFFFFFFFFFFFFFFFFFFFFFFFFF AND DUP2 MSTORE PUSH1 0x20 ADD SWAP1 DUP2 MSTORE PUSH1 0x20 ADD PUSH0 KECCAK256 SWAP1 DUP2 PUSH2 0xFC SWAP2 SWAP1 PUSH2 0x6A1 JUMP JUMPDEST POP CALLER PUSH1 0x40 MLOAD DUP1 PUSH1 0x20 ADD PUSH1 0x40 MSTORE DUP1 PUSH0 DUP2 MSTORE POP SWAP2 POP SWAP2 POP SWAP2 POP SWAP2 JUMP JUMPDEST PUSH1 0x60 PUSH0 DUP1 CALLER PUSH20 0xFFFFFFFFFFFFFFFFFFFFFFFFFFFFFFFFFFFFFFFF AND PUSH20 0xFFFFFFFFFFFFFFFFFFFFFFFFFFFFFFFFFFFFFFFF AND DUP2 MSTORE PUSH1 0x20 ADD SWAP1 DUP2 MSTORE PUSH1 0x20 ADD PUSH0 KECCAK256 DUP1 SLOAD PUSH2 0x15F SWAP1 PUSH2 0x4CB JUMP JUMPDEST DUP1 PUSH1 0x1F ADD PUSH1 0x20 DUP1 SWAP2 DIV MUL PUSH1 0x20 ADD PUSH1 0x40 MLOAD SWAP1 DUP2 ADD PUSH1 0x40 MSTORE DUP1 SWAP3 SWAP2 SWAP1 DUP2 DUP2 MSTORE PUSH1 0x20 ADD DUP3 DUP1 SLOAD PUSH2 0x18B SWAP1 PUSH2 0x4CB JUMP JUMPDEST DUP1 ISZERO PUSH2 0x1D6 JUMPI DUP1 PUSH1 0x1F LT PUSH2 0x1AD JUMPI PUSH2 0x100 DUP1 DUP4 SLOAD DIV MUL DUP4 MSTORE SWAP2 PUSH1 0x20 ADD SWAP2 PUSH2 0x1D6 JUMP JUMPDEST DUP3 ADD SWAP2 SWAP1 PUSH0 MSTORE PUSH1 0x20 PUSH0 KECCAK256 SWAP1 JUMPDEST DUP2 SLOAD DUP2 MSTORE SWAP1 PUSH1 0x1 ADD SWAP1 PUSH1 0x20 ADD DUP1 DUP4 GT PUSH2 0x1B9 JUMPI DUP3 SWAP1 SUB PUSH1 0x1F AND DUP3 ADD SWAP2 JUMPDEST POP POP POP POP POP SWAP1 POP SWAP1 JUMP JUMPDEST PUSH1 0x60 PUSH1 0x40 MLOAD DUP1 PUSH1 0x40 ADD PUSH1 0x40 MSTORE DUP1 PUSH1 0xB DUP2 MSTORE PUSH1 0x20 ADD PUSH32 0x48656C6C6F20776F726C64000000000000000000000000000000000000000000 DUP2 MSTORE POP SWAP1 POP SWAP1 JUMP JUMPDEST PUSH0 PUSH1 0x40 MLOAD SWAP1 POP SWAP1 JUMP JUMPDEST PUSH0 DUP1 REVERT JUMPDEST PUSH0 DUP1 REVERT JUMPDEST PUSH0 DUP1 REVERT JUMPDEST PUSH0 DUP1 REVERT JUMPDEST PUSH0 PUSH1 0x1F NOT PUSH1 0x1F DUP4 ADD AND SWAP1 POP SWAP2 SWAP1 POP JUMP JUMPDEST PUSH32 0x4E487B7100000000000000000000000000000000000000000000000000000000 PUSH0 MSTORE PUSH1 0x41 PUSH1 0x4 MSTORE PUSH1 0x24 PUSH0 REVERT JUMPDEST PUSH2 0x27C DUP3 PUSH2 0x236 JUMP JUMPDEST DUP2 ADD DUP2 DUP2 LT PUSH8 0xFFFFFFFFFFFFFFFF DUP3 GT OR ISZERO PUSH2 0x29B JUMPI PUSH2 0x29A PUSH2 0x246 JUMP JUMPDEST JUMPDEST DUP1 PUSH1 0x40 MSTORE POP POP POP JUMP JUMPDEST PUSH0 PUSH2 0x2AD PUSH2 0x21D JUMP JUMPDEST SWAP1 POP PUSH2 0x2B9 DUP3 DUP3 PUSH2 0x273 JUMP JUMPDEST SWAP2 SWAP1 POP JUMP JUMPDEST PUSH0 PUSH8 0xFFFFFFFFFFFFFFFF DUP3 GT ISZERO PUSH2 0x2D8 JUMPI PUSH2 0x2D7 PUSH2 0x246 JUMP JUMPDEST JUMPDEST PUSH2 0x2E1 DUP3 PUSH2 0x236 JUMP JUMPDEST SWAP1 POP PUSH1 0x20 DUP2 ADD SWAP1 POP SWAP2 SWAP1 POP JUMP JUMPDEST DUP3 DUP2 DUP4 CALLDATACOPY PUSH0 DUP4 DUP4 ADD MSTORE POP POP POP JUMP JUMPDEST PUSH0 PUSH2 0x30E PUSH2 0x309 DUP5 PUSH2 0x2BE JUMP JUMPDEST PUSH2 0x2A4 JUMP JUMPDEST SWAP1 POP DUP3 DUP2 MSTORE PUSH1 0x20 DUP2 ADD DUP5 DUP5 DUP5 ADD GT ISZERO PUSH2 0x32A JUMPI PUSH2 0x329 PUSH2 0x232 JUMP JUMPDEST JUMPDEST PUSH2 0x335 DUP5 DUP3 DUP6 PUSH2 0x2EE JUMP JUMPDEST POP SWAP4 SWAP3 POP POP POP JUMP JUMPDEST PUSH0 DUP3 PUSH1 0x1F DUP4 ADD SLT PUSH2 0x351 JUMPI PUSH2 0x350 PUSH2 0x22E JUMP JUMPDEST JUMPDEST DUP2 CALLDATALOAD PUSH2 0x361 DUP5 DUP3 PUSH1 0x20 DUP7 ADD PUSH2 0x2FC JUMP JUMPDEST SWAP2 POP POP SWAP3 SWAP2 POP POP JUMP JUMPDEST PUSH0 PUSH1 0x20 DUP3 DUP5 SUB SLT ISZERO PUSH2 0x37F JUMPI PUSH2 0x37E PUSH2 0x226 JUMP JUMPDEST JUMPDEST PUSH0 DUP3 ADD CALLDATALOAD PUSH8 0xFFFFFFFFFFFFFFFF DUP2 GT ISZERO PUSH2 0x39C JUMPI PUSH2 0x39B PUSH2 0x22A JUMP JUMPDEST JUMPDEST PUSH2 0x3A8 DUP5 DUP3 DUP6 ADD PUSH2 0x33D JUMP JUMPDEST SWAP2 POP POP SWAP3 SWAP2 POP POP JUMP JUMPDEST PUSH0 PUSH20 0xFFFFFFFFFFFFFFFFFFFFFFFFFFFFFFFFFFFFFFFF DUP3 AND SWAP1 POP SWAP2 SWAP1 POP JUMP JUMPDEST PUSH0 PUSH2 0x3DA DUP3 PUSH2 0x3B1 JUMP JUMPDEST SWAP1 POP SWAP2 SWAP1 POP JUMP JUMPDEST PUSH2 0x3EA DUP2 PUSH2 0x3D0 JUMP JUMPDEST DUP3 MSTORE POP POP JUMP JUMPDEST PUSH0 DUP2 MLOAD SWAP1 POP SWAP2 SWAP1 POP JUMP JUMPDEST PUSH0 DUP3 DUP3 MSTORE PUSH1 0x20 DUP3 ADD SWAP1 POP SWAP3 SWAP2 POP POP JUMP JUMPDEST DUP3 DUP2 DUP4 MCOPY PUSH0 DUP4 DUP4 ADD MSTORE POP POP POP JUMP JUMPDEST PUSH0 PUSH2 0x422 DUP3 PUSH2 0x3F0 JUMP JUMPDEST PUSH2 0x42C DUP2 DUP6 PUSH2 0x3FA JUMP JUMPDEST SWAP4 POP PUSH2 0x43C DUP2 DUP6 PUSH1 0x20 DUP7 ADD PUSH2 0x40A JUMP JUMPDEST PUSH2 0x445 DUP2 PUSH2 0x236 JUMP JUMPDEST DUP5 ADD SWAP2 POP POP SWAP3 SWAP2 POP POP JUMP JUMPDEST PUSH0 PUSH1 0x40 DUP3 ADD SWAP1 POP PUSH2 0x463 PUSH0 DUP4 ADD DUP6 PUSH2 0x3E1 JUMP JUMPDEST DUP2 DUP2 SUB PUSH1 0x20 DUP4 ADD MSTORE PUSH2 0x475 DUP2 DUP5 PUSH2 0x418 JUMP JUMPDEST SWAP1 POP SWAP4 SWAP3 POP POP POP JUMP JUMPDEST PUSH0 PUSH1 0x20 DUP3 ADD SWAP1 POP DUP2 DUP2 SUB PUSH0 DUP4 ADD MSTORE PUSH2 0x496 DUP2 DUP5 PUSH2 0x418 JUMP JUMPDEST SWAP1 POP SWAP3 SWAP2 POP POP JUMP JUMPDEST PUSH32 0x4E487B7100000000000000000000000000000000000000000000000000000000 PUSH0 MSTORE PUSH1 0x22 PUSH1 0x4 MSTORE PUSH1 0x24 PUSH0 REVERT JUMPDEST PUSH0 PUSH1 0x2 DUP3 DIV SWAP1 POP PUSH1 0x1 DUP3 AND DUP1 PUSH2 0x4E2 JUMPI PUSH1 0x7F DUP3 AND SWAP2 POP JUMPDEST PUSH1 0x20 DUP3 LT DUP2 SUB PUSH2 0x4F5 JUMPI PUSH2 0x4F4 PUSH2 0x49E JUMP JUMPDEST JUMPDEST POP SWAP2 SWAP1 POP JUMP JUMPDEST PUSH0 DUP2 SWAP1 POP DUP2 PUSH0 MSTORE PUSH1 0x20 PUSH0 KECCAK256 SWAP1 POP SWAP2 SWAP1 POP JUMP JUMPDEST PUSH0 PUSH1 0x20 PUSH1 0x1F DUP4 ADD DIV SWAP1 POP SWAP2 SWAP1 POP JUMP JUMPDEST PUSH0 DUP3 DUP3 SHL SWAP1 POP SWAP3 SWAP2 POP POP JUMP JUMPDEST PUSH0 PUSH1 0x8 DUP4 MUL PUSH2 0x557 PUSH32 0xFFFFFFFFFFFFFFFFFFFFFFFFFFFFFFFFFFFFFFFFFFFFFFFFFFFFFFFFFFFFFFFF DUP3 PUSH2 0x51C JUMP JUMPDEST PUSH2 0x561 DUP7 DUP4 PUSH2 0x51C JUMP JUMPDEST SWAP6 POP DUP1 NOT DUP5 AND SWAP4 POP DUP1 DUP7 AND DUP5 OR SWAP3 POP POP POP SWAP4 SWAP3 POP POP POP JUMP JUMPDEST PUSH0 DUP2 SWAP1 POP SWAP2 SWAP1 POP JUMP JUMPDEST PUSH0 DUP2 SWAP1 POP SWAP2 SWAP1 POP JUMP JUMPDEST PUSH0 PUSH2 0x5A5 PUSH2 0x5A0 PUSH2 0x59B DUP5 PUSH2 0x579 JUMP JUMPDEST PUSH2 0x582 JUMP JUMPDEST PUSH2 0x579 JUMP JUMPDEST SWAP1 POP SWAP2 SWAP1 POP JUMP JUMPDEST PUSH0 DUP2 SWAP1 POP SWAP2 SWAP1 POP JUMP JUMPDEST PUSH2 0x5BE DUP4 PUSH2 0x58B JUMP JUMPDEST PUSH2 0x5D2 PUSH2 0x5CA DUP3 PUSH2 0x5AC JUMP JUMPDEST DUP5 DUP5 SLOAD PUSH2 0x528 JUMP JUMPDEST DUP3 SSTORE POP POP POP POP JUMP JUMPDEST PUSH0 SWAP1 JUMP JUMPDEST PUSH2 0x5E6 PUSH2 0x5DA JUMP JUMPDEST PUSH2 0x5F1 DUP2 DUP5 DUP5 PUSH2 0x5B5 JUMP JUMPDEST POP POP POP JUMP JUMPDEST JUMPDEST DUP2 DUP2 LT ISZERO PUSH2 0x614 JUMPI PUSH2 0x609 PUSH0 DUP3 PUSH2 0x5DE JUMP JUMPDEST PUSH1 0x1 DUP2 ADD SWAP1 POP PUSH2 0x5F7 JUMP JUMPDEST POP POP JUMP JUMPDEST PUSH1 0x1F DUP3 GT ISZERO PUSH2 0x659 JUMPI PUSH2 0x62A DUP2 PUSH2 0x4FB JUMP JUMPDEST PUSH2 0x633 DUP5 PUSH2 0x50D JUMP JUMPDEST DUP2 ADD PUSH1 0x20 DUP6 LT ISZERO PUSH2 0x642 JUMPI DUP2 SWAP1 POP JUMPDEST PUSH2 0x656 PUSH2 0x64E DUP6 PUSH2 0x50D JUMP JUMPDEST DUP4 ADD DUP3 PUSH2 0x5F6 JUMP JUMPDEST POP POP JUMPDEST POP POP POP JUMP JUMPDEST PUSH0 DUP3 DUP3 SHR SWAP1 POP SWAP3 SWAP2 POP POP JUMP JUMPDEST PUSH0 PUSH2 0x679 PUSH0 NOT DUP5 PUSH1 0x8 MUL PUSH2 0x65E JUMP JUMPDEST NOT DUP1 DUP4 AND SWAP2 POP POP SWAP3 SWAP2 POP POP JUMP JUMPDEST PUSH0 PUSH2 0x691 DUP4 DUP4 PUSH2 0x66A JUMP JUMPDEST SWAP2 POP DUP3 PUSH1 0x2 MUL DUP3 OR SWAP1 POP SWAP3 SWAP2 POP POP JUMP JUMPDEST PUSH2 0x6AA DUP3 PUSH2 0x3F0 JUMP JUMPDEST PUSH8 0xFFFFFFFFFFFFFFFF DUP2 GT ISZERO PUSH2 0x6C3 JUMPI PUSH2 0x6C2 PUSH2 0x246 JUMP JUMPDEST JUMPDEST PUSH2 0x6CD DUP3 SLOAD PUSH2 0x4CB JUMP JUMPDEST PUSH2 0x6D8 DUP3 DUP3 DUP6 PUSH2 0x618 JUMP JUMPDEST PUSH0 PUSH1 0x20 SWAP1 POP PUSH1 0x1F DUP4 GT PUSH1 0x1 DUP2 EQ PUSH2 0x709 JUMPI PUSH0 DUP5 ISZERO PUSH2 0x6F7 JUMPI DUP3 DUP8 ADD MLOAD SWAP1 POP JUMPDEST PUSH2 0x701 DUP6 DUP3 PUSH2 0x686 JUMP JUMPDEST DUP7 SSTORE POP PUSH2 0x768 JUMP JUMPDEST PUSH1 0x1F NOT DUP5 AND PUSH2 0x717 DUP7 PUSH2 0x4FB JUMP JUMPDEST PUSH0 JUMPDEST DUP3 DUP2 LT ISZERO PUSH2 0x73E JUMPI DUP5 DUP10 ADD MLOAD DUP3 SSTORE PUSH1 0x1 DUP3 ADD SWAP2 POP PUSH1 0x20 DUP6 ADD SWAP5 POP PUSH1 0x20 DUP2 ADD SWAP1 POP PUSH2 0x719 JUMP JUMPDEST DUP7 DUP4 LT ISZERO PUSH2 0x75B JUMPI DUP5 DUP10 ADD MLOAD PUSH2 0x757 PUSH1 0x1F DUP10 AND DUP3 PUSH2 0x66A JUMP JUMPDEST DUP4 SSTORE POP JUMPDEST PUSH1 0x1 PUSH1 0x2 DUP9 MUL ADD DUP9 SSTORE POP POP POP JUMPDEST POP POP POP POP POP POP JUMP INVALID LOG2 PUSH5 0x6970667358 0x22 SLT KECCAK256 SWAP13 JUMPI PUSH22 0x11B788CE7855297E49C3AAFB15781C777C31FB64963B SWAP3 0xDA 0x2D SWAP1 XOR PUSH7 0x664736F6C6343 STOP ADDMOD BYTE STOP CALLER "
				},
				"gasEstimates": {
					"creation": {
						"codeDepositCost": "391600",
						"executionCost": "428",
						"totalCost": "392028"
					},
					"external": {
						"_externalFucntion()": "infinite",
						"createTweet(string)": "infinite",
						"sayHello()": "infinite"
					},
					"internal": {
						"_internalFunction()": "infinite",
						"_privateFunction()": "infinite"
					}
				},
				"methodIdentifiers": {
					"_externalFucntion()": "a63b92cc",
					"createTweet(string)": "7c9cd2bc",
					"sayHello()": "ef5fb05b"
				}
			},
			"storageLayout": {
				"storage": [
					{
						"astId": 5,
						"contract": "contracts/twitter.sol:Twiiter",
						"label": "tweets",
						"offset": 0,
						"slot": "0",
						"type": "t_mapping(t_address,t_string_storage)"
					}
				],
				"types": {
					"t_address": {
						"encoding": "inplace",
						"label": "address",
						"numberOfBytes": "20"
					},
					"t_mapping(t_address,t_string_storage)": {
						"encoding": "mapping",
						"key": "t_address",
						"label": "mapping(address => string)",
						"numberOfBytes": "32",
						"value": "t_string_storage"
					},
					"t_string_storage": {
						"encoding": "bytes",
						"label": "string",
						"numberOfBytes": "32"
					}
				}
			},
			"userdoc": {
				"kind": "user",
				"methods": {},
				"version": 1
			}
		}
	}
}