{
	"contracts/struct.sol": {
		"StructExample": {
			"abi": [
				{
					"inputs": [
						{
							"internalType": "string",
							"name": "_text",
							"type": "string"
						}
					],
					"name": "createTodo",
					"outputs": [],
					"stateMutability": "nonpayable",
					"type": "function"
				},
				{
					"inputs": [
						{
							"internalType": "uint256",
							"name": "_index",
							"type": "uint256"
						}
					],
					"name": "get",
					"outputs": [
						{
							"internalType": "string",
							"name": "text",
							"type": "string"
						},
						{
							"internalType": "bool",
							"name": "completed",
							"type": "bool"
						}
					],
					"stateMutability": "view",
					"type": "function"
				},
				{
					"inputs": [
						{
							"internalType": "uint256",
							"name": "",
							"type": "uint256"
						}
					],
					"name": "todoList",
					"outputs": [
						{
							"internalType": "string",
							"name": "text",
							"type": "string"
						},
						{
							"internalType": "bool",
							"name": "completed",
							"type": "bool"
						}
					],
					"stateMutability": "view",
					"type": "function"
				},
				{
					"inputs": [
						{
							"internalType": "uint256",
							"name": "_index",
							"type": "uint256"
						}
					],
					"name": "toggleCompletion",
					"outputs": [],
					"stateMutability": "nonpayable",
					"type": "function"
				},
				{
					"inputs": [
						{
							"internalType": "uint256",
							"name": "_index",
							"type": "uint256"
						},
						{
							"internalType": "string",
							"name": "_text",
							"type": "string"
						},
						{
							"internalType": "bool",
							"name": "_completed",
							"type": "bool"
						}
					],
					"name": "update",
					"outputs": [],
					"stateMutability": "nonpayable",
					"type": "function"
				}
			],
			"devdoc": {
				"kind": "dev",
				"methods": {},
				"version": 1
			},
			"evm": {
				"assembly": "    /* \"contracts/struct.sol\":58:1392  contract StructExample {... */\n  mstore(0x40, 0x80)\n  callvalue\n  dup1\n  iszero\n  tag_1\n  jumpi\n  0x00\n  dup1\n  revert\ntag_1:\n  pop\n  dataSize(sub_0)\n  dup1\n  dataOffset(sub_0)\n  0x00\n  codecopy\n  0x00\n  return\nstop\n\nsub_0: assembly {\n        /* \"contracts/struct.sol\":58:1392  contract StructExample {... */\n      mstore(0x40, 0x80)\n      callvalue\n      dup1\n      iszero\n      tag_1\n      jumpi\n      0x00\n      dup1\n      revert\n    tag_1:\n      pop\n      jumpi(tag_2, lt(calldatasize, 0x04))\n      shr(0xe0, calldataload(0x00))\n      dup1\n      0x4e324847\n      eq\n      tag_3\n      jumpi\n      dup1\n      0x58c2d469\n      eq\n      tag_4\n      jumpi\n      dup1\n      0x9507d39a\n      eq\n      tag_5\n      jumpi\n      dup1\n      0xe34f1221\n      eq\n      tag_6\n      jumpi\n      dup1\n      0xebc218a7\n      eq\n      tag_7\n      jumpi\n    tag_2:\n      0x00\n      dup1\n      revert\n        /* \"contracts/struct.sol\":912:1145  function update(uint _index, string memory _text, bool _completed) public {... */\n    tag_3:\n      tag_8\n      0x04\n      dup1\n      calldatasize\n      sub\n      dup2\n      add\n      swap1\n      tag_9\n      swap2\n      swap1\n      tag_10\n      jump\t// in\n    tag_9:\n      tag_11\n      jump\t// in\n    tag_8:\n      stop\n        /* \"contracts/struct.sol\":156:179  Todo[] public  todoList */\n    tag_4:\n      tag_12\n      0x04\n      dup1\n      calldatasize\n      sub\n      dup2\n      add\n      swap1\n      tag_13\n      swap2\n      swap1\n      tag_14\n      jump\t// in\n    tag_13:\n      tag_15\n      jump\t// in\n    tag_12:\n      mload(0x40)\n      tag_16\n      swap3\n      swap2\n      swap1\n      tag_17\n      jump\t// in\n    tag_16:\n      mload(0x40)\n      dup1\n      swap2\n      sub\n      swap1\n      return\n        /* \"contracts/struct.sol\":702:879  function get(uint _index) public view returns(string memory text, bool completed){... */\n    tag_5:\n      tag_18\n      0x04\n      dup1\n      calldatasize\n      sub\n      dup2\n      add\n      swap1\n      tag_19\n      swap2\n      swap1\n      tag_14\n      jump\t// in\n    tag_19:\n      tag_20\n      jump\t// in\n    tag_18:\n      mload(0x40)\n      tag_21\n      swap3\n      swap2\n      swap1\n      tag_17\n      jump\t// in\n    tag_21:\n      mload(0x40)\n      dup1\n      swap2\n      sub\n      swap1\n      return\n        /* \"contracts/struct.sol\":186:621  function createTodo(string memory _text) public {... */\n    tag_6:\n      tag_22\n      0x04\n      dup1\n      calldatasize\n      sub\n      dup2\n      add\n      swap1\n      tag_23\n      swap2\n      swap1\n      tag_24\n      jump\t// in\n    tag_23:\n      tag_25\n      jump\t// in\n    tag_22:\n      stop\n        /* \"contracts/struct.sol\":1211:1389  function toggleCompletion(uint _index) public {... */\n    tag_7:\n      tag_26\n      0x04\n      dup1\n      calldatasize\n      sub\n      dup2\n      add\n      swap1\n      tag_27\n      swap2\n      swap1\n      tag_14\n      jump\t// in\n    tag_27:\n      tag_28\n      jump\t// in\n    tag_26:\n      stop\n        /* \"contracts/struct.sol\":912:1145  function update(uint _index, string memory _text, bool _completed) public {... */\n    tag_11:\n        /* \"contracts/struct.sol\":997:1014  Todo storage todo */\n      0x00\n        /* \"contracts/struct.sol\":1017:1025  todoList */\n      dup1\n        /* \"contracts/struct.sol\":1026:1032  _index */\n      dup5\n        /* \"contracts/struct.sol\":1017:1033  todoList[_index] */\n      dup2\n      sload\n      dup2\n      lt\n      tag_30\n      jumpi\n      tag_31\n      tag_32\n      jump\t// in\n    tag_31:\n    tag_30:\n      swap1\n      0x00\n      mstore\n      keccak256(0x00, 0x20)\n      swap1\n      0x02\n      mul\n      add\n        /* \"contracts/struct.sol\":997:1033  Todo storage todo = todoList[_index] */\n      swap1\n      pop\n        /* \"contracts/struct.sol\":1057:1062  _text */\n      dup3\n        /* \"contracts/struct.sol\":1047:1051  todo */\n      dup2\n        /* \"contracts/struct.sol\":1047:1056  todo.text */\n      0x00\n      add\n        /* \"contracts/struct.sol\":1047:1062  todo.text=_text */\n      swap1\n      dup2\n      tag_34\n      swap2\n      swap1\n      tag_35\n      jump\t// in\n    tag_34:\n      pop\n        /* \"contracts/struct.sol\":1095:1105  _completed */\n      dup2\n        /* \"contracts/struct.sol\":1077:1081  todo */\n      dup2\n        /* \"contracts/struct.sol\":1077:1091  todo.completed */\n      0x01\n      add\n      0x00\n        /* \"contracts/struct.sol\":1077:1105  todo.completed =  _completed */\n      0x0100\n      exp\n      dup2\n      sload\n      dup2\n      0xff\n      mul\n      not\n      and\n      swap1\n      dup4\n      iszero\n      iszero\n      mul\n      or\n      swap1\n      sstore\n      pop\n        /* \"contracts/struct.sol\":1134:1138  todo */\n      dup1\n        /* \"contracts/struct.sol\":1115:1123  todoList */\n      0x00\n        /* \"contracts/struct.sol\":1124:1130  _index */\n      dup6\n        /* \"contracts/struct.sol\":1115:1131  todoList[_index] */\n      dup2\n      sload\n      dup2\n      lt\n      tag_36\n      jumpi\n      tag_37\n      tag_32\n      jump\t// in\n    tag_37:\n    tag_36:\n      swap1\n      0x00\n      mstore\n      keccak256(0x00, 0x20)\n      swap1\n      0x02\n      mul\n      add\n        /* \"contracts/struct.sol\":1115:1138  todoList[_index] = todo */\n      0x00\n      dup3\n      add\n      dup2\n      0x00\n      add\n      swap1\n      dup2\n      tag_39\n      swap2\n      swap1\n      tag_40\n      jump\t// in\n    tag_39:\n      pop\n      0x01\n      dup3\n      add\n      0x00\n      swap1\n      sload\n      swap1\n      0x0100\n      exp\n      swap1\n      div\n      0xff\n      and\n      dup2\n      0x01\n      add\n      exp(0x0100, 0x00)\n      dup2\n      sload\n      dup2\n      0xff\n      mul\n      not\n      and\n      swap1\n      dup4\n      iszero\n      iszero\n      mul\n      or\n      swap1\n      sstore\n      pop\n      swap1\n      pop\n      pop\n        /* \"contracts/struct.sol\":986:1145  {... */\n      pop\n        /* \"contracts/struct.sol\":912:1145  function update(uint _index, string memory _text, bool _completed) public {... */\n      pop\n      pop\n      pop\n      jump\t// out\n        /* \"contracts/struct.sol\":156:179  Todo[] public  todoList */\n    tag_15:\n      0x00\n      dup2\n      dup2\n      sload\n      dup2\n      lt\n      tag_41\n      jumpi\n      0x00\n      dup1\n      revert\n    tag_41:\n      swap1\n      0x00\n      mstore\n      keccak256(0x00, 0x20)\n      swap1\n      0x02\n      mul\n      add\n      0x00\n      swap2\n      pop\n      swap1\n      pop\n      dup1\n      0x00\n      add\n      dup1\n      sload\n      tag_43\n      swap1\n      tag_44\n      jump\t// in\n    tag_43:\n      dup1\n      0x1f\n      add\n      0x20\n      dup1\n      swap2\n      div\n      mul\n      0x20\n      add\n      mload(0x40)\n      swap1\n      dup2\n      add\n      0x40\n      mstore\n      dup1\n      swap3\n      swap2\n      swap1\n      dup2\n      dup2\n      mstore\n      0x20\n      add\n      dup3\n      dup1\n      sload\n      tag_45\n      swap1\n      tag_44\n      jump\t// in\n    tag_45:\n      dup1\n      iszero\n      tag_46\n      jumpi\n      dup1\n      0x1f\n      lt\n      tag_47\n      jumpi\n      0x0100\n      dup1\n      dup4\n      sload\n      div\n      mul\n      dup4\n      mstore\n      swap2\n      0x20\n      add\n      swap2\n      jump(tag_46)\n    tag_47:\n      dup3\n      add\n      swap2\n      swap1\n      0x00\n      mstore\n      keccak256(0x00, 0x20)\n      swap1\n    tag_48:\n      dup2\n      sload\n      dup2\n      mstore\n      swap1\n      0x01\n      add\n      swap1\n      0x20\n      add\n      dup1\n      dup4\n      gt\n      tag_48\n      jumpi\n      dup3\n      swap1\n      sub\n      0x1f\n      and\n      dup3\n      add\n      swap2\n    tag_46:\n      pop\n      pop\n      pop\n      pop\n      pop\n      swap1\n      dup1\n      0x01\n      add\n      0x00\n      swap1\n      sload\n      swap1\n      0x0100\n      exp\n      swap1\n      div\n      0xff\n      and\n      swap1\n      pop\n      dup3\n      jump\t// out\n        /* \"contracts/struct.sol\":702:879  function get(uint _index) public view returns(string memory text, bool completed){... */\n    tag_20:\n        /* \"contracts/struct.sol\":748:766  string memory text */\n      0x60\n        /* \"contracts/struct.sol\":768:782  bool completed */\n      0x00\n        /* \"contracts/struct.sol\":793:810  Todo storage todo */\n      dup1\n        /* \"contracts/struct.sol\":812:820  todoList */\n      0x00\n        /* \"contracts/struct.sol\":821:827  _index */\n      dup5\n        /* \"contracts/struct.sol\":812:828  todoList[_index] */\n      dup2\n      sload\n      dup2\n      lt\n      tag_50\n      jumpi\n      tag_51\n      tag_32\n      jump\t// in\n    tag_51:\n    tag_50:\n      swap1\n      0x00\n      mstore\n      keccak256(0x00, 0x20)\n      swap1\n      0x02\n      mul\n      add\n        /* \"contracts/struct.sol\":793:828  Todo storage todo= todoList[_index] */\n      swap1\n      pop\n        /* \"contracts/struct.sol\":846:850  todo */\n      dup1\n        /* \"contracts/struct.sol\":846:855  todo.text */\n      0x00\n      add\n        /* \"contracts/struct.sol\":857:861  todo */\n      dup2\n        /* \"contracts/struct.sol\":857:871  todo.completed */\n      0x01\n      add\n      0x00\n      swap1\n      sload\n      swap1\n      0x0100\n      exp\n      swap1\n      div\n      0xff\n      and\n        /* \"contracts/struct.sol\":838:872  return (todo.text, todo.completed) */\n      dup2\n      dup1\n      sload\n      tag_53\n      swap1\n      tag_44\n      jump\t// in\n    tag_53:\n      dup1\n      0x1f\n      add\n      0x20\n      dup1\n      swap2\n      div\n      mul\n      0x20\n      add\n      mload(0x40)\n      swap1\n      dup2\n      add\n      0x40\n      mstore\n      dup1\n      swap3\n      swap2\n      swap1\n      dup2\n      dup2\n      mstore\n      0x20\n      add\n      dup3\n      dup1\n      sload\n      tag_54\n      swap1\n      tag_44\n      jump\t// in\n    tag_54:\n      dup1\n      iszero\n      tag_55\n      jumpi\n      dup1\n      0x1f\n      lt\n      tag_56\n      jumpi\n      0x0100\n      dup1\n      dup4\n      sload\n      div\n      mul\n      dup4\n      mstore\n      swap2\n      0x20\n      add\n      swap2\n      jump(tag_55)\n    tag_56:\n      dup3\n      add\n      swap2\n      swap1\n      0x00\n      mstore\n      keccak256(0x00, 0x20)\n      swap1\n    tag_57:\n      dup2\n      sload\n      dup2\n      mstore\n      swap1\n      0x01\n      add\n      swap1\n      0x20\n      add\n      dup1\n      dup4\n      gt\n      tag_57\n      jumpi\n      dup3\n      swap1\n      sub\n      0x1f\n      and\n      dup3\n      add\n      swap2\n    tag_55:\n      pop\n      pop\n      pop\n      pop\n      pop\n      swap2\n      pop\n      swap3\n      pop\n      swap3\n      pop\n      pop\n        /* \"contracts/struct.sol\":702:879  function get(uint _index) public view returns(string memory text, bool completed){... */\n      swap2\n      pop\n      swap2\n      jump\t// out\n        /* \"contracts/struct.sol\":186:621  function createTodo(string memory _text) public {... */\n    tag_25:\n        /* \"contracts/struct.sol\":290:298  todoList */\n      0x00\n        /* \"contracts/struct.sol\":317:335  Todo(_text, false) */\n      mload(0x40)\n      dup1\n      0x40\n      add\n      0x40\n      mstore\n      dup1\n        /* \"contracts/struct.sol\":322:327  _text */\n      dup4\n        /* \"contracts/struct.sol\":317:335  Todo(_text, false) */\n      dup2\n      mstore\n      0x20\n      add\n        /* \"contracts/struct.sol\":329:334  false */\n      0x00\n        /* \"contracts/struct.sol\":317:335  Todo(_text, false) */\n      iszero\n      iszero\n      dup2\n      mstore\n      pop\n        /* \"contracts/struct.sol\":290:345  todoList.push(... */\n      swap1\n      dup1\n      0x01\n      dup2\n      sload\n      add\n      dup1\n      dup3\n      sstore\n      dup1\n      swap2\n      pop\n      pop\n      0x01\n      swap1\n      sub\n      swap1\n      0x00\n      mstore\n      keccak256(0x00, 0x20)\n      swap1\n      0x02\n      mul\n      add\n      0x00\n      swap1\n      swap2\n      swap1\n      swap2\n      swap1\n      swap2\n      pop\n      0x00\n      dup3\n      add\n      mload\n      dup2\n      0x00\n      add\n      swap1\n      dup2\n      tag_60\n      swap2\n      swap1\n      tag_35\n      jump\t// in\n    tag_60:\n      pop\n      0x20\n      dup3\n      add\n      mload\n      dup2\n      0x01\n      add\n      exp(0x0100, 0x00)\n      dup2\n      sload\n      dup2\n      0xff\n      mul\n      not\n      and\n      swap1\n      dup4\n      iszero\n      iszero\n      mul\n      or\n      swap1\n      sstore\n      pop\n      pop\n      pop\n        /* \"contracts/struct.sol\":385:393  todoList */\n      0x00\n        /* \"contracts/struct.sol\":399:470  Todo({... */\n      mload(0x40)\n      dup1\n      0x40\n      add\n      0x40\n      mstore\n      dup1\n        /* \"contracts/struct.sol\":424:429  _text */\n      dup4\n        /* \"contracts/struct.sol\":399:470  Todo({... */\n      dup2\n      mstore\n      0x20\n      add\n        /* \"contracts/struct.sol\":455:459  true */\n      0x01\n        /* \"contracts/struct.sol\":399:470  Todo({... */\n      iszero\n      iszero\n      dup2\n      mstore\n      pop\n        /* \"contracts/struct.sol\":385:471  todoList.push(Todo({... */\n      swap1\n      dup1\n      0x01\n      dup2\n      sload\n      add\n      dup1\n      dup3\n      sstore\n      dup1\n      swap2\n      pop\n      pop\n      0x01\n      swap1\n      sub\n      swap1\n      0x00\n      mstore\n      keccak256(0x00, 0x20)\n      swap1\n      0x02\n      mul\n      add\n      0x00\n      swap1\n      swap2\n      swap1\n      swap2\n      swap1\n      swap2\n      pop\n      0x00\n      dup3\n      add\n      mload\n      dup2\n      0x00\n      add\n      swap1\n      dup2\n      tag_62\n      swap2\n      swap1\n      tag_35\n      jump\t// in\n    tag_62:\n      pop\n      0x20\n      dup3\n      add\n      mload\n      dup2\n      0x01\n      add\n      exp(0x0100, 0x00)\n      dup2\n      sload\n      dup2\n      0xff\n      mul\n      not\n      and\n      swap1\n      dup4\n      iszero\n      iszero\n      mul\n      or\n      swap1\n      sstore\n      pop\n      pop\n      pop\n        /* \"contracts/struct.sol\":541:557  Todo memory todo */\n      tag_63\n      tag_64\n      jump\t// in\n    tag_63:\n        /* \"contracts/struct.sol\":577:582  _text */\n      dup2\n        /* \"contracts/struct.sol\":567:571  todo */\n      dup2\n        /* \"contracts/struct.sol\":567:576  todo.text */\n      0x00\n      add\n        /* \"contracts/struct.sol\":567:582  todo.text=_text */\n      dup2\n      swap1\n      mstore\n      pop\n        /* \"contracts/struct.sol\":609:614  false */\n      0x00\n        /* \"contracts/struct.sol\":592:596  todo */\n      dup2\n        /* \"contracts/struct.sol\":592:606  todo.completed */\n      0x20\n      add\n        /* \"contracts/struct.sol\":592:614  todo.completed = false */\n      swap1\n      iszero\n      iszero\n      swap1\n      dup2\n      iszero\n      iszero\n      dup2\n      mstore\n      pop\n      pop\n        /* \"contracts/struct.sol\":234:621  {... */\n      pop\n        /* \"contracts/struct.sol\":186:621  function createTodo(string memory _text) public {... */\n      pop\n      jump\t// out\n        /* \"contracts/struct.sol\":1211:1389  function toggleCompletion(uint _index) public {... */\n    tag_28:\n        /* \"contracts/struct.sol\":1268:1285  Todo storage todo */\n      0x00\n        /* \"contracts/struct.sol\":1288:1296  todoList */\n      dup1\n        /* \"contracts/struct.sol\":1297:1303  _index */\n      dup3\n        /* \"contracts/struct.sol\":1288:1304  todoList[_index] */\n      dup2\n      sload\n      dup2\n      lt\n      tag_66\n      jumpi\n      tag_67\n      tag_32\n      jump\t// in\n    tag_67:\n    tag_66:\n      swap1\n      0x00\n      mstore\n      keccak256(0x00, 0x20)\n      swap1\n      0x02\n      mul\n      add\n        /* \"contracts/struct.sol\":1268:1304  Todo storage todo = todoList[_index] */\n      swap1\n      pop\n        /* \"contracts/struct.sol\":1335:1339  todo */\n      dup1\n        /* \"contracts/struct.sol\":1335:1349  todo.completed */\n      0x01\n      add\n      0x00\n      swap1\n      sload\n      swap1\n      0x0100\n      exp\n      swap1\n      div\n      0xff\n      and\n        /* \"contracts/struct.sol\":1334:1349  !todo.completed */\n      iszero\n        /* \"contracts/struct.sol\":1318:1322  todo */\n      dup2\n        /* \"contracts/struct.sol\":1318:1332  todo.completed */\n      0x01\n      add\n      0x00\n        /* \"contracts/struct.sol\":1318:1349  todo.completed= !todo.completed */\n      0x0100\n      exp\n      dup2\n      sload\n      dup2\n      0xff\n      mul\n      not\n      and\n      swap1\n      dup4\n      iszero\n      iszero\n      mul\n      or\n      swap1\n      sstore\n      pop\n        /* \"contracts/struct.sol\":1378:1382  todo */\n      dup1\n        /* \"contracts/struct.sol\":1359:1367  todoList */\n      0x00\n        /* \"contracts/struct.sol\":1368:1374  _index */\n      dup4\n        /* \"contracts/struct.sol\":1359:1375  todoList[_index] */\n      dup2\n      sload\n      dup2\n      lt\n      tag_69\n      jumpi\n      tag_70\n      tag_32\n      jump\t// in\n    tag_70:\n    tag_69:\n      swap1\n      0x00\n      mstore\n      keccak256(0x00, 0x20)\n      swap1\n      0x02\n      mul\n      add\n        /* \"contracts/struct.sol\":1359:1382  todoList[_index] = todo */\n      0x00\n      dup3\n      add\n      dup2\n      0x00\n      add\n      swap1\n      dup2\n      tag_72\n      swap2\n      swap1\n      tag_40\n      jump\t// in\n    tag_72:\n      pop\n      0x01\n      dup3\n      add\n      0x00\n      swap1\n      sload\n      swap1\n      0x0100\n      exp\n      swap1\n      div\n      0xff\n      and\n      dup2\n      0x01\n      add\n      exp(0x0100, 0x00)\n      dup2\n      sload\n      dup2\n      0xff\n      mul\n      not\n      and\n      swap1\n      dup4\n      iszero\n      iszero\n      mul\n      or\n      swap1\n      sstore\n      pop\n      swap1\n      pop\n      pop\n        /* \"contracts/struct.sol\":1257:1389  {... */\n      pop\n        /* \"contracts/struct.sol\":1211:1389  function toggleCompletion(uint _index) public {... */\n      pop\n      jump\t// out\n    tag_64:\n      mload(0x40)\n      dup1\n      0x40\n      add\n      0x40\n      mstore\n      dup1\n      0x60\n      dup2\n      mstore\n      0x20\n      add\n      iszero(iszero(0x00))\n      dup2\n      mstore\n      pop\n      swap1\n      jump\t// out\n        /* \"#utility.yul\":7:82   */\n    tag_73:\n        /* \"#utility.yul\":40:46   */\n      0x00\n        /* \"#utility.yul\":73:75   */\n      0x40\n        /* \"#utility.yul\":67:76   */\n      mload\n        /* \"#utility.yul\":57:76   */\n      swap1\n      pop\n        /* \"#utility.yul\":7:82   */\n      swap1\n      jump\t// out\n        /* \"#utility.yul\":88:205   */\n    tag_74:\n        /* \"#utility.yul\":197:198   */\n      0x00\n        /* \"#utility.yul\":194:195   */\n      dup1\n        /* \"#utility.yul\":187:199   */\n      revert\n        /* \"#utility.yul\":211:328   */\n    tag_75:\n        /* \"#utility.yul\":320:321   */\n      0x00\n        /* \"#utility.yul\":317:318   */\n      dup1\n        /* \"#utility.yul\":310:322   */\n      revert\n        /* \"#utility.yul\":334:411   */\n    tag_76:\n        /* \"#utility.yul\":371:378   */\n      0x00\n        /* \"#utility.yul\":400:405   */\n      dup2\n        /* \"#utility.yul\":389:405   */\n      swap1\n      pop\n        /* \"#utility.yul\":334:411   */\n      swap2\n      swap1\n      pop\n      jump\t// out\n        /* \"#utility.yul\":417:539   */\n    tag_77:\n        /* \"#utility.yul\":490:514   */\n      tag_120\n        /* \"#utility.yul\":508:513   */\n      dup2\n        /* \"#utility.yul\":490:514   */\n      tag_76\n      jump\t// in\n    tag_120:\n        /* \"#utility.yul\":483:488   */\n      dup2\n        /* \"#utility.yul\":480:515   */\n      eq\n        /* \"#utility.yul\":470:533   */\n      tag_121\n      jumpi\n        /* \"#utility.yul\":529:530   */\n      0x00\n        /* \"#utility.yul\":526:527   */\n      dup1\n        /* \"#utility.yul\":519:531   */\n      revert\n        /* \"#utility.yul\":470:533   */\n    tag_121:\n        /* \"#utility.yul\":417:539   */\n      pop\n      jump\t// out\n        /* \"#utility.yul\":545:684   */\n    tag_78:\n        /* \"#utility.yul\":591:596   */\n      0x00\n        /* \"#utility.yul\":629:635   */\n      dup2\n        /* \"#utility.yul\":616:636   */\n      calldataload\n        /* \"#utility.yul\":607:636   */\n      swap1\n      pop\n        /* \"#utility.yul\":645:678   */\n      tag_123\n        /* \"#utility.yul\":672:677   */\n      dup2\n        /* \"#utility.yul\":645:678   */\n      tag_77\n      jump\t// in\n    tag_123:\n        /* \"#utility.yul\":545:684   */\n      swap3\n      swap2\n      pop\n      pop\n      jump\t// out\n        /* \"#utility.yul\":690:807   */\n    tag_79:\n        /* \"#utility.yul\":799:800   */\n      0x00\n        /* \"#utility.yul\":796:797   */\n      dup1\n        /* \"#utility.yul\":789:801   */\n      revert\n        /* \"#utility.yul\":813:930   */\n    tag_80:\n        /* \"#utility.yul\":922:923   */\n      0x00\n        /* \"#utility.yul\":919:920   */\n      dup1\n        /* \"#utility.yul\":912:924   */\n      revert\n        /* \"#utility.yul\":936:1038   */\n    tag_81:\n        /* \"#utility.yul\":977:983   */\n      0x00\n        /* \"#utility.yul\":1028:1030   */\n      0x1f\n        /* \"#utility.yul\":1024:1031   */\n      not\n        /* \"#utility.yul\":1019:1021   */\n      0x1f\n        /* \"#utility.yul\":1012:1017   */\n      dup4\n        /* \"#utility.yul\":1008:1022   */\n      add\n        /* \"#utility.yul\":1004:1032   */\n      and\n        /* \"#utility.yul\":994:1032   */\n      swap1\n      pop\n        /* \"#utility.yul\":936:1038   */\n      swap2\n      swap1\n      pop\n      jump\t// out\n        /* \"#utility.yul\":1044:1224   */\n    tag_82:\n        /* \"#utility.yul\":1092:1169   */\n      0x4e487b7100000000000000000000000000000000000000000000000000000000\n        /* \"#utility.yul\":1089:1090   */\n      0x00\n        /* \"#utility.yul\":1082:1170   */\n      mstore\n        /* \"#utility.yul\":1189:1193   */\n      0x41\n        /* \"#utility.yul\":1186:1187   */\n      0x04\n        /* \"#utility.yul\":1179:1194   */\n      mstore\n        /* \"#utility.yul\":1213:1217   */\n      0x24\n        /* \"#utility.yul\":1210:1211   */\n      0x00\n        /* \"#utility.yul\":1203:1218   */\n      revert\n        /* \"#utility.yul\":1230:1511   */\n    tag_83:\n        /* \"#utility.yul\":1313:1340   */\n      tag_129\n        /* \"#utility.yul\":1335:1339   */\n      dup3\n        /* \"#utility.yul\":1313:1340   */\n      tag_81\n      jump\t// in\n    tag_129:\n        /* \"#utility.yul\":1305:1311   */\n      dup2\n        /* \"#utility.yul\":1301:1341   */\n      add\n        /* \"#utility.yul\":1443:1449   */\n      dup2\n        /* \"#utility.yul\":1431:1441   */\n      dup2\n        /* \"#utility.yul\":1428:1450   */\n      lt\n        /* \"#utility.yul\":1407:1425   */\n      0xffffffffffffffff\n        /* \"#utility.yul\":1395:1405   */\n      dup3\n        /* \"#utility.yul\":1392:1426   */\n      gt\n        /* \"#utility.yul\":1389:1451   */\n      or\n        /* \"#utility.yul\":1386:1474   */\n      iszero\n      tag_130\n      jumpi\n        /* \"#utility.yul\":1454:1472   */\n      tag_131\n      tag_82\n      jump\t// in\n    tag_131:\n        /* \"#utility.yul\":1386:1474   */\n    tag_130:\n        /* \"#utility.yul\":1494:1504   */\n      dup1\n        /* \"#utility.yul\":1490:1492   */\n      0x40\n        /* \"#utility.yul\":1483:1505   */\n      mstore\n        /* \"#utility.yul\":1273:1511   */\n      pop\n        /* \"#utility.yul\":1230:1511   */\n      pop\n      pop\n      jump\t// out\n        /* \"#utility.yul\":1517:1646   */\n    tag_84:\n        /* \"#utility.yul\":1551:1557   */\n      0x00\n        /* \"#utility.yul\":1578:1598   */\n      tag_133\n      tag_73\n      jump\t// in\n    tag_133:\n        /* \"#utility.yul\":1568:1598   */\n      swap1\n      pop\n        /* \"#utility.yul\":1607:1640   */\n      tag_134\n        /* \"#utility.yul\":1635:1639   */\n      dup3\n        /* \"#utility.yul\":1627:1633   */\n      dup3\n        /* \"#utility.yul\":1607:1640   */\n      tag_83\n      jump\t// in\n    tag_134:\n        /* \"#utility.yul\":1517:1646   */\n      swap2\n      swap1\n      pop\n      jump\t// out\n        /* \"#utility.yul\":1652:1960   */\n    tag_85:\n        /* \"#utility.yul\":1714:1718   */\n      0x00\n        /* \"#utility.yul\":1804:1822   */\n      0xffffffffffffffff\n        /* \"#utility.yul\":1796:1802   */\n      dup3\n        /* \"#utility.yul\":1793:1823   */\n      gt\n        /* \"#utility.yul\":1790:1846   */\n      iszero\n      tag_136\n      jumpi\n        /* \"#utility.yul\":1826:1844   */\n      tag_137\n      tag_82\n      jump\t// in\n    tag_137:\n        /* \"#utility.yul\":1790:1846   */\n    tag_136:\n        /* \"#utility.yul\":1864:1893   */\n      tag_138\n        /* \"#utility.yul\":1886:1892   */\n      dup3\n        /* \"#utility.yul\":1864:1893   */\n      tag_81\n      jump\t// in\n    tag_138:\n        /* \"#utility.yul\":1856:1893   */\n      swap1\n      pop\n        /* \"#utility.yul\":1948:1952   */\n      0x20\n        /* \"#utility.yul\":1942:1946   */\n      dup2\n        /* \"#utility.yul\":1938:1953   */\n      add\n        /* \"#utility.yul\":1930:1953   */\n      swap1\n      pop\n        /* \"#utility.yul\":1652:1960   */\n      swap2\n      swap1\n      pop\n      jump\t// out\n        /* \"#utility.yul\":1966:2114   */\n    tag_86:\n        /* \"#utility.yul\":2064:2070   */\n      dup3\n        /* \"#utility.yul\":2059:2062   */\n      dup2\n        /* \"#utility.yul\":2054:2057   */\n      dup4\n        /* \"#utility.yul\":2041:2071   */\n      calldatacopy\n        /* \"#utility.yul\":2105:2106   */\n      0x00\n        /* \"#utility.yul\":2096:2102   */\n      dup4\n        /* \"#utility.yul\":2091:2094   */\n      dup4\n        /* \"#utility.yul\":2087:2103   */\n      add\n        /* \"#utility.yul\":2080:2107   */\n      mstore\n        /* \"#utility.yul\":1966:2114   */\n      pop\n      pop\n      pop\n      jump\t// out\n        /* \"#utility.yul\":2120:2545   */\n    tag_87:\n        /* \"#utility.yul\":2198:2203   */\n      0x00\n        /* \"#utility.yul\":2223:2289   */\n      tag_141\n        /* \"#utility.yul\":2239:2288   */\n      tag_142\n        /* \"#utility.yul\":2281:2287   */\n      dup5\n        /* \"#utility.yul\":2239:2288   */\n      tag_85\n      jump\t// in\n    tag_142:\n        /* \"#utility.yul\":2223:2289   */\n      tag_84\n      jump\t// in\n    tag_141:\n        /* \"#utility.yul\":2214:2289   */\n      swap1\n      pop\n        /* \"#utility.yul\":2312:2318   */\n      dup3\n        /* \"#utility.yul\":2305:2310   */\n      dup2\n        /* \"#utility.yul\":2298:2319   */\n      mstore\n        /* \"#utility.yul\":2350:2354   */\n      0x20\n        /* \"#utility.yul\":2343:2348   */\n      dup2\n        /* \"#utility.yul\":2339:2355   */\n      add\n        /* \"#utility.yul\":2388:2391   */\n      dup5\n        /* \"#utility.yul\":2379:2385   */\n      dup5\n        /* \"#utility.yul\":2374:2377   */\n      dup5\n        /* \"#utility.yul\":2370:2386   */\n      add\n        /* \"#utility.yul\":2367:2392   */\n      gt\n        /* \"#utility.yul\":2364:2476   */\n      iszero\n      tag_143\n      jumpi\n        /* \"#utility.yul\":2395:2474   */\n      tag_144\n      tag_80\n      jump\t// in\n    tag_144:\n        /* \"#utility.yul\":2364:2476   */\n    tag_143:\n        /* \"#utility.yul\":2485:2539   */\n      tag_145\n        /* \"#utility.yul\":2532:2538   */\n      dup5\n        /* \"#utility.yul\":2527:2530   */\n      dup3\n        /* \"#utility.yul\":2522:2525   */\n      dup6\n        /* \"#utility.yul\":2485:2539   */\n      tag_86\n      jump\t// in\n    tag_145:\n        /* \"#utility.yul\":2204:2545   */\n      pop\n        /* \"#utility.yul\":2120:2545   */\n      swap4\n      swap3\n      pop\n      pop\n      pop\n      jump\t// out\n        /* \"#utility.yul\":2565:2905   */\n    tag_88:\n        /* \"#utility.yul\":2621:2626   */\n      0x00\n        /* \"#utility.yul\":2670:2673   */\n      dup3\n        /* \"#utility.yul\":2663:2667   */\n      0x1f\n        /* \"#utility.yul\":2655:2661   */\n      dup4\n        /* \"#utility.yul\":2651:2668   */\n      add\n        /* \"#utility.yul\":2647:2674   */\n      slt\n        /* \"#utility.yul\":2637:2759   */\n      tag_147\n      jumpi\n        /* \"#utility.yul\":2678:2757   */\n      tag_148\n      tag_79\n      jump\t// in\n    tag_148:\n        /* \"#utility.yul\":2637:2759   */\n    tag_147:\n        /* \"#utility.yul\":2795:2801   */\n      dup2\n        /* \"#utility.yul\":2782:2802   */\n      calldataload\n        /* \"#utility.yul\":2820:2899   */\n      tag_149\n        /* \"#utility.yul\":2895:2898   */\n      dup5\n        /* \"#utility.yul\":2887:2893   */\n      dup3\n        /* \"#utility.yul\":2880:2884   */\n      0x20\n        /* \"#utility.yul\":2872:2878   */\n      dup7\n        /* \"#utility.yul\":2868:2885   */\n      add\n        /* \"#utility.yul\":2820:2899   */\n      tag_87\n      jump\t// in\n    tag_149:\n        /* \"#utility.yul\":2811:2899   */\n      swap2\n      pop\n        /* \"#utility.yul\":2627:2905   */\n      pop\n        /* \"#utility.yul\":2565:2905   */\n      swap3\n      swap2\n      pop\n      pop\n      jump\t// out\n        /* \"#utility.yul\":2911:3001   */\n    tag_89:\n        /* \"#utility.yul\":2945:2952   */\n      0x00\n        /* \"#utility.yul\":2988:2993   */\n      dup2\n        /* \"#utility.yul\":2981:2994   */\n      iszero\n        /* \"#utility.yul\":2974:2995   */\n      iszero\n        /* \"#utility.yul\":2963:2995   */\n      swap1\n      pop\n        /* \"#utility.yul\":2911:3001   */\n      swap2\n      swap1\n      pop\n      jump\t// out\n        /* \"#utility.yul\":3007:3123   */\n    tag_90:\n        /* \"#utility.yul\":3077:3098   */\n      tag_152\n        /* \"#utility.yul\":3092:3097   */\n      dup2\n        /* \"#utility.yul\":3077:3098   */\n      tag_89\n      jump\t// in\n    tag_152:\n        /* \"#utility.yul\":3070:3075   */\n      dup2\n        /* \"#utility.yul\":3067:3099   */\n      eq\n        /* \"#utility.yul\":3057:3117   */\n      tag_153\n      jumpi\n        /* \"#utility.yul\":3113:3114   */\n      0x00\n        /* \"#utility.yul\":3110:3111   */\n      dup1\n        /* \"#utility.yul\":3103:3115   */\n      revert\n        /* \"#utility.yul\":3057:3117   */\n    tag_153:\n        /* \"#utility.yul\":3007:3123   */\n      pop\n      jump\t// out\n        /* \"#utility.yul\":3129:3262   */\n    tag_91:\n        /* \"#utility.yul\":3172:3177   */\n      0x00\n        /* \"#utility.yul\":3210:3216   */\n      dup2\n        /* \"#utility.yul\":3197:3217   */\n      calldataload\n        /* \"#utility.yul\":3188:3217   */\n      swap1\n      pop\n        /* \"#utility.yul\":3226:3256   */\n      tag_155\n        /* \"#utility.yul\":3250:3255   */\n      dup2\n        /* \"#utility.yul\":3226:3256   */\n      tag_90\n      jump\t// in\n    tag_155:\n        /* \"#utility.yul\":3129:3262   */\n      swap3\n      swap2\n      pop\n      pop\n      jump\t// out\n        /* \"#utility.yul\":3268:4061   */\n    tag_10:\n        /* \"#utility.yul\":3352:3358   */\n      0x00\n        /* \"#utility.yul\":3360:3366   */\n      dup1\n        /* \"#utility.yul\":3368:3374   */\n      0x00\n        /* \"#utility.yul\":3417:3419   */\n      0x60\n        /* \"#utility.yul\":3405:3414   */\n      dup5\n        /* \"#utility.yul\":3396:3403   */\n      dup7\n        /* \"#utility.yul\":3392:3415   */\n      sub\n        /* \"#utility.yul\":3388:3420   */\n      slt\n        /* \"#utility.yul\":3385:3504   */\n      iszero\n      tag_157\n      jumpi\n        /* \"#utility.yul\":3423:3502   */\n      tag_158\n      tag_74\n      jump\t// in\n    tag_158:\n        /* \"#utility.yul\":3385:3504   */\n    tag_157:\n        /* \"#utility.yul\":3543:3544   */\n      0x00\n        /* \"#utility.yul\":3568:3621   */\n      tag_159\n        /* \"#utility.yul\":3613:3620   */\n      dup7\n        /* \"#utility.yul\":3604:3610   */\n      dup3\n        /* \"#utility.yul\":3593:3602   */\n      dup8\n        /* \"#utility.yul\":3589:3611   */\n      add\n        /* \"#utility.yul\":3568:3621   */\n      tag_78\n      jump\t// in\n    tag_159:\n        /* \"#utility.yul\":3558:3621   */\n      swap4\n      pop\n        /* \"#utility.yul\":3514:3631   */\n      pop\n        /* \"#utility.yul\":3698:3700   */\n      0x20\n        /* \"#utility.yul\":3687:3696   */\n      dup5\n        /* \"#utility.yul\":3683:3701   */\n      add\n        /* \"#utility.yul\":3670:3702   */\n      calldataload\n        /* \"#utility.yul\":3729:3747   */\n      0xffffffffffffffff\n        /* \"#utility.yul\":3721:3727   */\n      dup2\n        /* \"#utility.yul\":3718:3748   */\n      gt\n        /* \"#utility.yul\":3715:3832   */\n      iszero\n      tag_160\n      jumpi\n        /* \"#utility.yul\":3751:3830   */\n      tag_161\n      tag_75\n      jump\t// in\n    tag_161:\n        /* \"#utility.yul\":3715:3832   */\n    tag_160:\n        /* \"#utility.yul\":3856:3919   */\n      tag_162\n        /* \"#utility.yul\":3911:3918   */\n      dup7\n        /* \"#utility.yul\":3902:3908   */\n      dup3\n        /* \"#utility.yul\":3891:3900   */\n      dup8\n        /* \"#utility.yul\":3887:3909   */\n      add\n        /* \"#utility.yul\":3856:3919   */\n      tag_88\n      jump\t// in\n    tag_162:\n        /* \"#utility.yul\":3846:3919   */\n      swap3\n      pop\n        /* \"#utility.yul\":3641:3929   */\n      pop\n        /* \"#utility.yul\":3968:3970   */\n      0x40\n        /* \"#utility.yul\":3994:4044   */\n      tag_163\n        /* \"#utility.yul\":4036:4043   */\n      dup7\n        /* \"#utility.yul\":4027:4033   */\n      dup3\n        /* \"#utility.yul\":4016:4025   */\n      dup8\n        /* \"#utility.yul\":4012:4034   */\n      add\n        /* \"#utility.yul\":3994:4044   */\n      tag_91\n      jump\t// in\n    tag_163:\n        /* \"#utility.yul\":3984:4044   */\n      swap2\n      pop\n        /* \"#utility.yul\":3939:4054   */\n      pop\n        /* \"#utility.yul\":3268:4061   */\n      swap3\n      pop\n      swap3\n      pop\n      swap3\n      jump\t// out\n        /* \"#utility.yul\":4067:4396   */\n    tag_14:\n        /* \"#utility.yul\":4126:4132   */\n      0x00\n        /* \"#utility.yul\":4175:4177   */\n      0x20\n        /* \"#utility.yul\":4163:4172   */\n      dup3\n        /* \"#utility.yul\":4154:4161   */\n      dup5\n        /* \"#utility.yul\":4150:4173   */\n      sub\n        /* \"#utility.yul\":4146:4178   */\n      slt\n        /* \"#utility.yul\":4143:4262   */\n      iszero\n      tag_165\n      jumpi\n        /* \"#utility.yul\":4181:4260   */\n      tag_166\n      tag_74\n      jump\t// in\n    tag_166:\n        /* \"#utility.yul\":4143:4262   */\n    tag_165:\n        /* \"#utility.yul\":4301:4302   */\n      0x00\n        /* \"#utility.yul\":4326:4379   */\n      tag_167\n        /* \"#utility.yul\":4371:4378   */\n      dup5\n        /* \"#utility.yul\":4362:4368   */\n      dup3\n        /* \"#utility.yul\":4351:4360   */\n      dup6\n        /* \"#utility.yul\":4347:4369   */\n      add\n        /* \"#utility.yul\":4326:4379   */\n      tag_78\n      jump\t// in\n    tag_167:\n        /* \"#utility.yul\":4316:4379   */\n      swap2\n      pop\n        /* \"#utility.yul\":4272:4389   */\n      pop\n        /* \"#utility.yul\":4067:4396   */\n      swap3\n      swap2\n      pop\n      pop\n      jump\t// out\n        /* \"#utility.yul\":4402:4501   */\n    tag_92:\n        /* \"#utility.yul\":4454:4460   */\n      0x00\n        /* \"#utility.yul\":4488:4493   */\n      dup2\n        /* \"#utility.yul\":4482:4494   */\n      mload\n        /* \"#utility.yul\":4472:4494   */\n      swap1\n      pop\n        /* \"#utility.yul\":4402:4501   */\n      swap2\n      swap1\n      pop\n      jump\t// out\n        /* \"#utility.yul\":4507:4676   */\n    tag_93:\n        /* \"#utility.yul\":4591:4602   */\n      0x00\n        /* \"#utility.yul\":4625:4631   */\n      dup3\n        /* \"#utility.yul\":4620:4623   */\n      dup3\n        /* \"#utility.yul\":4613:4632   */\n      mstore\n        /* \"#utility.yul\":4665:4669   */\n      0x20\n        /* \"#utility.yul\":4660:4663   */\n      dup3\n        /* \"#utility.yul\":4656:4670   */\n      add\n        /* \"#utility.yul\":4641:4670   */\n      swap1\n      pop\n        /* \"#utility.yul\":4507:4676   */\n      swap3\n      swap2\n      pop\n      pop\n      jump\t// out\n        /* \"#utility.yul\":4682:4821   */\n    tag_94:\n        /* \"#utility.yul\":4771:4777   */\n      dup3\n        /* \"#utility.yul\":4766:4769   */\n      dup2\n        /* \"#utility.yul\":4761:4764   */\n      dup4\n        /* \"#utility.yul\":4755:4778   */\n      mcopy\n        /* \"#utility.yul\":4812:4813   */\n      0x00\n        /* \"#utility.yul\":4803:4809   */\n      dup4\n        /* \"#utility.yul\":4798:4801   */\n      dup4\n        /* \"#utility.yul\":4794:4810   */\n      add\n        /* \"#utility.yul\":4787:4814   */\n      mstore\n        /* \"#utility.yul\":4682:4821   */\n      pop\n      pop\n      pop\n      jump\t// out\n        /* \"#utility.yul\":4827:5204   */\n    tag_95:\n        /* \"#utility.yul\":4915:4918   */\n      0x00\n        /* \"#utility.yul\":4943:4982   */\n      tag_172\n        /* \"#utility.yul\":4976:4981   */\n      dup3\n        /* \"#utility.yul\":4943:4982   */\n      tag_92\n      jump\t// in\n    tag_172:\n        /* \"#utility.yul\":4998:5069   */\n      tag_173\n        /* \"#utility.yul\":5062:5068   */\n      dup2\n        /* \"#utility.yul\":5057:5060   */\n      dup6\n        /* \"#utility.yul\":4998:5069   */\n      tag_93\n      jump\t// in\n    tag_173:\n        /* \"#utility.yul\":4991:5069   */\n      swap4\n      pop\n        /* \"#utility.yul\":5078:5143   */\n      tag_174\n        /* \"#utility.yul\":5136:5142   */\n      dup2\n        /* \"#utility.yul\":5131:5134   */\n      dup6\n        /* \"#utility.yul\":5124:5128   */\n      0x20\n        /* \"#utility.yul\":5117:5122   */\n      dup7\n        /* \"#utility.yul\":5113:5129   */\n      add\n        /* \"#utility.yul\":5078:5143   */\n      tag_94\n      jump\t// in\n    tag_174:\n        /* \"#utility.yul\":5168:5197   */\n      tag_175\n        /* \"#utility.yul\":5190:5196   */\n      dup2\n        /* \"#utility.yul\":5168:5197   */\n      tag_81\n      jump\t// in\n    tag_175:\n        /* \"#utility.yul\":5163:5166   */\n      dup5\n        /* \"#utility.yul\":5159:5198   */\n      add\n        /* \"#utility.yul\":5152:5198   */\n      swap2\n      pop\n        /* \"#utility.yul\":4919:5204   */\n      pop\n        /* \"#utility.yul\":4827:5204   */\n      swap3\n      swap2\n      pop\n      pop\n      jump\t// out\n        /* \"#utility.yul\":5210:5319   */\n    tag_96:\n        /* \"#utility.yul\":5291:5312   */\n      tag_177\n        /* \"#utility.yul\":5306:5311   */\n      dup2\n        /* \"#utility.yul\":5291:5312   */\n      tag_89\n      jump\t// in\n    tag_177:\n        /* \"#utility.yul\":5286:5289   */\n      dup3\n        /* \"#utility.yul\":5279:5313   */\n      mstore\n        /* \"#utility.yul\":5210:5319   */\n      pop\n      pop\n      jump\t// out\n        /* \"#utility.yul\":5325:5736   */\n    tag_17:\n        /* \"#utility.yul\":5460:5464   */\n      0x00\n        /* \"#utility.yul\":5498:5500   */\n      0x40\n        /* \"#utility.yul\":5487:5496   */\n      dup3\n        /* \"#utility.yul\":5483:5501   */\n      add\n        /* \"#utility.yul\":5475:5501   */\n      swap1\n      pop\n        /* \"#utility.yul\":5547:5556   */\n      dup2\n        /* \"#utility.yul\":5541:5545   */\n      dup2\n        /* \"#utility.yul\":5537:5557   */\n      sub\n        /* \"#utility.yul\":5533:5534   */\n      0x00\n        /* \"#utility.yul\":5522:5531   */\n      dup4\n        /* \"#utility.yul\":5518:5535   */\n      add\n        /* \"#utility.yul\":5511:5558   */\n      mstore\n        /* \"#utility.yul\":5575:5653   */\n      tag_179\n        /* \"#utility.yul\":5648:5652   */\n      dup2\n        /* \"#utility.yul\":5639:5645   */\n      dup6\n        /* \"#utility.yul\":5575:5653   */\n      tag_95\n      jump\t// in\n    tag_179:\n        /* \"#utility.yul\":5567:5653   */\n      swap1\n      pop\n        /* \"#utility.yul\":5663:5729   */\n      tag_180\n        /* \"#utility.yul\":5725:5727   */\n      0x20\n        /* \"#utility.yul\":5714:5723   */\n      dup4\n        /* \"#utility.yul\":5710:5728   */\n      add\n        /* \"#utility.yul\":5701:5707   */\n      dup5\n        /* \"#utility.yul\":5663:5729   */\n      tag_96\n      jump\t// in\n    tag_180:\n        /* \"#utility.yul\":5325:5736   */\n      swap4\n      swap3\n      pop\n      pop\n      pop\n      jump\t// out\n        /* \"#utility.yul\":5742:6251   */\n    tag_24:\n        /* \"#utility.yul\":5811:5817   */\n      0x00\n        /* \"#utility.yul\":5860:5862   */\n      0x20\n        /* \"#utility.yul\":5848:5857   */\n      dup3\n        /* \"#utility.yul\":5839:5846   */\n      dup5\n        /* \"#utility.yul\":5835:5858   */\n      sub\n        /* \"#utility.yul\":5831:5863   */\n      slt\n        /* \"#utility.yul\":5828:5947   */\n      iszero\n      tag_182\n      jumpi\n        /* \"#utility.yul\":5866:5945   */\n      tag_183\n      tag_74\n      jump\t// in\n    tag_183:\n        /* \"#utility.yul\":5828:5947   */\n    tag_182:\n        /* \"#utility.yul\":6014:6015   */\n      0x00\n        /* \"#utility.yul\":6003:6012   */\n      dup3\n        /* \"#utility.yul\":5999:6016   */\n      add\n        /* \"#utility.yul\":5986:6017   */\n      calldataload\n        /* \"#utility.yul\":6044:6062   */\n      0xffffffffffffffff\n        /* \"#utility.yul\":6036:6042   */\n      dup2\n        /* \"#utility.yul\":6033:6063   */\n      gt\n        /* \"#utility.yul\":6030:6147   */\n      iszero\n      tag_184\n      jumpi\n        /* \"#utility.yul\":6066:6145   */\n      tag_185\n      tag_75\n      jump\t// in\n    tag_185:\n        /* \"#utility.yul\":6030:6147   */\n    tag_184:\n        /* \"#utility.yul\":6171:6234   */\n      tag_186\n        /* \"#utility.yul\":6226:6233   */\n      dup5\n        /* \"#utility.yul\":6217:6223   */\n      dup3\n        /* \"#utility.yul\":6206:6215   */\n      dup6\n        /* \"#utility.yul\":6202:6224   */\n      add\n        /* \"#utility.yul\":6171:6234   */\n      tag_88\n      jump\t// in\n    tag_186:\n        /* \"#utility.yul\":6161:6234   */\n      swap2\n      pop\n        /* \"#utility.yul\":5957:6244   */\n      pop\n        /* \"#utility.yul\":5742:6251   */\n      swap3\n      swap2\n      pop\n      pop\n      jump\t// out\n        /* \"#utility.yul\":6257:6437   */\n    tag_32:\n        /* \"#utility.yul\":6305:6382   */\n      0x4e487b7100000000000000000000000000000000000000000000000000000000\n        /* \"#utility.yul\":6302:6303   */\n      0x00\n        /* \"#utility.yul\":6295:6383   */\n      mstore\n        /* \"#utility.yul\":6402:6406   */\n      0x32\n        /* \"#utility.yul\":6399:6400   */\n      0x04\n        /* \"#utility.yul\":6392:6407   */\n      mstore\n        /* \"#utility.yul\":6426:6430   */\n      0x24\n        /* \"#utility.yul\":6423:6424   */\n      0x00\n        /* \"#utility.yul\":6416:6431   */\n      revert\n        /* \"#utility.yul\":6443:6623   */\n    tag_97:\n        /* \"#utility.yul\":6491:6568   */\n      0x4e487b7100000000000000000000000000000000000000000000000000000000\n        /* \"#utility.yul\":6488:6489   */\n      0x00\n        /* \"#utility.yul\":6481:6569   */\n      mstore\n        /* \"#utility.yul\":6588:6592   */\n      0x22\n        /* \"#utility.yul\":6585:6586   */\n      0x04\n        /* \"#utility.yul\":6578:6593   */\n      mstore\n        /* \"#utility.yul\":6612:6616   */\n      0x24\n        /* \"#utility.yul\":6609:6610   */\n      0x00\n        /* \"#utility.yul\":6602:6617   */\n      revert\n        /* \"#utility.yul\":6629:6949   */\n    tag_44:\n        /* \"#utility.yul\":6673:6679   */\n      0x00\n        /* \"#utility.yul\":6710:6711   */\n      0x02\n        /* \"#utility.yul\":6704:6708   */\n      dup3\n        /* \"#utility.yul\":6700:6712   */\n      div\n        /* \"#utility.yul\":6690:6712   */\n      swap1\n      pop\n        /* \"#utility.yul\":6757:6758   */\n      0x01\n        /* \"#utility.yul\":6751:6755   */\n      dup3\n        /* \"#utility.yul\":6747:6759   */\n      and\n        /* \"#utility.yul\":6778:6796   */\n      dup1\n        /* \"#utility.yul\":6768:6849   */\n      tag_190\n      jumpi\n        /* \"#utility.yul\":6834:6838   */\n      0x7f\n        /* \"#utility.yul\":6826:6832   */\n      dup3\n        /* \"#utility.yul\":6822:6839   */\n      and\n        /* \"#utility.yul\":6812:6839   */\n      swap2\n      pop\n        /* \"#utility.yul\":6768:6849   */\n    tag_190:\n        /* \"#utility.yul\":6896:6898   */\n      0x20\n        /* \"#utility.yul\":6888:6894   */\n      dup3\n        /* \"#utility.yul\":6885:6899   */\n      lt\n        /* \"#utility.yul\":6865:6883   */\n      dup2\n        /* \"#utility.yul\":6862:6900   */\n      sub\n        /* \"#utility.yul\":6859:6943   */\n      tag_191\n      jumpi\n        /* \"#utility.yul\":6915:6933   */\n      tag_192\n      tag_97\n      jump\t// in\n    tag_192:\n        /* \"#utility.yul\":6859:6943   */\n    tag_191:\n        /* \"#utility.yul\":6680:6949   */\n      pop\n        /* \"#utility.yul\":6629:6949   */\n      swap2\n      swap1\n      pop\n      jump\t// out\n        /* \"#utility.yul\":6955:7096   */\n    tag_98:\n        /* \"#utility.yul\":7004:7008   */\n      0x00\n        /* \"#utility.yul\":7027:7030   */\n      dup2\n        /* \"#utility.yul\":7019:7030   */\n      swap1\n      pop\n        /* \"#utility.yul\":7050:7053   */\n      dup2\n        /* \"#utility.yul\":7047:7048   */\n      0x00\n        /* \"#utility.yul\":7040:7054   */\n      mstore\n        /* \"#utility.yul\":7084:7088   */\n      0x20\n        /* \"#utility.yul\":7081:7082   */\n      0x00\n        /* \"#utility.yul\":7071:7089   */\n      keccak256\n        /* \"#utility.yul\":7063:7089   */\n      swap1\n      pop\n        /* \"#utility.yul\":6955:7096   */\n      swap2\n      swap1\n      pop\n      jump\t// out\n        /* \"#utility.yul\":7102:7195   */\n    tag_99:\n        /* \"#utility.yul\":7139:7145   */\n      0x00\n        /* \"#utility.yul\":7186:7188   */\n      0x20\n        /* \"#utility.yul\":7181:7183   */\n      0x1f\n        /* \"#utility.yul\":7174:7179   */\n      dup4\n        /* \"#utility.yul\":7170:7184   */\n      add\n        /* \"#utility.yul\":7166:7189   */\n      div\n        /* \"#utility.yul\":7156:7189   */\n      swap1\n      pop\n        /* \"#utility.yul\":7102:7195   */\n      swap2\n      swap1\n      pop\n      jump\t// out\n        /* \"#utility.yul\":7201:7308   */\n    tag_100:\n        /* \"#utility.yul\":7245:7253   */\n      0x00\n        /* \"#utility.yul\":7295:7300   */\n      dup3\n        /* \"#utility.yul\":7289:7293   */\n      dup3\n        /* \"#utility.yul\":7285:7301   */\n      shl\n        /* \"#utility.yul\":7264:7301   */\n      swap1\n      pop\n        /* \"#utility.yul\":7201:7308   */\n      swap3\n      swap2\n      pop\n      pop\n      jump\t// out\n        /* \"#utility.yul\":7314:7707   */\n    tag_101:\n        /* \"#utility.yul\":7383:7389   */\n      0x00\n        /* \"#utility.yul\":7433:7434   */\n      0x08\n        /* \"#utility.yul\":7421:7431   */\n      dup4\n        /* \"#utility.yul\":7417:7435   */\n      mul\n        /* \"#utility.yul\":7456:7553   */\n      tag_197\n        /* \"#utility.yul\":7486:7552   */\n      0xffffffffffffffffffffffffffffffffffffffffffffffffffffffffffffffff\n        /* \"#utility.yul\":7475:7484   */\n      dup3\n        /* \"#utility.yul\":7456:7553   */\n      tag_100\n      jump\t// in\n    tag_197:\n        /* \"#utility.yul\":7574:7613   */\n      tag_198\n        /* \"#utility.yul\":7604:7612   */\n      dup7\n        /* \"#utility.yul\":7593:7602   */\n      dup4\n        /* \"#utility.yul\":7574:7613   */\n      tag_100\n      jump\t// in\n    tag_198:\n        /* \"#utility.yul\":7562:7613   */\n      swap6\n      pop\n        /* \"#utility.yul\":7646:7650   */\n      dup1\n        /* \"#utility.yul\":7642:7651   */\n      not\n        /* \"#utility.yul\":7635:7640   */\n      dup5\n        /* \"#utility.yul\":7631:7652   */\n      and\n        /* \"#utility.yul\":7622:7652   */\n      swap4\n      pop\n        /* \"#utility.yul\":7695:7699   */\n      dup1\n        /* \"#utility.yul\":7685:7693   */\n      dup7\n        /* \"#utility.yul\":7681:7700   */\n      and\n        /* \"#utility.yul\":7674:7679   */\n      dup5\n        /* \"#utility.yul\":7671:7701   */\n      or\n        /* \"#utility.yul\":7661:7701   */\n      swap3\n      pop\n        /* \"#utility.yul\":7390:7707   */\n      pop\n      pop\n        /* \"#utility.yul\":7314:7707   */\n      swap4\n      swap3\n      pop\n      pop\n      pop\n      jump\t// out\n        /* \"#utility.yul\":7713:7773   */\n    tag_102:\n        /* \"#utility.yul\":7741:7744   */\n      0x00\n        /* \"#utility.yul\":7762:7767   */\n      dup2\n        /* \"#utility.yul\":7755:7767   */\n      swap1\n      pop\n        /* \"#utility.yul\":7713:7773   */\n      swap2\n      swap1\n      pop\n      jump\t// out\n        /* \"#utility.yul\":7779:7921   */\n    tag_103:\n        /* \"#utility.yul\":7829:7838   */\n      0x00\n        /* \"#utility.yul\":7862:7915   */\n      tag_201\n        /* \"#utility.yul\":7880:7914   */\n      tag_202\n        /* \"#utility.yul\":7889:7913   */\n      tag_203\n        /* \"#utility.yul\":7907:7912   */\n      dup5\n        /* \"#utility.yul\":7889:7913   */\n      tag_76\n      jump\t// in\n    tag_203:\n        /* \"#utility.yul\":7880:7914   */\n      tag_102\n      jump\t// in\n    tag_202:\n        /* \"#utility.yul\":7862:7915   */\n      tag_76\n      jump\t// in\n    tag_201:\n        /* \"#utility.yul\":7849:7915   */\n      swap1\n      pop\n        /* \"#utility.yul\":7779:7921   */\n      swap2\n      swap1\n      pop\n      jump\t// out\n        /* \"#utility.yul\":7927:8002   */\n    tag_104:\n        /* \"#utility.yul\":7970:7973   */\n      0x00\n        /* \"#utility.yul\":7991:7996   */\n      dup2\n        /* \"#utility.yul\":7984:7996   */\n      swap1\n      pop\n        /* \"#utility.yul\":7927:8002   */\n      swap2\n      swap1\n      pop\n      jump\t// out\n        /* \"#utility.yul\":8008:8277   */\n    tag_105:\n        /* \"#utility.yul\":8118:8157   */\n      tag_206\n        /* \"#utility.yul\":8149:8156   */\n      dup4\n        /* \"#utility.yul\":8118:8157   */\n      tag_103\n      jump\t// in\n    tag_206:\n        /* \"#utility.yul\":8179:8270   */\n      tag_207\n        /* \"#utility.yul\":8228:8269   */\n      tag_208\n        /* \"#utility.yul\":8252:8268   */\n      dup3\n        /* \"#utility.yul\":8228:8269   */\n      tag_104\n      jump\t// in\n    tag_208:\n        /* \"#utility.yul\":8220:8226   */\n      dup5\n        /* \"#utility.yul\":8213:8217   */\n      dup5\n        /* \"#utility.yul\":8207:8218   */\n      sload\n        /* \"#utility.yul\":8179:8270   */\n      tag_101\n      jump\t// in\n    tag_207:\n        /* \"#utility.yul\":8173:8177   */\n      dup3\n        /* \"#utility.yul\":8166:8271   */\n      sstore\n        /* \"#utility.yul\":8084:8277   */\n      pop\n        /* \"#utility.yul\":8008:8277   */\n      pop\n      pop\n      pop\n      jump\t// out\n        /* \"#utility.yul\":8283:8356   */\n    tag_106:\n        /* \"#utility.yul\":8328:8331   */\n      0x00\n        /* \"#utility.yul\":8283:8356   */\n      swap1\n      jump\t// out\n        /* \"#utility.yul\":8362:8551   */\n    tag_107:\n        /* \"#utility.yul\":8439:8471   */\n      tag_211\n      tag_106\n      jump\t// in\n    tag_211:\n        /* \"#utility.yul\":8480:8545   */\n      tag_212\n        /* \"#utility.yul\":8538:8544   */\n      dup2\n        /* \"#utility.yul\":8530:8536   */\n      dup5\n        /* \"#utility.yul\":8524:8528   */\n      dup5\n        /* \"#utility.yul\":8480:8545   */\n      tag_105\n      jump\t// in\n    tag_212:\n        /* \"#utility.yul\":8415:8551   */\n      pop\n        /* \"#utility.yul\":8362:8551   */\n      pop\n      pop\n      jump\t// out\n        /* \"#utility.yul\":8557:8743   */\n    tag_108:\n        /* \"#utility.yul\":8617:8737   */\n    tag_214:\n        /* \"#utility.yul\":8634:8637   */\n      dup2\n        /* \"#utility.yul\":8627:8632   */\n      dup2\n        /* \"#utility.yul\":8624:8638   */\n      lt\n        /* \"#utility.yul\":8617:8737   */\n      iszero\n      tag_216\n      jumpi\n        /* \"#utility.yul\":8688:8727   */\n      tag_217\n        /* \"#utility.yul\":8725:8726   */\n      0x00\n        /* \"#utility.yul\":8718:8723   */\n      dup3\n        /* \"#utility.yul\":8688:8727   */\n      tag_107\n      jump\t// in\n    tag_217:\n        /* \"#utility.yul\":8661:8662   */\n      0x01\n        /* \"#utility.yul\":8654:8659   */\n      dup2\n        /* \"#utility.yul\":8650:8663   */\n      add\n        /* \"#utility.yul\":8641:8663   */\n      swap1\n      pop\n        /* \"#utility.yul\":8617:8737   */\n      jump(tag_214)\n    tag_216:\n        /* \"#utility.yul\":8557:8743   */\n      pop\n      pop\n      jump\t// out\n        /* \"#utility.yul\":8749:9292   */\n    tag_109:\n        /* \"#utility.yul\":8850:8852   */\n      0x1f\n        /* \"#utility.yul\":8845:8848   */\n      dup3\n        /* \"#utility.yul\":8842:8853   */\n      gt\n        /* \"#utility.yul\":8839:9285   */\n      iszero\n      tag_219\n      jumpi\n        /* \"#utility.yul\":8884:8922   */\n      tag_220\n        /* \"#utility.yul\":8916:8921   */\n      dup2\n        /* \"#utility.yul\":8884:8922   */\n      tag_98\n      jump\t// in\n    tag_220:\n        /* \"#utility.yul\":8968:8997   */\n      tag_221\n        /* \"#utility.yul\":8986:8996   */\n      dup5\n        /* \"#utility.yul\":8968:8997   */\n      tag_99\n      jump\t// in\n    tag_221:\n        /* \"#utility.yul\":8958:8966   */\n      dup2\n        /* \"#utility.yul\":8954:8998   */\n      add\n        /* \"#utility.yul\":9151:9153   */\n      0x20\n        /* \"#utility.yul\":9139:9149   */\n      dup6\n        /* \"#utility.yul\":9136:9154   */\n      lt\n        /* \"#utility.yul\":9133:9182   */\n      iszero\n      tag_222\n      jumpi\n        /* \"#utility.yul\":9172:9180   */\n      dup2\n        /* \"#utility.yul\":9157:9180   */\n      swap1\n      pop\n        /* \"#utility.yul\":9133:9182   */\n    tag_222:\n        /* \"#utility.yul\":9195:9275   */\n      tag_223\n        /* \"#utility.yul\":9251:9273   */\n      tag_224\n        /* \"#utility.yul\":9269:9272   */\n      dup6\n        /* \"#utility.yul\":9251:9273   */\n      tag_99\n      jump\t// in\n    tag_224:\n        /* \"#utility.yul\":9241:9249   */\n      dup4\n        /* \"#utility.yul\":9237:9274   */\n      add\n        /* \"#utility.yul\":9224:9235   */\n      dup3\n        /* \"#utility.yul\":9195:9275   */\n      tag_108\n      jump\t// in\n    tag_223:\n        /* \"#utility.yul\":8854:9285   */\n      pop\n      pop\n        /* \"#utility.yul\":8839:9285   */\n    tag_219:\n        /* \"#utility.yul\":8749:9292   */\n      pop\n      pop\n      pop\n      jump\t// out\n        /* \"#utility.yul\":9298:9415   */\n    tag_110:\n        /* \"#utility.yul\":9352:9360   */\n      0x00\n        /* \"#utility.yul\":9402:9407   */\n      dup3\n        /* \"#utility.yul\":9396:9400   */\n      dup3\n        /* \"#utility.yul\":9392:9408   */\n      shr\n        /* \"#utility.yul\":9371:9408   */\n      swap1\n      pop\n        /* \"#utility.yul\":9298:9415   */\n      swap3\n      swap2\n      pop\n      pop\n      jump\t// out\n        /* \"#utility.yul\":9421:9590   */\n    tag_111:\n        /* \"#utility.yul\":9465:9471   */\n      0x00\n        /* \"#utility.yul\":9498:9549   */\n      tag_227\n        /* \"#utility.yul\":9546:9547   */\n      0x00\n        /* \"#utility.yul\":9542:9548   */\n      not\n        /* \"#utility.yul\":9534:9539   */\n      dup5\n        /* \"#utility.yul\":9531:9532   */\n      0x08\n        /* \"#utility.yul\":9527:9540   */\n      mul\n        /* \"#utility.yul\":9498:9549   */\n      tag_110\n      jump\t// in\n    tag_227:\n        /* \"#utility.yul\":9494:9550   */\n      not\n        /* \"#utility.yul\":9579:9583   */\n      dup1\n        /* \"#utility.yul\":9573:9577   */\n      dup4\n        /* \"#utility.yul\":9569:9584   */\n      and\n        /* \"#utility.yul\":9559:9584   */\n      swap2\n      pop\n        /* \"#utility.yul\":9472:9590   */\n      pop\n        /* \"#utility.yul\":9421:9590   */\n      swap3\n      swap2\n      pop\n      pop\n      jump\t// out\n        /* \"#utility.yul\":9595:9890   */\n    tag_112:\n        /* \"#utility.yul\":9671:9675   */\n      0x00\n        /* \"#utility.yul\":9817:9846   */\n      tag_229\n        /* \"#utility.yul\":9842:9845   */\n      dup4\n        /* \"#utility.yul\":9836:9840   */\n      dup4\n        /* \"#utility.yul\":9817:9846   */\n      tag_111\n      jump\t// in\n    tag_229:\n        /* \"#utility.yul\":9809:9846   */\n      swap2\n      pop\n        /* \"#utility.yul\":9879:9882   */\n      dup3\n        /* \"#utility.yul\":9876:9877   */\n      0x02\n        /* \"#utility.yul\":9872:9883   */\n      mul\n        /* \"#utility.yul\":9866:9870   */\n      dup3\n        /* \"#utility.yul\":9863:9884   */\n      or\n        /* \"#utility.yul\":9855:9884   */\n      swap1\n      pop\n        /* \"#utility.yul\":9595:9890   */\n      swap3\n      swap2\n      pop\n      pop\n      jump\t// out\n        /* \"#utility.yul\":9895:11290   */\n    tag_35:\n        /* \"#utility.yul\":10012:10049   */\n      tag_231\n        /* \"#utility.yul\":10045:10048   */\n      dup3\n        /* \"#utility.yul\":10012:10049   */\n      tag_92\n      jump\t// in\n    tag_231:\n        /* \"#utility.yul\":10114:10132   */\n      0xffffffffffffffff\n        /* \"#utility.yul\":10106:10112   */\n      dup2\n        /* \"#utility.yul\":10103:10133   */\n      gt\n        /* \"#utility.yul\":10100:10156   */\n      iszero\n      tag_232\n      jumpi\n        /* \"#utility.yul\":10136:10154   */\n      tag_233\n      tag_82\n      jump\t// in\n    tag_233:\n        /* \"#utility.yul\":10100:10156   */\n    tag_232:\n        /* \"#utility.yul\":10180:10218   */\n      tag_234\n        /* \"#utility.yul\":10212:10216   */\n      dup3\n        /* \"#utility.yul\":10206:10217   */\n      sload\n        /* \"#utility.yul\":10180:10218   */\n      tag_44\n      jump\t// in\n    tag_234:\n        /* \"#utility.yul\":10265:10332   */\n      tag_235\n        /* \"#utility.yul\":10325:10331   */\n      dup3\n        /* \"#utility.yul\":10317:10323   */\n      dup3\n        /* \"#utility.yul\":10311:10315   */\n      dup6\n        /* \"#utility.yul\":10265:10332   */\n      tag_109\n      jump\t// in\n    tag_235:\n        /* \"#utility.yul\":10359:10360   */\n      0x00\n        /* \"#utility.yul\":10383:10387   */\n      0x20\n        /* \"#utility.yul\":10370:10387   */\n      swap1\n      pop\n        /* \"#utility.yul\":10415:10417   */\n      0x1f\n        /* \"#utility.yul\":10407:10413   */\n      dup4\n        /* \"#utility.yul\":10404:10418   */\n      gt\n        /* \"#utility.yul\":10432:10433   */\n      0x01\n        /* \"#utility.yul\":10427:11045   */\n      dup2\n      eq\n      tag_237\n      jumpi\n        /* \"#utility.yul\":11089:11090   */\n      0x00\n        /* \"#utility.yul\":11106:11112   */\n      dup5\n        /* \"#utility.yul\":11103:11180   */\n      iszero\n      tag_238\n      jumpi\n        /* \"#utility.yul\":11155:11164   */\n      dup3\n        /* \"#utility.yul\":11150:11153   */\n      dup8\n        /* \"#utility.yul\":11146:11165   */\n      add\n        /* \"#utility.yul\":11140:11166   */\n      mload\n        /* \"#utility.yul\":11131:11166   */\n      swap1\n      pop\n        /* \"#utility.yul\":11103:11180   */\n    tag_238:\n        /* \"#utility.yul\":11206:11273   */\n      tag_239\n        /* \"#utility.yul\":11266:11272   */\n      dup6\n        /* \"#utility.yul\":11259:11264   */\n      dup3\n        /* \"#utility.yul\":11206:11273   */\n      tag_112\n      jump\t// in\n    tag_239:\n        /* \"#utility.yul\":11200:11204   */\n      dup7\n        /* \"#utility.yul\":11193:11274   */\n      sstore\n        /* \"#utility.yul\":11062:11284   */\n      pop\n        /* \"#utility.yul\":10397:11284   */\n      jump(tag_236)\n        /* \"#utility.yul\":10427:11045   */\n    tag_237:\n        /* \"#utility.yul\":10479:10483   */\n      0x1f\n        /* \"#utility.yul\":10475:10484   */\n      not\n        /* \"#utility.yul\":10467:10473   */\n      dup5\n        /* \"#utility.yul\":10463:10485   */\n      and\n        /* \"#utility.yul\":10513:10550   */\n      tag_240\n        /* \"#utility.yul\":10545:10549   */\n      dup7\n        /* \"#utility.yul\":10513:10550   */\n      tag_98\n      jump\t// in\n    tag_240:\n        /* \"#utility.yul\":10572:10573   */\n      0x00\n        /* \"#utility.yul\":10586:10794   */\n    tag_241:\n        /* \"#utility.yul\":10600:10607   */\n      dup3\n        /* \"#utility.yul\":10597:10598   */\n      dup2\n        /* \"#utility.yul\":10594:10608   */\n      lt\n        /* \"#utility.yul\":10586:10794   */\n      iszero\n      tag_243\n      jumpi\n        /* \"#utility.yul\":10679:10688   */\n      dup5\n        /* \"#utility.yul\":10674:10677   */\n      dup10\n        /* \"#utility.yul\":10670:10689   */\n      add\n        /* \"#utility.yul\":10664:10690   */\n      mload\n        /* \"#utility.yul\":10656:10662   */\n      dup3\n        /* \"#utility.yul\":10649:10691   */\n      sstore\n        /* \"#utility.yul\":10730:10731   */\n      0x01\n        /* \"#utility.yul\":10722:10728   */\n      dup3\n        /* \"#utility.yul\":10718:10732   */\n      add\n        /* \"#utility.yul\":10708:10732   */\n      swap2\n      pop\n        /* \"#utility.yul\":10777:10779   */\n      0x20\n        /* \"#utility.yul\":10766:10775   */\n      dup6\n        /* \"#utility.yul\":10762:10780   */\n      add\n        /* \"#utility.yul\":10749:10780   */\n      swap5\n      pop\n        /* \"#utility.yul\":10623:10627   */\n      0x20\n        /* \"#utility.yul\":10620:10621   */\n      dup2\n        /* \"#utility.yul\":10616:10628   */\n      add\n        /* \"#utility.yul\":10611:10628   */\n      swap1\n      pop\n        /* \"#utility.yul\":10586:10794   */\n      jump(tag_241)\n    tag_243:\n        /* \"#utility.yul\":10822:10828   */\n      dup7\n        /* \"#utility.yul\":10813:10820   */\n      dup4\n        /* \"#utility.yul\":10810:10829   */\n      lt\n        /* \"#utility.yul\":10807:10986   */\n      iszero\n      tag_244\n      jumpi\n        /* \"#utility.yul\":10880:10889   */\n      dup5\n        /* \"#utility.yul\":10875:10878   */\n      dup10\n        /* \"#utility.yul\":10871:10890   */\n      add\n        /* \"#utility.yul\":10865:10891   */\n      mload\n        /* \"#utility.yul\":10923:10971   */\n      tag_245\n        /* \"#utility.yul\":10965:10969   */\n      0x1f\n        /* \"#utility.yul\":10957:10963   */\n      dup10\n        /* \"#utility.yul\":10953:10970   */\n      and\n        /* \"#utility.yul\":10942:10951   */\n      dup3\n        /* \"#utility.yul\":10923:10971   */\n      tag_111\n      jump\t// in\n    tag_245:\n        /* \"#utility.yul\":10915:10921   */\n      dup4\n        /* \"#utility.yul\":10908:10972   */\n      sstore\n        /* \"#utility.yul\":10830:10986   */\n      pop\n        /* \"#utility.yul\":10807:10986   */\n    tag_244:\n        /* \"#utility.yul\":11032:11033   */\n      0x01\n        /* \"#utility.yul\":11028:11029   */\n      0x02\n        /* \"#utility.yul\":11020:11026   */\n      dup9\n        /* \"#utility.yul\":11016:11030   */\n      mul\n        /* \"#utility.yul\":11012:11034   */\n      add\n        /* \"#utility.yul\":11006:11010   */\n      dup9\n        /* \"#utility.yul\":10999:11035   */\n      sstore\n        /* \"#utility.yul\":10434:11045   */\n      pop\n      pop\n      pop\n        /* \"#utility.yul\":10397:11284   */\n    tag_236:\n      pop\n        /* \"#utility.yul\":9987:11290   */\n      pop\n      pop\n      pop\n        /* \"#utility.yul\":9895:11290   */\n      pop\n      pop\n      jump\t// out\n        /* \"#utility.yul\":11296:11445   */\n    tag_113:\n        /* \"#utility.yul\":11345:11351   */\n      0x00\n        /* \"#utility.yul\":11379:11384   */\n      dup2\n        /* \"#utility.yul\":11373:11385   */\n      sload\n        /* \"#utility.yul\":11363:11385   */\n      swap1\n      pop\n        /* \"#utility.yul\":11405:11438   */\n      tag_247\n        /* \"#utility.yul\":11431:11437   */\n      dup2\n        /* \"#utility.yul\":11405:11438   */\n      tag_44\n      jump\t// in\n    tag_247:\n        /* \"#utility.yul\":11395:11438   */\n      swap1\n      pop\n        /* \"#utility.yul\":11296:11445   */\n      swap2\n      swap1\n      pop\n      jump\t// out\n        /* \"#utility.yul\":11451:12902   */\n    tag_40:\n        /* \"#utility.yul\":11562:11565   */\n      dup2\n        /* \"#utility.yul\":11556:11560   */\n      dup2\n        /* \"#utility.yul\":11553:11566   */\n      sub\n        /* \"#utility.yul\":11550:11576   */\n      tag_249\n      jumpi\n        /* \"#utility.yul\":11569:11574   */\n      pop\n      pop\n      jump(tag_248)\n        /* \"#utility.yul\":11550:11576   */\n    tag_249:\n        /* \"#utility.yul\":11600:11634   */\n      tag_250\n        /* \"#utility.yul\":11630:11633   */\n      dup3\n        /* \"#utility.yul\":11600:11634   */\n      tag_113\n      jump\t// in\n    tag_250:\n        /* \"#utility.yul\":11699:11717   */\n      0xffffffffffffffff\n        /* \"#utility.yul\":11691:11697   */\n      dup2\n        /* \"#utility.yul\":11688:11718   */\n      gt\n        /* \"#utility.yul\":11685:11741   */\n      iszero\n      tag_251\n      jumpi\n        /* \"#utility.yul\":11721:11739   */\n      tag_252\n      tag_82\n      jump\t// in\n    tag_252:\n        /* \"#utility.yul\":11685:11741   */\n    tag_251:\n        /* \"#utility.yul\":11765:11803   */\n      tag_253\n        /* \"#utility.yul\":11797:11801   */\n      dup3\n        /* \"#utility.yul\":11791:11802   */\n      sload\n        /* \"#utility.yul\":11765:11803   */\n      tag_44\n      jump\t// in\n    tag_253:\n        /* \"#utility.yul\":11850:11917   */\n      tag_254\n        /* \"#utility.yul\":11910:11916   */\n      dup3\n        /* \"#utility.yul\":11902:11908   */\n      dup3\n        /* \"#utility.yul\":11896:11900   */\n      dup6\n        /* \"#utility.yul\":11850:11917   */\n      tag_109\n      jump\t// in\n    tag_254:\n        /* \"#utility.yul\":11944:11945   */\n      0x00\n        /* \"#utility.yul\":11973:11975   */\n      0x1f\n        /* \"#utility.yul\":11965:11971   */\n      dup4\n        /* \"#utility.yul\":11962:11976   */\n      gt\n        /* \"#utility.yul\":11990:11991   */\n      0x01\n        /* \"#utility.yul\":11985:12657   */\n      dup2\n      eq\n      tag_256\n      jumpi\n        /* \"#utility.yul\":12701:12702   */\n      0x00\n        /* \"#utility.yul\":12718:12724   */\n      dup5\n        /* \"#utility.yul\":12715:12792   */\n      iszero\n      tag_257\n      jumpi\n        /* \"#utility.yul\":12767:12776   */\n      dup3\n        /* \"#utility.yul\":12762:12765   */\n      dup8\n        /* \"#utility.yul\":12758:12777   */\n      add\n        /* \"#utility.yul\":12752:12778   */\n      sload\n        /* \"#utility.yul\":12743:12778   */\n      swap1\n      pop\n        /* \"#utility.yul\":12715:12792   */\n    tag_257:\n        /* \"#utility.yul\":12818:12885   */\n      tag_258\n        /* \"#utility.yul\":12878:12884   */\n      dup6\n        /* \"#utility.yul\":12871:12876   */\n      dup3\n        /* \"#utility.yul\":12818:12885   */\n      tag_112\n      jump\t// in\n    tag_258:\n        /* \"#utility.yul\":12812:12816   */\n      dup7\n        /* \"#utility.yul\":12805:12886   */\n      sstore\n        /* \"#utility.yul\":12674:12896   */\n      pop\n        /* \"#utility.yul\":11955:12896   */\n      jump(tag_255)\n        /* \"#utility.yul\":11985:12657   */\n    tag_256:\n        /* \"#utility.yul\":12037:12041   */\n      0x1f\n        /* \"#utility.yul\":12033:12042   */\n      not\n        /* \"#utility.yul\":12025:12031   */\n      dup5\n        /* \"#utility.yul\":12021:12043   */\n      and\n        /* \"#utility.yul\":12063:12099   */\n      tag_259\n        /* \"#utility.yul\":12095:12098   */\n      dup8\n        /* \"#utility.yul\":12063:12099   */\n      tag_98\n      jump\t// in\n    tag_259:\n        /* \"#utility.yul\":12056:12099   */\n      swap7\n      pop\n        /* \"#utility.yul\":12126:12163   */\n      tag_260\n        /* \"#utility.yul\":12158:12162   */\n      dup7\n        /* \"#utility.yul\":12126:12163   */\n      tag_98\n      jump\t// in\n    tag_260:\n        /* \"#utility.yul\":12185:12186   */\n      0x00\n        /* \"#utility.yul\":12199:12406   */\n    tag_261:\n        /* \"#utility.yul\":12213:12220   */\n      dup3\n        /* \"#utility.yul\":12210:12211   */\n      dup2\n        /* \"#utility.yul\":12207:12221   */\n      lt\n        /* \"#utility.yul\":12199:12406   */\n      iszero\n      tag_263\n      jumpi\n        /* \"#utility.yul\":12292:12301   */\n      dup5\n        /* \"#utility.yul\":12287:12290   */\n      dup10\n        /* \"#utility.yul\":12283:12302   */\n      add\n        /* \"#utility.yul\":12277:12303   */\n      sload\n        /* \"#utility.yul\":12269:12275   */\n      dup3\n        /* \"#utility.yul\":12262:12304   */\n      sstore\n        /* \"#utility.yul\":12343:12344   */\n      0x01\n        /* \"#utility.yul\":12335:12341   */\n      dup3\n        /* \"#utility.yul\":12331:12345   */\n      add\n        /* \"#utility.yul\":12321:12345   */\n      swap2\n      pop\n        /* \"#utility.yul\":12390:12391   */\n      0x01\n        /* \"#utility.yul\":12379:12388   */\n      dup6\n        /* \"#utility.yul\":12375:12392   */\n      add\n        /* \"#utility.yul\":12362:12392   */\n      swap5\n      pop\n        /* \"#utility.yul\":12236:12240   */\n      0x20\n        /* \"#utility.yul\":12233:12234   */\n      dup2\n        /* \"#utility.yul\":12229:12241   */\n      add\n        /* \"#utility.yul\":12224:12241   */\n      swap1\n      pop\n        /* \"#utility.yul\":12199:12406   */\n      jump(tag_261)\n    tag_263:\n        /* \"#utility.yul\":12434:12440   */\n      dup7\n        /* \"#utility.yul\":12425:12432   */\n      dup4\n        /* \"#utility.yul\":12422:12441   */\n      lt\n        /* \"#utility.yul\":12419:12598   */\n      iszero\n      tag_264\n      jumpi\n        /* \"#utility.yul\":12492:12501   */\n      dup5\n        /* \"#utility.yul\":12487:12490   */\n      dup10\n        /* \"#utility.yul\":12483:12502   */\n      add\n        /* \"#utility.yul\":12477:12503   */\n      sload\n        /* \"#utility.yul\":12535:12583   */\n      tag_265\n        /* \"#utility.yul\":12577:12581   */\n      0x1f\n        /* \"#utility.yul\":12569:12575   */\n      dup10\n        /* \"#utility.yul\":12565:12582   */\n      and\n        /* \"#utility.yul\":12554:12563   */\n      dup3\n        /* \"#utility.yul\":12535:12583   */\n      tag_111\n      jump\t// in\n    tag_265:\n        /* \"#utility.yul\":12527:12533   */\n      dup4\n        /* \"#utility.yul\":12520:12584   */\n      sstore\n        /* \"#utility.yul\":12442:12598   */\n      pop\n        /* \"#utility.yul\":12419:12598   */\n    tag_264:\n        /* \"#utility.yul\":12644:12645   */\n      0x01\n        /* \"#utility.yul\":12640:12641   */\n      0x02\n        /* \"#utility.yul\":12632:12638   */\n      dup9\n        /* \"#utility.yul\":12628:12642   */\n      mul\n        /* \"#utility.yul\":12624:12646   */\n      add\n        /* \"#utility.yul\":12618:12622   */\n      dup9\n        /* \"#utility.yul\":12611:12647   */\n      sstore\n        /* \"#utility.yul\":11992:12657   */\n      pop\n      pop\n      pop\n        /* \"#utility.yul\":11955:12896   */\n    tag_255:\n      pop\n        /* \"#utility.yul\":11540:12902   */\n      pop\n      pop\n      pop\n        /* \"#utility.yul\":11451:12902   */\n      pop\n      pop\n    tag_248:\n      jump\t// out\n\n    auxdata: 0xa264697066735822122040022cbfc32727552bb023c9e58c8dc8e98811ba4f97376dc196db9a0bc32fa164736f6c634300081a0033\n}\n",
				"bytecode": {
					"linkReferences": {},
					"object": "6080604052348015600e575f80fd5b50610c808061001c5f395ff3fe608060405234801561000f575f80fd5b5060043610610055575f3560e01c80634e3248471461005957806358c2d469146100755780639507d39a146100a6578063e34f1221146100d7578063ebc218a7146100f3575b5f80fd5b610073600480360381019061006e91906106df565b61010f565b005b61008f600480360381019061008a919061074b565b6101c4565b60405161009d9291906107e5565b60405180910390f35b6100c060048036038101906100bb919061074b565b610284565b6040516100ce9291906107e5565b60405180910390f35b6100f160048036038101906100ec9190610813565b610351565b005b61010d6004803603810190610108919061074b565b61045c565b005b5f8084815481106101235761012261085a565b5b905f5260205f209060020201905082815f0190816101419190610a81565b5081816001015f6101000a81548160ff021916908315150217905550805f85815481106101715761017061085a565b5b905f5260205f2090600202015f8201815f01908161018f9190610b65565b50600182015f9054906101000a900460ff16816001015f6101000a81548160ff02191690831515021790555090505050505050565b5f81815481106101d2575f80fd5b905f5260205f2090600202015f91509050805f0180546101f1906108b4565b80601f016020809104026020016040519081016040528092919081815260200182805461021d906108b4565b80156102685780601f1061023f57610100808354040283529160200191610268565b820191905f5260205f20905b81548152906001019060200180831161024b57829003601f168201915b505050505090806001015f9054906101000a900460ff16905082565b60605f805f848154811061029b5761029a61085a565b5b905f5260205f2090600202019050805f01816001015f9054906101000a900460ff168180546102c9906108b4565b80601f01602080910402602001604051908101604052809291908181526020018280546102f5906108b4565b80156103405780601f1061031757610100808354040283529160200191610340565b820191905f5260205f20905b81548152906001019060200180831161032357829003601f168201915b505050505091509250925050915091565b5f60405180604001604052808381526020015f1515815250908060018154018082558091505060019003905f5260205f2090600202015f909190919091505f820151815f0190816103a29190610a81565b506020820151816001015f6101000a81548160ff02191690831515021790555050505f604051806040016040528083815260200160011515815250908060018154018082558091505060019003905f5260205f2090600202015f909190919091505f820151815f0190816104169190610a81565b506020820151816001015f6101000a81548160ff021916908315150217905550505061044061050f565b81815f01819052505f8160200190151590811515815250505050565b5f8082815481106104705761046f61085a565b5b905f5260205f2090600202019050806001015f9054906101000a900460ff1615816001015f6101000a81548160ff021916908315150217905550805f83815481106104be576104bd61085a565b5b905f5260205f2090600202015f8201815f0190816104dc9190610b65565b50600182015f9054906101000a900460ff16816001015f6101000a81548160ff0219169083151502179055509050505050565b6040518060400160405280606081526020015f151581525090565b5f604051905090565b5f80fd5b5f80fd5b5f819050919050565b61054d8161053b565b8114610557575f80fd5b50565b5f8135905061056881610544565b92915050565b5f80fd5b5f80fd5b5f601f19601f8301169050919050565b7f4e487b71000000000000000000000000000000000000000000000000000000005f52604160045260245ffd5b6105bc82610576565b810181811067ffffffffffffffff821117156105db576105da610586565b5b80604052505050565b5f6105ed61052a565b90506105f982826105b3565b919050565b5f67ffffffffffffffff82111561061857610617610586565b5b61062182610576565b9050602081019050919050565b828183375f83830152505050565b5f61064e610649846105fe565b6105e4565b90508281526020810184848401111561066a57610669610572565b5b61067584828561062e565b509392505050565b5f82601f8301126106915761069061056e565b5b81356106a184826020860161063c565b91505092915050565b5f8115159050919050565b6106be816106aa565b81146106c8575f80fd5b50565b5f813590506106d9816106b5565b92915050565b5f805f606084860312156106f6576106f5610533565b5b5f6107038682870161055a565b935050602084013567ffffffffffffffff81111561072457610723610537565b5b6107308682870161067d565b9250506040610741868287016106cb565b9150509250925092565b5f602082840312156107605761075f610533565b5b5f61076d8482850161055a565b91505092915050565b5f81519050919050565b5f82825260208201905092915050565b8281835e5f83830152505050565b5f6107a882610776565b6107b28185610780565b93506107c2818560208601610790565b6107cb81610576565b840191505092915050565b6107df816106aa565b82525050565b5f6040820190508181035f8301526107fd818561079e565b905061080c60208301846107d6565b9392505050565b5f6020828403121561082857610827610533565b5b5f82013567ffffffffffffffff81111561084557610844610537565b5b6108518482850161067d565b91505092915050565b7f4e487b71000000000000000000000000000000000000000000000000000000005f52603260045260245ffd5b7f4e487b71000000000000000000000000000000000000000000000000000000005f52602260045260245ffd5b5f60028204905060018216806108cb57607f821691505b6020821081036108de576108dd610887565b5b50919050565b5f819050815f5260205f209050919050565b5f6020601f8301049050919050565b5f82821b905092915050565b5f600883026109407fffffffffffffffffffffffffffffffffffffffffffffffffffffffffffffffff82610905565b61094a8683610905565b95508019841693508086168417925050509392505050565b5f819050919050565b5f61098561098061097b8461053b565b610962565b61053b565b9050919050565b5f819050919050565b61099e8361096b565b6109b26109aa8261098c565b848454610911565b825550505050565b5f90565b6109c66109ba565b6109d1818484610995565b505050565b5b818110156109f4576109e95f826109be565b6001810190506109d7565b5050565b601f821115610a3957610a0a816108e4565b610a13846108f6565b81016020851015610a22578190505b610a36610a2e856108f6565b8301826109d6565b50505b505050565b5f82821c905092915050565b5f610a595f1984600802610a3e565b1980831691505092915050565b5f610a718383610a4a565b9150826002028217905092915050565b610a8a82610776565b67ffffffffffffffff811115610aa357610aa2610586565b5b610aad82546108b4565b610ab88282856109f8565b5f60209050601f831160018114610ae9575f8415610ad7578287015190505b610ae18582610a66565b865550610b48565b601f198416610af7866108e4565b5f5b82811015610b1e57848901518255600182019150602085019450602081019050610af9565b86831015610b3b5784890151610b37601f891682610a4a565b8355505b6001600288020188555050505b505050505050565b5f81549050610b5e816108b4565b9050919050565b818103610b73575050610c48565b610b7c82610b50565b67ffffffffffffffff811115610b9557610b94610586565b5b610b9f82546108b4565b610baa8282856109f8565b5f601f831160018114610bd7575f8415610bc5578287015490505b610bcf8582610a66565b865550610c41565b601f198416610be5876108e4565b9650610bf0866108e4565b5f5b82811015610c1757848901548255600182019150600185019450602081019050610bf2565b86831015610c345784890154610c30601f891682610a4a565b8355505b6001600288020188555050505b5050505050505b56fea264697066735822122040022cbfc32727552bb023c9e58c8dc8e98811ba4f97376dc196db9a0bc32fa164736f6c634300081a0033",
					"opcodes": "PUSH1 0x80 PUSH1 0x40 MSTORE CALLVALUE DUP1 ISZERO PUSH1 0xE JUMPI PUSH0 DUP1 REVERT JUMPDEST POP PUSH2 0xC80 DUP1 PUSH2 0x1C PUSH0 CODECOPY PUSH0 RETURN INVALID PUSH1 0x80 PUSH1 0x40 MSTORE CALLVALUE DUP1 ISZERO PUSH2 0xF JUMPI PUSH0 DUP1 REVERT JUMPDEST POP PUSH1 0x4 CALLDATASIZE LT PUSH2 0x55 JUMPI PUSH0 CALLDATALOAD PUSH1 0xE0 SHR DUP1 PUSH4 0x4E324847 EQ PUSH2 0x59 JUMPI DUP1 PUSH4 0x58C2D469 EQ PUSH2 0x75 JUMPI DUP1 PUSH4 0x9507D39A EQ PUSH2 0xA6 JUMPI DUP1 PUSH4 0xE34F1221 EQ PUSH2 0xD7 JUMPI DUP1 PUSH4 0xEBC218A7 EQ PUSH2 0xF3 JUMPI JUMPDEST PUSH0 DUP1 REVERT JUMPDEST PUSH2 0x73 PUSH1 0x4 DUP1 CALLDATASIZE SUB DUP2 ADD SWAP1 PUSH2 0x6E SWAP2 SWAP1 PUSH2 0x6DF JUMP JUMPDEST PUSH2 0x10F JUMP JUMPDEST STOP JUMPDEST PUSH2 0x8F PUSH1 0x4 DUP1 CALLDATASIZE SUB DUP2 ADD SWAP1 PUSH2 0x8A SWAP2 SWAP1 PUSH2 0x74B JUMP JUMPDEST PUSH2 0x1C4 JUMP JUMPDEST PUSH1 0x40 MLOAD PUSH2 0x9D SWAP3 SWAP2 SWAP1 PUSH2 0x7E5 JUMP JUMPDEST PUSH1 0x40 MLOAD DUP1 SWAP2 SUB SWAP1 RETURN JUMPDEST PUSH2 0xC0 PUSH1 0x4 DUP1 CALLDATASIZE SUB DUP2 ADD SWAP1 PUSH2 0xBB SWAP2 SWAP1 PUSH2 0x74B JUMP JUMPDEST PUSH2 0x284 JUMP JUMPDEST PUSH1 0x40 MLOAD PUSH2 0xCE SWAP3 SWAP2 SWAP1 PUSH2 0x7E5 JUMP JUMPDEST PUSH1 0x40 MLOAD DUP1 SWAP2 SUB SWAP1 RETURN JUMPDEST PUSH2 0xF1 PUSH1 0x4 DUP1 CALLDATASIZE SUB DUP2 ADD SWAP1 PUSH2 0xEC SWAP2 SWAP1 PUSH2 0x813 JUMP JUMPDEST PUSH2 0x351 JUMP JUMPDEST STOP JUMPDEST PUSH2 0x10D PUSH1 0x4 DUP1 CALLDATASIZE SUB DUP2 ADD SWAP1 PUSH2 0x108 SWAP2 SWAP1 PUSH2 0x74B JUMP JUMPDEST PUSH2 0x45C JUMP JUMPDEST STOP JUMPDEST PUSH0 DUP1 DUP5 DUP2 SLOAD DUP2 LT PUSH2 0x123 JUMPI PUSH2 0x122 PUSH2 0x85A JUMP JUMPDEST JUMPDEST SWAP1 PUSH0 MSTORE PUSH1 0x20 PUSH0 KECCAK256 SWAP1 PUSH1 0x2 MUL ADD SWAP1 POP DUP3 DUP2 PUSH0 ADD SWAP1 DUP2 PUSH2 0x141 SWAP2 SWAP1 PUSH2 0xA81 JUMP JUMPDEST POP DUP2 DUP2 PUSH1 0x1 ADD PUSH0 PUSH2 0x100 EXP DUP2 SLOAD DUP2 PUSH1 0xFF MUL NOT AND SWAP1 DUP4 ISZERO ISZERO MUL OR SWAP1 SSTORE POP DUP1 PUSH0 DUP6 DUP2 SLOAD DUP2 LT PUSH2 0x171 JUMPI PUSH2 0x170 PUSH2 0x85A JUMP JUMPDEST JUMPDEST SWAP1 PUSH0 MSTORE PUSH1 0x20 PUSH0 KECCAK256 SWAP1 PUSH1 0x2 MUL ADD PUSH0 DUP3 ADD DUP2 PUSH0 ADD SWAP1 DUP2 PUSH2 0x18F SWAP2 SWAP1 PUSH2 0xB65 JUMP JUMPDEST POP PUSH1 0x1 DUP3 ADD PUSH0 SWAP1 SLOAD SWAP1 PUSH2 0x100 EXP SWAP1 DIV PUSH1 0xFF AND DUP2 PUSH1 0x1 ADD PUSH0 PUSH2 0x100 EXP DUP2 SLOAD DUP2 PUSH1 0xFF MUL NOT AND SWAP1 DUP4 ISZERO ISZERO MUL OR SWAP1 SSTORE POP SWAP1 POP POP POP POP POP POP JUMP JUMPDEST PUSH0 DUP2 DUP2 SLOAD DUP2 LT PUSH2 0x1D2 JUMPI PUSH0 DUP1 REVERT JUMPDEST SWAP1 PUSH0 MSTORE PUSH1 0x20 PUSH0 KECCAK256 SWAP1 PUSH1 0x2 MUL ADD PUSH0 SWAP2 POP SWAP1 POP DUP1 PUSH0 ADD DUP1 SLOAD PUSH2 0x1F1 SWAP1 PUSH2 0x8B4 JUMP JUMPDEST DUP1 PUSH1 0x1F ADD PUSH1 0x20 DUP1 SWAP2 DIV MUL PUSH1 0x20 ADD PUSH1 0x40 MLOAD SWAP1 DUP2 ADD PUSH1 0x40 MSTORE DUP1 SWAP3 SWAP2 SWAP1 DUP2 DUP2 MSTORE PUSH1 0x20 ADD DUP3 DUP1 SLOAD PUSH2 0x21D SWAP1 PUSH2 0x8B4 JUMP JUMPDEST DUP1 ISZERO PUSH2 0x268 JUMPI DUP1 PUSH1 0x1F LT PUSH2 0x23F JUMPI PUSH2 0x100 DUP1 DUP4 SLOAD DIV MUL DUP4 MSTORE SWAP2 PUSH1 0x20 ADD SWAP2 PUSH2 0x268 JUMP JUMPDEST DUP3 ADD SWAP2 SWAP1 PUSH0 MSTORE PUSH1 0x20 PUSH0 KECCAK256 SWAP1 JUMPDEST DUP2 SLOAD DUP2 MSTORE SWAP1 PUSH1 0x1 ADD SWAP1 PUSH1 0x20 ADD DUP1 DUP4 GT PUSH2 0x24B JUMPI DUP3 SWAP1 SUB PUSH1 0x1F AND DUP3 ADD SWAP2 JUMPDEST POP POP POP POP POP SWAP1 DUP1 PUSH1 0x1 ADD PUSH0 SWAP1 SLOAD SWAP1 PUSH2 0x100 EXP SWAP1 DIV PUSH1 0xFF AND SWAP1 POP DUP3 JUMP JUMPDEST PUSH1 0x60 PUSH0 DUP1 PUSH0 DUP5 DUP2 SLOAD DUP2 LT PUSH2 0x29B JUMPI PUSH2 0x29A PUSH2 0x85A JUMP JUMPDEST JUMPDEST SWAP1 PUSH0 MSTORE PUSH1 0x20 PUSH0 KECCAK256 SWAP1 PUSH1 0x2 MUL ADD SWAP1 POP DUP1 PUSH0 ADD DUP2 PUSH1 0x1 ADD PUSH0 SWAP1 SLOAD SWAP1 PUSH2 0x100 EXP SWAP1 DIV PUSH1 0xFF AND DUP2 DUP1 SLOAD PUSH2 0x2C9 SWAP1 PUSH2 0x8B4 JUMP JUMPDEST DUP1 PUSH1 0x1F ADD PUSH1 0x20 DUP1 SWAP2 DIV MUL PUSH1 0x20 ADD PUSH1 0x40 MLOAD SWAP1 DUP2 ADD PUSH1 0x40 MSTORE DUP1 SWAP3 SWAP2 SWAP1 DUP2 DUP2 MSTORE PUSH1 0x20 ADD DUP3 DUP1 SLOAD PUSH2 0x2F5 SWAP1 PUSH2 0x8B4 JUMP JUMPDEST DUP1 ISZERO PUSH2 0x340 JUMPI DUP1 PUSH1 0x1F LT PUSH2 0x317 JUMPI PUSH2 0x100 DUP1 DUP4 SLOAD DIV MUL DUP4 MSTORE SWAP2 PUSH1 0x20 ADD SWAP2 PUSH2 0x340 JUMP JUMPDEST DUP3 ADD SWAP2 SWAP1 PUSH0 MSTORE PUSH1 0x20 PUSH0 KECCAK256 SWAP1 JUMPDEST DUP2 SLOAD DUP2 MSTORE SWAP1 PUSH1 0x1 ADD SWAP1 PUSH1 0x20 ADD DUP1 DUP4 GT PUSH2 0x323 JUMPI DUP3 SWAP1 SUB PUSH1 0x1F AND DUP3 ADD SWAP2 JUMPDEST POP POP POP POP POP SWAP2 POP SWAP3 POP SWAP3 POP POP SWAP2 POP SWAP2 JUMP JUMPDEST PUSH0 PUSH1 0x40 MLOAD DUP1 PUSH1 0x40 ADD PUSH1 0x40 MSTORE DUP1 DUP4 DUP2 MSTORE PUSH1 0x20 ADD PUSH0 ISZERO ISZERO DUP2 MSTORE POP SWAP1 DUP1 PUSH1 0x1 DUP2 SLOAD ADD DUP1 DUP3 SSTORE DUP1 SWAP2 POP POP PUSH1 0x1 SWAP1 SUB SWAP1 PUSH0 MSTORE PUSH1 0x20 PUSH0 KECCAK256 SWAP1 PUSH1 0x2 MUL ADD PUSH0 SWAP1 SWAP2 SWAP1 SWAP2 SWAP1 SWAP2 POP PUSH0 DUP3 ADD MLOAD DUP2 PUSH0 ADD SWAP1 DUP2 PUSH2 0x3A2 SWAP2 SWAP1 PUSH2 0xA81 JUMP JUMPDEST POP PUSH1 0x20 DUP3 ADD MLOAD DUP2 PUSH1 0x1 ADD PUSH0 PUSH2 0x100 EXP DUP2 SLOAD DUP2 PUSH1 0xFF MUL NOT AND SWAP1 DUP4 ISZERO ISZERO MUL OR SWAP1 SSTORE POP POP POP PUSH0 PUSH1 0x40 MLOAD DUP1 PUSH1 0x40 ADD PUSH1 0x40 MSTORE DUP1 DUP4 DUP2 MSTORE PUSH1 0x20 ADD PUSH1 0x1 ISZERO ISZERO DUP2 MSTORE POP SWAP1 DUP1 PUSH1 0x1 DUP2 SLOAD ADD DUP1 DUP3 SSTORE DUP1 SWAP2 POP POP PUSH1 0x1 SWAP1 SUB SWAP1 PUSH0 MSTORE PUSH1 0x20 PUSH0 KECCAK256 SWAP1 PUSH1 0x2 MUL ADD PUSH0 SWAP1 SWAP2 SWAP1 SWAP2 SWAP1 SWAP2 POP PUSH0 DUP3 ADD MLOAD DUP2 PUSH0 ADD SWAP1 DUP2 PUSH2 0x416 SWAP2 SWAP1 PUSH2 0xA81 JUMP JUMPDEST POP PUSH1 0x20 DUP3 ADD MLOAD DUP2 PUSH1 0x1 ADD PUSH0 PUSH2 0x100 EXP DUP2 SLOAD DUP2 PUSH1 0xFF MUL NOT AND SWAP1 DUP4 ISZERO ISZERO MUL OR SWAP1 SSTORE POP POP POP PUSH2 0x440 PUSH2 0x50F JUMP JUMPDEST DUP2 DUP2 PUSH0 ADD DUP2 SWAP1 MSTORE POP PUSH0 DUP2 PUSH1 0x20 ADD SWAP1 ISZERO ISZERO SWAP1 DUP2 ISZERO ISZERO DUP2 MSTORE POP POP POP POP JUMP JUMPDEST PUSH0 DUP1 DUP3 DUP2 SLOAD DUP2 LT PUSH2 0x470 JUMPI PUSH2 0x46F PUSH2 0x85A JUMP JUMPDEST JUMPDEST SWAP1 PUSH0 MSTORE PUSH1 0x20 PUSH0 KECCAK256 SWAP1 PUSH1 0x2 MUL ADD SWAP1 POP DUP1 PUSH1 0x1 ADD PUSH0 SWAP1 SLOAD SWAP1 PUSH2 0x100 EXP SWAP1 DIV PUSH1 0xFF AND ISZERO DUP2 PUSH1 0x1 ADD PUSH0 PUSH2 0x100 EXP DUP2 SLOAD DUP2 PUSH1 0xFF MUL NOT AND SWAP1 DUP4 ISZERO ISZERO MUL OR SWAP1 SSTORE POP DUP1 PUSH0 DUP4 DUP2 SLOAD DUP2 LT PUSH2 0x4BE JUMPI PUSH2 0x4BD PUSH2 0x85A JUMP JUMPDEST JUMPDEST SWAP1 PUSH0 MSTORE PUSH1 0x20 PUSH0 KECCAK256 SWAP1 PUSH1 0x2 MUL ADD PUSH0 DUP3 ADD DUP2 PUSH0 ADD SWAP1 DUP2 PUSH2 0x4DC SWAP2 SWAP1 PUSH2 0xB65 JUMP JUMPDEST POP PUSH1 0x1 DUP3 ADD PUSH0 SWAP1 SLOAD SWAP1 PUSH2 0x100 EXP SWAP1 DIV PUSH1 0xFF AND DUP2 PUSH1 0x1 ADD PUSH0 PUSH2 0x100 EXP DUP2 SLOAD DUP2 PUSH1 0xFF MUL NOT AND SWAP1 DUP4 ISZERO ISZERO MUL OR SWAP1 SSTORE POP SWAP1 POP POP POP POP JUMP JUMPDEST PUSH1 0x40 MLOAD DUP1 PUSH1 0x40 ADD PUSH1 0x40 MSTORE DUP1 PUSH1 0x60 DUP2 MSTORE PUSH1 0x20 ADD PUSH0 ISZERO ISZERO DUP2 MSTORE POP SWAP1 JUMP JUMPDEST PUSH0 PUSH1 0x40 MLOAD SWAP1 POP SWAP1 JUMP JUMPDEST PUSH0 DUP1 REVERT JUMPDEST PUSH0 DUP1 REVERT JUMPDEST PUSH0 DUP2 SWAP1 POP SWAP2 SWAP1 POP JUMP JUMPDEST PUSH2 0x54D DUP2 PUSH2 0x53B JUMP JUMPDEST DUP2 EQ PUSH2 0x557 JUMPI PUSH0 DUP1 REVERT JUMPDEST POP JUMP JUMPDEST PUSH0 DUP2 CALLDATALOAD SWAP1 POP PUSH2 0x568 DUP2 PUSH2 0x544 JUMP JUMPDEST SWAP3 SWAP2 POP POP JUMP JUMPDEST PUSH0 DUP1 REVERT JUMPDEST PUSH0 DUP1 REVERT JUMPDEST PUSH0 PUSH1 0x1F NOT PUSH1 0x1F DUP4 ADD AND SWAP1 POP SWAP2 SWAP1 POP JUMP JUMPDEST PUSH32 0x4E487B7100000000000000000000000000000000000000000000000000000000 PUSH0 MSTORE PUSH1 0x41 PUSH1 0x4 MSTORE PUSH1 0x24 PUSH0 REVERT JUMPDEST PUSH2 0x5BC DUP3 PUSH2 0x576 JUMP JUMPDEST DUP2 ADD DUP2 DUP2 LT PUSH8 0xFFFFFFFFFFFFFFFF DUP3 GT OR ISZERO PUSH2 0x5DB JUMPI PUSH2 0x5DA PUSH2 0x586 JUMP JUMPDEST JUMPDEST DUP1 PUSH1 0x40 MSTORE POP POP POP JUMP JUMPDEST PUSH0 PUSH2 0x5ED PUSH2 0x52A JUMP JUMPDEST SWAP1 POP PUSH2 0x5F9 DUP3 DUP3 PUSH2 0x5B3 JUMP JUMPDEST SWAP2 SWAP1 POP JUMP JUMPDEST PUSH0 PUSH8 0xFFFFFFFFFFFFFFFF DUP3 GT ISZERO PUSH2 0x618 JUMPI PUSH2 0x617 PUSH2 0x586 JUMP JUMPDEST JUMPDEST PUSH2 0x621 DUP3 PUSH2 0x576 JUMP JUMPDEST SWAP1 POP PUSH1 0x20 DUP2 ADD SWAP1 POP SWAP2 SWAP1 POP JUMP JUMPDEST DUP3 DUP2 DUP4 CALLDATACOPY PUSH0 DUP4 DUP4 ADD MSTORE POP POP POP JUMP JUMPDEST PUSH0 PUSH2 0x64E PUSH2 0x649 DUP5 PUSH2 0x5FE JUMP JUMPDEST PUSH2 0x5E4 JUMP JUMPDEST SWAP1 POP DUP3 DUP2 MSTORE PUSH1 0x20 DUP2 ADD DUP5 DUP5 DUP5 ADD GT ISZERO PUSH2 0x66A JUMPI PUSH2 0x669 PUSH2 0x572 JUMP JUMPDEST JUMPDEST PUSH2 0x675 DUP5 DUP3 DUP6 PUSH2 0x62E JUMP JUMPDEST POP SWAP4 SWAP3 POP POP POP JUMP JUMPDEST PUSH0 DUP3 PUSH1 0x1F DUP4 ADD SLT PUSH2 0x691 JUMPI PUSH2 0x690 PUSH2 0x56E JUMP JUMPDEST JUMPDEST DUP2 CALLDATALOAD PUSH2 0x6A1 DUP5 DUP3 PUSH1 0x20 DUP7 ADD PUSH2 0x63C JUMP JUMPDEST SWAP2 POP POP SWAP3 SWAP2 POP POP JUMP JUMPDEST PUSH0 DUP2 ISZERO ISZERO SWAP1 POP SWAP2 SWAP1 POP JUMP JUMPDEST PUSH2 0x6BE DUP2 PUSH2 0x6AA JUMP JUMPDEST DUP2 EQ PUSH2 0x6C8 JUMPI PUSH0 DUP1 REVERT JUMPDEST POP JUMP JUMPDEST PUSH0 DUP2 CALLDATALOAD SWAP1 POP PUSH2 0x6D9 DUP2 PUSH2 0x6B5 JUMP JUMPDEST SWAP3 SWAP2 POP POP JUMP JUMPDEST PUSH0 DUP1 PUSH0 PUSH1 0x60 DUP5 DUP7 SUB SLT ISZERO PUSH2 0x6F6 JUMPI PUSH2 0x6F5 PUSH2 0x533 JUMP JUMPDEST JUMPDEST PUSH0 PUSH2 0x703 DUP7 DUP3 DUP8 ADD PUSH2 0x55A JUMP JUMPDEST SWAP4 POP POP PUSH1 0x20 DUP5 ADD CALLDATALOAD PUSH8 0xFFFFFFFFFFFFFFFF DUP2 GT ISZERO PUSH2 0x724 JUMPI PUSH2 0x723 PUSH2 0x537 JUMP JUMPDEST JUMPDEST PUSH2 0x730 DUP7 DUP3 DUP8 ADD PUSH2 0x67D JUMP JUMPDEST SWAP3 POP POP PUSH1 0x40 PUSH2 0x741 DUP7 DUP3 DUP8 ADD PUSH2 0x6CB JUMP JUMPDEST SWAP2 POP POP SWAP3 POP SWAP3 POP SWAP3 JUMP JUMPDEST PUSH0 PUSH1 0x20 DUP3 DUP5 SUB SLT ISZERO PUSH2 0x760 JUMPI PUSH2 0x75F PUSH2 0x533 JUMP JUMPDEST JUMPDEST PUSH0 PUSH2 0x76D DUP5 DUP3 DUP6 ADD PUSH2 0x55A JUMP JUMPDEST SWAP2 POP POP SWAP3 SWAP2 POP POP JUMP JUMPDEST PUSH0 DUP2 MLOAD SWAP1 POP SWAP2 SWAP1 POP JUMP JUMPDEST PUSH0 DUP3 DUP3 MSTORE PUSH1 0x20 DUP3 ADD SWAP1 POP SWAP3 SWAP2 POP POP JUMP JUMPDEST DUP3 DUP2 DUP4 MCOPY PUSH0 DUP4 DUP4 ADD MSTORE POP POP POP JUMP JUMPDEST PUSH0 PUSH2 0x7A8 DUP3 PUSH2 0x776 JUMP JUMPDEST PUSH2 0x7B2 DUP2 DUP6 PUSH2 0x780 JUMP JUMPDEST SWAP4 POP PUSH2 0x7C2 DUP2 DUP6 PUSH1 0x20 DUP7 ADD PUSH2 0x790 JUMP JUMPDEST PUSH2 0x7CB DUP2 PUSH2 0x576 JUMP JUMPDEST DUP5 ADD SWAP2 POP POP SWAP3 SWAP2 POP POP JUMP JUMPDEST PUSH2 0x7DF DUP2 PUSH2 0x6AA JUMP JUMPDEST DUP3 MSTORE POP POP JUMP JUMPDEST PUSH0 PUSH1 0x40 DUP3 ADD SWAP1 POP DUP2 DUP2 SUB PUSH0 DUP4 ADD MSTORE PUSH2 0x7FD DUP2 DUP6 PUSH2 0x79E JUMP JUMPDEST SWAP1 POP PUSH2 0x80C PUSH1 0x20 DUP4 ADD DUP5 PUSH2 0x7D6 JUMP JUMPDEST SWAP4 SWAP3 POP POP POP JUMP JUMPDEST PUSH0 PUSH1 0x20 DUP3 DUP5 SUB SLT ISZERO PUSH2 0x828 JUMPI PUSH2 0x827 PUSH2 0x533 JUMP JUMPDEST JUMPDEST PUSH0 DUP3 ADD CALLDATALOAD PUSH8 0xFFFFFFFFFFFFFFFF DUP2 GT ISZERO PUSH2 0x845 JUMPI PUSH2 0x844 PUSH2 0x537 JUMP JUMPDEST JUMPDEST PUSH2 0x851 DUP5 DUP3 DUP6 ADD PUSH2 0x67D JUMP JUMPDEST SWAP2 POP POP SWAP3 SWAP2 POP POP JUMP JUMPDEST PUSH32 0x4E487B7100000000000000000000000000000000000000000000000000000000 PUSH0 MSTORE PUSH1 0x32 PUSH1 0x4 MSTORE PUSH1 0x24 PUSH0 REVERT JUMPDEST PUSH32 0x4E487B7100000000000000000000000000000000000000000000000000000000 PUSH0 MSTORE PUSH1 0x22 PUSH1 0x4 MSTORE PUSH1 0x24 PUSH0 REVERT JUMPDEST PUSH0 PUSH1 0x2 DUP3 DIV SWAP1 POP PUSH1 0x1 DUP3 AND DUP1 PUSH2 0x8CB JUMPI PUSH1 0x7F DUP3 AND SWAP2 POP JUMPDEST PUSH1 0x20 DUP3 LT DUP2 SUB PUSH2 0x8DE JUMPI PUSH2 0x8DD PUSH2 0x887 JUMP JUMPDEST JUMPDEST POP SWAP2 SWAP1 POP JUMP JUMPDEST PUSH0 DUP2 SWAP1 POP DUP2 PUSH0 MSTORE PUSH1 0x20 PUSH0 KECCAK256 SWAP1 POP SWAP2 SWAP1 POP JUMP JUMPDEST PUSH0 PUSH1 0x20 PUSH1 0x1F DUP4 ADD DIV SWAP1 POP SWAP2 SWAP1 POP JUMP JUMPDEST PUSH0 DUP3 DUP3 SHL SWAP1 POP SWAP3 SWAP2 POP POP JUMP JUMPDEST PUSH0 PUSH1 0x8 DUP4 MUL PUSH2 0x940 PUSH32 0xFFFFFFFFFFFFFFFFFFFFFFFFFFFFFFFFFFFFFFFFFFFFFFFFFFFFFFFFFFFFFFFF DUP3 PUSH2 0x905 JUMP JUMPDEST PUSH2 0x94A DUP7 DUP4 PUSH2 0x905 JUMP JUMPDEST SWAP6 POP DUP1 NOT DUP5 AND SWAP4 POP DUP1 DUP7 AND DUP5 OR SWAP3 POP POP POP SWAP4 SWAP3 POP POP POP JUMP JUMPDEST PUSH0 DUP2 SWAP1 POP SWAP2 SWAP1 POP JUMP JUMPDEST PUSH0 PUSH2 0x985 PUSH2 0x980 PUSH2 0x97B DUP5 PUSH2 0x53B JUMP JUMPDEST PUSH2 0x962 JUMP JUMPDEST PUSH2 0x53B JUMP JUMPDEST SWAP1 POP SWAP2 SWAP1 POP JUMP JUMPDEST PUSH0 DUP2 SWAP1 POP SWAP2 SWAP1 POP JUMP JUMPDEST PUSH2 0x99E DUP4 PUSH2 0x96B JUMP JUMPDEST PUSH2 0x9B2 PUSH2 0x9AA DUP3 PUSH2 0x98C JUMP JUMPDEST DUP5 DUP5 SLOAD PUSH2 0x911 JUMP JUMPDEST DUP3 SSTORE POP POP POP POP JUMP JUMPDEST PUSH0 SWAP1 JUMP JUMPDEST PUSH2 0x9C6 PUSH2 0x9BA JUMP JUMPDEST PUSH2 0x9D1 DUP2 DUP5 DUP5 PUSH2 0x995 JUMP JUMPDEST POP POP POP JUMP JUMPDEST JUMPDEST DUP2 DUP2 LT ISZERO PUSH2 0x9F4 JUMPI PUSH2 0x9E9 PUSH0 DUP3 PUSH2 0x9BE JUMP JUMPDEST PUSH1 0x1 DUP2 ADD SWAP1 POP PUSH2 0x9D7 JUMP JUMPDEST POP POP JUMP JUMPDEST PUSH1 0x1F DUP3 GT ISZERO PUSH2 0xA39 JUMPI PUSH2 0xA0A DUP2 PUSH2 0x8E4 JUMP JUMPDEST PUSH2 0xA13 DUP5 PUSH2 0x8F6 JUMP JUMPDEST DUP2 ADD PUSH1 0x20 DUP6 LT ISZERO PUSH2 0xA22 JUMPI DUP2 SWAP1 POP JUMPDEST PUSH2 0xA36 PUSH2 0xA2E DUP6 PUSH2 0x8F6 JUMP JUMPDEST DUP4 ADD DUP3 PUSH2 0x9D6 JUMP JUMPDEST POP POP JUMPDEST POP POP POP JUMP JUMPDEST PUSH0 DUP3 DUP3 SHR SWAP1 POP SWAP3 SWAP2 POP POP JUMP JUMPDEST PUSH0 PUSH2 0xA59 PUSH0 NOT DUP5 PUSH1 0x8 MUL PUSH2 0xA3E JUMP JUMPDEST NOT DUP1 DUP4 AND SWAP2 POP POP SWAP3 SWAP2 POP POP JUMP JUMPDEST PUSH0 PUSH2 0xA71 DUP4 DUP4 PUSH2 0xA4A JUMP JUMPDEST SWAP2 POP DUP3 PUSH1 0x2 MUL DUP3 OR SWAP1 POP SWAP3 SWAP2 POP POP JUMP JUMPDEST PUSH2 0xA8A DUP3 PUSH2 0x776 JUMP JUMPDEST PUSH8 0xFFFFFFFFFFFFFFFF DUP2 GT ISZERO PUSH2 0xAA3 JUMPI PUSH2 0xAA2 PUSH2 0x586 JUMP JUMPDEST JUMPDEST PUSH2 0xAAD DUP3 SLOAD PUSH2 0x8B4 JUMP JUMPDEST PUSH2 0xAB8 DUP3 DUP3 DUP6 PUSH2 0x9F8 JUMP JUMPDEST PUSH0 PUSH1 0x20 SWAP1 POP PUSH1 0x1F DUP4 GT PUSH1 0x1 DUP2 EQ PUSH2 0xAE9 JUMPI PUSH0 DUP5 ISZERO PUSH2 0xAD7 JUMPI DUP3 DUP8 ADD MLOAD SWAP1 POP JUMPDEST PUSH2 0xAE1 DUP6 DUP3 PUSH2 0xA66 JUMP JUMPDEST DUP7 SSTORE POP PUSH2 0xB48 JUMP JUMPDEST PUSH1 0x1F NOT DUP5 AND PUSH2 0xAF7 DUP7 PUSH2 0x8E4 JUMP JUMPDEST PUSH0 JUMPDEST DUP3 DUP2 LT ISZERO PUSH2 0xB1E JUMPI DUP5 DUP10 ADD MLOAD DUP3 SSTORE PUSH1 0x1 DUP3 ADD SWAP2 POP PUSH1 0x20 DUP6 ADD SWAP5 POP PUSH1 0x20 DUP2 ADD SWAP1 POP PUSH2 0xAF9 JUMP JUMPDEST DUP7 DUP4 LT ISZERO PUSH2 0xB3B JUMPI DUP5 DUP10 ADD MLOAD PUSH2 0xB37 PUSH1 0x1F DUP10 AND DUP3 PUSH2 0xA4A JUMP JUMPDEST DUP4 SSTORE POP JUMPDEST PUSH1 0x1 PUSH1 0x2 DUP9 MUL ADD DUP9 SSTORE POP POP POP JUMPDEST POP POP POP POP POP POP JUMP JUMPDEST PUSH0 DUP2 SLOAD SWAP1 POP PUSH2 0xB5E DUP2 PUSH2 0x8B4 JUMP JUMPDEST SWAP1 POP SWAP2 SWAP1 POP JUMP JUMPDEST DUP2 DUP2 SUB PUSH2 0xB73 JUMPI POP POP PUSH2 0xC48 JUMP JUMPDEST PUSH2 0xB7C DUP3 PUSH2 0xB50 JUMP JUMPDEST PUSH8 0xFFFFFFFFFFFFFFFF DUP2 GT ISZERO PUSH2 0xB95 JUMPI PUSH2 0xB94 PUSH2 0x586 JUMP JUMPDEST JUMPDEST PUSH2 0xB9F DUP3 SLOAD PUSH2 0x8B4 JUMP JUMPDEST PUSH2 0xBAA DUP3 DUP3 DUP6 PUSH2 0x9F8 JUMP JUMPDEST PUSH0 PUSH1 0x1F DUP4 GT PUSH1 0x1 DUP2 EQ PUSH2 0xBD7 JUMPI PUSH0 DUP5 ISZERO PUSH2 0xBC5 JUMPI DUP3 DUP8 ADD SLOAD SWAP1 POP JUMPDEST PUSH2 0xBCF DUP6 DUP3 PUSH2 0xA66 JUMP JUMPDEST DUP7 SSTORE POP PUSH2 0xC41 JUMP JUMPDEST PUSH1 0x1F NOT DUP5 AND PUSH2 0xBE5 DUP8 PUSH2 0x8E4 JUMP JUMPDEST SWAP7 POP PUSH2 0xBF0 DUP7 PUSH2 0x8E4 JUMP JUMPDEST PUSH0 JUMPDEST DUP3 DUP2 LT ISZERO PUSH2 0xC17 JUMPI DUP5 DUP10 ADD SLOAD DUP3 SSTORE PUSH1 0x1 DUP3 ADD SWAP2 POP PUSH1 0x1 DUP6 ADD SWAP5 POP PUSH1 0x20 DUP2 ADD SWAP1 POP PUSH2 0xBF2 JUMP JUMPDEST DUP7 DUP4 LT ISZERO PUSH2 0xC34 JUMPI DUP5 DUP10 ADD SLOAD PUSH2 0xC30 PUSH1 0x1F DUP10 AND DUP3 PUSH2 0xA4A JUMP JUMPDEST DUP4 SSTORE POP JUMPDEST PUSH1 0x1 PUSH1 0x2 DUP9 MUL ADD DUP9 SSTORE POP POP POP JUMPDEST POP POP POP POP POP POP JUMPDEST JUMP INVALID LOG2 PUSH5 0x6970667358 0x22 SLT KECCAK256 BLOCKHASH MUL 0x2C 0xBF 0xC3 0x27 0x27 SSTORE 0x2B 0xB0 0x23 0xC9 0xE5 DUP13 DUP14 0xC8 0xE9 DUP9 GT 0xBA 0x4F SWAP8 CALLDATACOPY PUSH14 0xC196DB9A0BC32FA164736F6C6343 STOP ADDMOD BYTE STOP CALLER "
				},
				"gasEstimates": {
					"creation": {
						"codeDepositCost": "640000",
						"executionCost": "668",
						"totalCost": "640668"
					},
					"external": {
						"createTodo(string)": "infinite",
						"get(uint256)": "infinite",
						"todoList(uint256)": "infinite",
						"toggleCompletion(uint256)": "57790",
						"update(uint256,string,bool)": "infinite"
					}
				},
				"methodIdentifiers": {
					"createTodo(string)": "e34f1221",
					"get(uint256)": "9507d39a",
					"todoList(uint256)": "58c2d469",
					"toggleCompletion(uint256)": "ebc218a7",
					"update(uint256,string,bool)": "4e324847"
				}
			},
			"storageLayout": {
				"storage": [
					{
						"astId": 10,
						"contract": "contracts/struct.sol:StructExample",
						"label": "todoList",
						"offset": 0,
						"slot": "0",
						"type": "t_array(t_struct(Todo)6_storage)dyn_storage"
					}
				],
				"types": {
					"t_array(t_struct(Todo)6_storage)dyn_storage": {
						"base": "t_struct(Todo)6_storage",
						"encoding": "dynamic_array",
						"label": "struct StructExample.Todo[]",
						"numberOfBytes": "32"
					},
					"t_bool": {
						"encoding": "inplace",
						"label": "bool",
						"numberOfBytes": "1"
					},
					"t_string_storage": {
						"encoding": "bytes",
						"label": "string",
						"numberOfBytes": "32"
					},
					"t_struct(Todo)6_storage": {
						"encoding": "inplace",
						"label": "struct StructExample.Todo",
						"members": [
							{
								"astId": 3,
								"contract": "contracts/struct.sol:StructExample",
								"label": "text",
								"offset": 0,
								"slot": "0",
								"type": "t_string_storage"
							},
							{
								"astId": 5,
								"contract": "contracts/struct.sol:StructExample",
								"label": "completed",
								"offset": 0,
								"slot": "1",
								"type": "t_bool"
							}
						],
						"numberOfBytes": "64"
					}
				}
			},
			"userdoc": {
				"kind": "user",
				"methods": {},
				"version": 1
			}
		}
	}
}