{
	"data": {
		"bytecode": {
			"linkReferences": {},
			"object": "6080604052348015600e575f80fd5b506103738061001c5f395ff3fe608060405234801561000f575f80fd5b5060043610610034575f3560e01c80636537214714610038578063d595b5b714610056575b5f80fd5b610040610072565b60405161004d919061013f565b60405180910390f35b610070600480360381019061006b91906101bc565b610077565b005b5f5481565b5f8160ff160361008c5761008b83836100d3565b5b60018160ff16036100a2576100a183836100e8565b5b60028160ff16036100b8576100b783836100fd565b5b60038160ff16036100ce576100cd8383610112565b5b505050565b80826100df9190610239565b5f819055505050565b80826100f4919061026c565b5f819055505050565b8082610109919061029f565b5f819055505050565b808261011e919061030d565b5f819055505050565b5f819050919050565b61013981610127565b82525050565b5f6020820190506101525f830184610130565b92915050565b5f80fd5b61016581610127565b811461016f575f80fd5b50565b5f813590506101808161015c565b92915050565b5f60ff82169050919050565b61019b81610186565b81146101a5575f80fd5b50565b5f813590506101b681610192565b92915050565b5f805f606084860312156101d3576101d2610158565b5b5f6101e086828701610172565b93505060206101f186828701610172565b9250506040610202868287016101a8565b9150509250925092565b7f4e487b71000000000000000000000000000000000000000000000000000000005f52601160045260245ffd5b5f61024382610127565b915061024e83610127565b92508282019050808211156102665761026561020c565b5b92915050565b5f61027682610127565b915061028183610127565b92508282039050818111156102995761029861020c565b5b92915050565b5f6102a982610127565b91506102b483610127565b92508282026102c281610127565b915082820484148315176102d9576102d861020c565b5b5092915050565b7f4e487b71000000000000000000000000000000000000000000000000000000005f52601260045260245ffd5b5f61031782610127565b915061032283610127565b925082610332576103316102e0565b5b82820490509291505056fea26469706673582212200026f63bdcb6f9163ec004d144d618be19a195cf15b721a42a97fd7b0f2af02d64736f6c634300081a0033",
			"opcodes": "PUSH1 0x80 PUSH1 0x40 MSTORE CALLVALUE DUP1 ISZERO PUSH1 0xE JUMPI PUSH0 DUP1 REVERT JUMPDEST POP PUSH2 0x373 DUP1 PUSH2 0x1C PUSH0 CODECOPY PUSH0 RETURN INVALID PUSH1 0x80 PUSH1 0x40 MSTORE CALLVALUE DUP1 ISZERO PUSH2 0xF JUMPI PUSH0 DUP1 REVERT JUMPDEST POP PUSH1 0x4 CALLDATASIZE LT PUSH2 0x34 JUMPI PUSH0 CALLDATALOAD PUSH1 0xE0 SHR DUP1 PUSH4 0x65372147 EQ PUSH2 0x38 JUMPI DUP1 PUSH4 0xD595B5B7 EQ PUSH2 0x56 JUMPI JUMPDEST PUSH0 DUP1 REVERT JUMPDEST PUSH2 0x40 PUSH2 0x72 JUMP JUMPDEST PUSH1 0x40 MLOAD PUSH2 0x4D SWAP2 SWAP1 PUSH2 0x13F JUMP JUMPDEST PUSH1 0x40 MLOAD DUP1 SWAP2 SUB SWAP1 RETURN JUMPDEST PUSH2 0x70 PUSH1 0x4 DUP1 CALLDATASIZE SUB DUP2 ADD SWAP1 PUSH2 0x6B SWAP2 SWAP1 PUSH2 0x1BC JUMP JUMPDEST PUSH2 0x77 JUMP JUMPDEST STOP JUMPDEST PUSH0 SLOAD DUP2 JUMP JUMPDEST PUSH0 DUP2 PUSH1 0xFF AND SUB PUSH2 0x8C JUMPI PUSH2 0x8B DUP4 DUP4 PUSH2 0xD3 JUMP JUMPDEST JUMPDEST PUSH1 0x1 DUP2 PUSH1 0xFF AND SUB PUSH2 0xA2 JUMPI PUSH2 0xA1 DUP4 DUP4 PUSH2 0xE8 JUMP JUMPDEST JUMPDEST PUSH1 0x2 DUP2 PUSH1 0xFF AND SUB PUSH2 0xB8 JUMPI PUSH2 0xB7 DUP4 DUP4 PUSH2 0xFD JUMP JUMPDEST JUMPDEST PUSH1 0x3 DUP2 PUSH1 0xFF AND SUB PUSH2 0xCE JUMPI PUSH2 0xCD DUP4 DUP4 PUSH2 0x112 JUMP JUMPDEST JUMPDEST POP POP POP JUMP JUMPDEST DUP1 DUP3 PUSH2 0xDF SWAP2 SWAP1 PUSH2 0x239 JUMP JUMPDEST PUSH0 DUP2 SWAP1 SSTORE POP POP POP JUMP JUMPDEST DUP1 DUP3 PUSH2 0xF4 SWAP2 SWAP1 PUSH2 0x26C JUMP JUMPDEST PUSH0 DUP2 SWAP1 SSTORE POP POP POP JUMP JUMPDEST DUP1 DUP3 PUSH2 0x109 SWAP2 SWAP1 PUSH2 0x29F JUMP JUMPDEST PUSH0 DUP2 SWAP1 SSTORE POP POP POP JUMP JUMPDEST DUP1 DUP3 PUSH2 0x11E SWAP2 SWAP1 PUSH2 0x30D JUMP JUMPDEST PUSH0 DUP2 SWAP1 SSTORE POP POP POP JUMP JUMPDEST PUSH0 DUP2 SWAP1 POP SWAP2 SWAP1 POP JUMP JUMPDEST PUSH2 0x139 DUP2 PUSH2 0x127 JUMP JUMPDEST DUP3 MSTORE POP POP JUMP JUMPDEST PUSH0 PUSH1 0x20 DUP3 ADD SWAP1 POP PUSH2 0x152 PUSH0 DUP4 ADD DUP5 PUSH2 0x130 JUMP JUMPDEST SWAP3 SWAP2 POP POP JUMP JUMPDEST PUSH0 DUP1 REVERT JUMPDEST PUSH2 0x165 DUP2 PUSH2 0x127 JUMP JUMPDEST DUP2 EQ PUSH2 0x16F JUMPI PUSH0 DUP1 REVERT JUMPDEST POP JUMP JUMPDEST PUSH0 DUP2 CALLDATALOAD SWAP1 POP PUSH2 0x180 DUP2 PUSH2 0x15C JUMP JUMPDEST SWAP3 SWAP2 POP POP JUMP JUMPDEST PUSH0 PUSH1 0xFF DUP3 AND SWAP1 POP SWAP2 SWAP1 POP JUMP JUMPDEST PUSH2 0x19B DUP2 PUSH2 0x186 JUMP JUMPDEST DUP2 EQ PUSH2 0x1A5 JUMPI PUSH0 DUP1 REVERT JUMPDEST POP JUMP JUMPDEST PUSH0 DUP2 CALLDATALOAD SWAP1 POP PUSH2 0x1B6 DUP2 PUSH2 0x192 JUMP JUMPDEST SWAP3 SWAP2 POP POP JUMP JUMPDEST PUSH0 DUP1 PUSH0 PUSH1 0x60 DUP5 DUP7 SUB SLT ISZERO PUSH2 0x1D3 JUMPI PUSH2 0x1D2 PUSH2 0x158 JUMP JUMPDEST JUMPDEST PUSH0 PUSH2 0x1E0 DUP7 DUP3 DUP8 ADD PUSH2 0x172 JUMP JUMPDEST SWAP4 POP POP PUSH1 0x20 PUSH2 0x1F1 DUP7 DUP3 DUP8 ADD PUSH2 0x172 JUMP JUMPDEST SWAP3 POP POP PUSH1 0x40 PUSH2 0x202 DUP7 DUP3 DUP8 ADD PUSH2 0x1A8 JUMP JUMPDEST SWAP2 POP POP SWAP3 POP SWAP3 POP SWAP3 JUMP JUMPDEST PUSH32 0x4E487B7100000000000000000000000000000000000000000000000000000000 PUSH0 MSTORE PUSH1 0x11 PUSH1 0x4 MSTORE PUSH1 0x24 PUSH0 REVERT JUMPDEST PUSH0 PUSH2 0x243 DUP3 PUSH2 0x127 JUMP JUMPDEST SWAP2 POP PUSH2 0x24E DUP4 PUSH2 0x127 JUMP JUMPDEST SWAP3 POP DUP3 DUP3 ADD SWAP1 POP DUP1 DUP3 GT ISZERO PUSH2 0x266 JUMPI PUSH2 0x265 PUSH2 0x20C JUMP JUMPDEST JUMPDEST SWAP3 SWAP2 POP POP JUMP JUMPDEST PUSH0 PUSH2 0x276 DUP3 PUSH2 0x127 JUMP JUMPDEST SWAP2 POP PUSH2 0x281 DUP4 PUSH2 0x127 JUMP JUMPDEST SWAP3 POP DUP3 DUP3 SUB SWAP1 POP DUP2 DUP2 GT ISZERO PUSH2 0x299 JUMPI PUSH2 0x298 PUSH2 0x20C JUMP JUMPDEST JUMPDEST SWAP3 SWAP2 POP POP JUMP JUMPDEST PUSH0 PUSH2 0x2A9 DUP3 PUSH2 0x127 JUMP JUMPDEST SWAP2 POP PUSH2 0x2B4 DUP4 PUSH2 0x127 JUMP JUMPDEST SWAP3 POP DUP3 DUP3 MUL PUSH2 0x2C2 DUP2 PUSH2 0x127 JUMP JUMPDEST SWAP2 POP DUP3 DUP3 DIV DUP5 EQ DUP4 ISZERO OR PUSH2 0x2D9 JUMPI PUSH2 0x2D8 PUSH2 0x20C JUMP JUMPDEST JUMPDEST POP SWAP3 SWAP2 POP POP JUMP JUMPDEST PUSH32 0x4E487B7100000000000000000000000000000000000000000000000000000000 PUSH0 MSTORE PUSH1 0x12 PUSH1 0x4 MSTORE PUSH1 0x24 PUSH0 REVERT JUMPDEST PUSH0 PUSH2 0x317 DUP3 PUSH2 0x127 JUMP JUMPDEST SWAP2 POP PUSH2 0x322 DUP4 PUSH2 0x127 JUMP JUMPDEST SWAP3 POP DUP3 PUSH2 0x332 JUMPI PUSH2 0x331 PUSH2 0x2E0 JUMP JUMPDEST JUMPDEST DUP3 DUP3 DIV SWAP1 POP SWAP3 SWAP2 POP POP JUMP INVALID LOG2 PUSH5 0x6970667358 0x22 SLT KECCAK256 STOP 0x26 0xF6 EXTCODESIZE 0xDC 0xB6 0xF9 AND RETURNDATACOPY 0xC0 DIV 0xD1 PREVRANDAO 0xD6 XOR 0xBE NOT LOG1 SWAP6 0xCF ISZERO 0xB7 0x21 LOG4 0x2A SWAP8 REVERT PUSH28 0xF2AF02D64736F6C634300081A003300000000000000000000000000 "
		},
		"gasEstimates": {
			"creation": {
				"codeDepositCost": "176600",
				"executionCost": "218",
				"totalCost": "176818"
			},
			"external": {
				"performOperation(uint256,uint256,uint8)": "infinite",
				"result()": "2402"
			},
			"internal": {
				"divide(uint256,uint256)": "infinite",
				"multiply(uint256,uint256)": "infinite"
			}
		},
		"methodIdentifiers": {
			"performOperation(uint256,uint256,uint8)": "d595b5b7",
			"result()": "65372147"
		}
	},
	"abi": [
		{
			"inputs": [
				{
					"internalType": "uint256",
					"name": "a",
					"type": "uint256"
				},
				{
					"internalType": "uint256",
					"name": "b",
					"type": "uint256"
				},
				{
					"internalType": "uint8",
					"name": "operation",
					"type": "uint8"
				}
			],
			"name": "performOperation",
			"outputs": [],
			"stateMutability": "nonpayable",
			"type": "function"
		},
		{
			"inputs": [],
			"name": "result",
			"outputs": [
				{
					"internalType": "uint256",
					"name": "",
					"type": "uint256"
				}
			],
			"stateMutability": "view",
			"type": "function"
		}
	]
}