{
	"data": {
		"bytecode": {
			"linkReferences": {},
			"object": "60806040525f805f6101000a81548163ffffffff021916908363ffffffff160217905550348015602d575f80fd5b506105f98061003b5f395ff3fe608060405234801561000f575f80fd5b5060043610610055575f3560e01c80631aa93ffb146100595780636537214714610075578063cbe3a07214610093578063de292789146100af578063f3593cd0146100cd575b5f80fd5b610073600480360381019061006e91906102f8565b6100d7565b005b61007d610117565b60405161008a9190610332565b60405180910390f35b6100ad60048036038101906100a891906102f8565b61012a565b005b6100b761016a565b6040516100c49190610332565b60405180910390f35b6100d5610181565b005b805f808282829054906101000a900463ffffffff166100f69190610378565b92506101000a81548163ffffffff021916908363ffffffff16021790555050565b5f8054906101000a900463ffffffff1681565b805f808282829054906101000a900463ffffffff1661014991906103af565b92506101000a81548163ffffffff021916908363ffffffff16021790555050565b5f805f9054906101000a900463ffffffff16905090565b6101ab6112c15f8054906101000a900463ffffffff1663ffffffff1661024490919063ffffffff16565b5f806101000a81548163ffffffff021916908363ffffffff1602179055505f8054906101000a900463ffffffff1663ffffffff166112c15f8054906101000a900463ffffffff166101fc9190610413565b63ffffffff1614610242576040517f08c379a0000000000000000000000000000000000000000000000000000000008152600401610239906104c3565b60405180910390fd5b565b5f808303610254575f90506102b5565b5f828461026191906104ea565b9050828482610270919061052b565b146102b0576040517f08c379a00000000000000000000000000000000000000000000000000000000081526004016102a7906105a5565b60405180910390fd5b809150505b92915050565b5f80fd5b5f63ffffffff82169050919050565b6102d7816102bf565b81146102e1575f80fd5b50565b5f813590506102f2816102ce565b92915050565b5f6020828403121561030d5761030c6102bb565b5b5f61031a848285016102e4565b91505092915050565b61032c816102bf565b82525050565b5f6020820190506103455f830184610323565b92915050565b7f4e487b71000000000000000000000000000000000000000000000000000000005f52601160045260245ffd5b5f610382826102bf565b915061038d836102bf565b9250828203905063ffffffff8111156103a9576103a861034b565b5b92915050565b5f6103b9826102bf565b91506103c4836102bf565b9250828201905063ffffffff8111156103e0576103df61034b565b5b92915050565b7f4e487b71000000000000000000000000000000000000000000000000000000005f52601260045260245ffd5b5f61041d826102bf565b9150610428836102bf565b925082610438576104376103e6565b5b828204905092915050565b5f82825260208201905092915050565b7f4d756c7469706c69636174696f6e206f766572666c6f7720696e2043616c63755f8201527f6c61746f72000000000000000000000000000000000000000000000000000000602082015250565b5f6104ad602583610443565b91506104b882610453565b604082019050919050565b5f6020820190508181035f8301526104da816104a1565b9050919050565b5f819050919050565b5f6104f4826104e1565b91506104ff836104e1565b925082820261050d816104e1565b915082820484148315176105245761052361034b565b5b5092915050565b5f610535826104e1565b9150610540836104e1565b9250826105505761054f6103e6565b5b828204905092915050565b7f4d756c7469706c69636174696f6e206f766572666c6f770000000000000000005f82015250565b5f61058f601783610443565b915061059a8261055b565b602082019050919050565b5f6020820190508181035f8301526105bc81610583565b905091905056fea264697066735822122019397a9f0e939d1b1cbe13e6fe3ed4d1a47a656c5d229906795f9ab4aca4d8b764736f6c634300081a0033",
			"opcodes": "PUSH1 0x80 PUSH1 0x40 MSTORE PUSH0 DUP1 PUSH0 PUSH2 0x100 EXP DUP2 SLOAD DUP2 PUSH4 0xFFFFFFFF MUL NOT AND SWAP1 DUP4 PUSH4 0xFFFFFFFF AND MUL OR SWAP1 SSTORE POP CALLVALUE DUP1 ISZERO PUSH1 0x2D JUMPI PUSH0 DUP1 REVERT JUMPDEST POP PUSH2 0x5F9 DUP1 PUSH2 0x3B PUSH0 CODECOPY PUSH0 RETURN INVALID PUSH1 0x80 PUSH1 0x40 MSTORE CALLVALUE DUP1 ISZERO PUSH2 0xF JUMPI PUSH0 DUP1 REVERT JUMPDEST POP PUSH1 0x4 CALLDATASIZE LT PUSH2 0x55 JUMPI PUSH0 CALLDATALOAD PUSH1 0xE0 SHR DUP1 PUSH4 0x1AA93FFB EQ PUSH2 0x59 JUMPI DUP1 PUSH4 0x65372147 EQ PUSH2 0x75 JUMPI DUP1 PUSH4 0xCBE3A072 EQ PUSH2 0x93 JUMPI DUP1 PUSH4 0xDE292789 EQ PUSH2 0xAF JUMPI DUP1 PUSH4 0xF3593CD0 EQ PUSH2 0xCD JUMPI JUMPDEST PUSH0 DUP1 REVERT JUMPDEST PUSH2 0x73 PUSH1 0x4 DUP1 CALLDATASIZE SUB DUP2 ADD SWAP1 PUSH2 0x6E SWAP2 SWAP1 PUSH2 0x2F8 JUMP JUMPDEST PUSH2 0xD7 JUMP JUMPDEST STOP JUMPDEST PUSH2 0x7D PUSH2 0x117 JUMP JUMPDEST PUSH1 0x40 MLOAD PUSH2 0x8A SWAP2 SWAP1 PUSH2 0x332 JUMP JUMPDEST PUSH1 0x40 MLOAD DUP1 SWAP2 SUB SWAP1 RETURN JUMPDEST PUSH2 0xAD PUSH1 0x4 DUP1 CALLDATASIZE SUB DUP2 ADD SWAP1 PUSH2 0xA8 SWAP2 SWAP1 PUSH2 0x2F8 JUMP JUMPDEST PUSH2 0x12A JUMP JUMPDEST STOP JUMPDEST PUSH2 0xB7 PUSH2 0x16A JUMP JUMPDEST PUSH1 0x40 MLOAD PUSH2 0xC4 SWAP2 SWAP1 PUSH2 0x332 JUMP JUMPDEST PUSH1 0x40 MLOAD DUP1 SWAP2 SUB SWAP1 RETURN JUMPDEST PUSH2 0xD5 PUSH2 0x181 JUMP JUMPDEST STOP JUMPDEST DUP1 PUSH0 DUP1 DUP3 DUP3 DUP3 SWAP1 SLOAD SWAP1 PUSH2 0x100 EXP SWAP1 DIV PUSH4 0xFFFFFFFF AND PUSH2 0xF6 SWAP2 SWAP1 PUSH2 0x378 JUMP JUMPDEST SWAP3 POP PUSH2 0x100 EXP DUP2 SLOAD DUP2 PUSH4 0xFFFFFFFF MUL NOT AND SWAP1 DUP4 PUSH4 0xFFFFFFFF AND MUL OR SWAP1 SSTORE POP POP JUMP JUMPDEST PUSH0 DUP1 SLOAD SWAP1 PUSH2 0x100 EXP SWAP1 DIV PUSH4 0xFFFFFFFF AND DUP2 JUMP JUMPDEST DUP1 PUSH0 DUP1 DUP3 DUP3 DUP3 SWAP1 SLOAD SWAP1 PUSH2 0x100 EXP SWAP1 DIV PUSH4 0xFFFFFFFF AND PUSH2 0x149 SWAP2 SWAP1 PUSH2 0x3AF JUMP JUMPDEST SWAP3 POP PUSH2 0x100 EXP DUP2 SLOAD DUP2 PUSH4 0xFFFFFFFF MUL NOT AND SWAP1 DUP4 PUSH4 0xFFFFFFFF AND MUL OR SWAP1 SSTORE POP POP JUMP JUMPDEST PUSH0 DUP1 PUSH0 SWAP1 SLOAD SWAP1 PUSH2 0x100 EXP SWAP1 DIV PUSH4 0xFFFFFFFF AND SWAP1 POP SWAP1 JUMP JUMPDEST PUSH2 0x1AB PUSH2 0x12C1 PUSH0 DUP1 SLOAD SWAP1 PUSH2 0x100 EXP SWAP1 DIV PUSH4 0xFFFFFFFF AND PUSH4 0xFFFFFFFF AND PUSH2 0x244 SWAP1 SWAP2 SWAP1 PUSH4 0xFFFFFFFF AND JUMP JUMPDEST PUSH0 DUP1 PUSH2 0x100 EXP DUP2 SLOAD DUP2 PUSH4 0xFFFFFFFF MUL NOT AND SWAP1 DUP4 PUSH4 0xFFFFFFFF AND MUL OR SWAP1 SSTORE POP PUSH0 DUP1 SLOAD SWAP1 PUSH2 0x100 EXP SWAP1 DIV PUSH4 0xFFFFFFFF AND PUSH4 0xFFFFFFFF AND PUSH2 0x12C1 PUSH0 DUP1 SLOAD SWAP1 PUSH2 0x100 EXP SWAP1 DIV PUSH4 0xFFFFFFFF AND PUSH2 0x1FC SWAP2 SWAP1 PUSH2 0x413 JUMP JUMPDEST PUSH4 0xFFFFFFFF AND EQ PUSH2 0x242 JUMPI PUSH1 0x40 MLOAD PUSH32 0x8C379A000000000000000000000000000000000000000000000000000000000 DUP2 MSTORE PUSH1 0x4 ADD PUSH2 0x239 SWAP1 PUSH2 0x4C3 JUMP JUMPDEST PUSH1 0x40 MLOAD DUP1 SWAP2 SUB SWAP1 REVERT JUMPDEST JUMP JUMPDEST PUSH0 DUP1 DUP4 SUB PUSH2 0x254 JUMPI PUSH0 SWAP1 POP PUSH2 0x2B5 JUMP JUMPDEST PUSH0 DUP3 DUP5 PUSH2 0x261 SWAP2 SWAP1 PUSH2 0x4EA JUMP JUMPDEST SWAP1 POP DUP3 DUP5 DUP3 PUSH2 0x270 SWAP2 SWAP1 PUSH2 0x52B JUMP JUMPDEST EQ PUSH2 0x2B0 JUMPI PUSH1 0x40 MLOAD PUSH32 0x8C379A000000000000000000000000000000000000000000000000000000000 DUP2 MSTORE PUSH1 0x4 ADD PUSH2 0x2A7 SWAP1 PUSH2 0x5A5 JUMP JUMPDEST PUSH1 0x40 MLOAD DUP1 SWAP2 SUB SWAP1 REVERT JUMPDEST DUP1 SWAP2 POP POP JUMPDEST SWAP3 SWAP2 POP POP JUMP JUMPDEST PUSH0 DUP1 REVERT JUMPDEST PUSH0 PUSH4 0xFFFFFFFF DUP3 AND SWAP1 POP SWAP2 SWAP1 POP JUMP JUMPDEST PUSH2 0x2D7 DUP2 PUSH2 0x2BF JUMP JUMPDEST DUP2 EQ PUSH2 0x2E1 JUMPI PUSH0 DUP1 REVERT JUMPDEST POP JUMP JUMPDEST PUSH0 DUP2 CALLDATALOAD SWAP1 POP PUSH2 0x2F2 DUP2 PUSH2 0x2CE JUMP JUMPDEST SWAP3 SWAP2 POP POP JUMP JUMPDEST PUSH0 PUSH1 0x20 DUP3 DUP5 SUB SLT ISZERO PUSH2 0x30D JUMPI PUSH2 0x30C PUSH2 0x2BB JUMP JUMPDEST JUMPDEST PUSH0 PUSH2 0x31A DUP5 DUP3 DUP6 ADD PUSH2 0x2E4 JUMP JUMPDEST SWAP2 POP POP SWAP3 SWAP2 POP POP JUMP JUMPDEST PUSH2 0x32C DUP2 PUSH2 0x2BF JUMP JUMPDEST DUP3 MSTORE POP POP JUMP JUMPDEST PUSH0 PUSH1 0x20 DUP3 ADD SWAP1 POP PUSH2 0x345 PUSH0 DUP4 ADD DUP5 PUSH2 0x323 JUMP JUMPDEST SWAP3 SWAP2 POP POP JUMP JUMPDEST PUSH32 0x4E487B7100000000000000000000000000000000000000000000000000000000 PUSH0 MSTORE PUSH1 0x11 PUSH1 0x4 MSTORE PUSH1 0x24 PUSH0 REVERT JUMPDEST PUSH0 PUSH2 0x382 DUP3 PUSH2 0x2BF JUMP JUMPDEST SWAP2 POP PUSH2 0x38D DUP4 PUSH2 0x2BF JUMP JUMPDEST SWAP3 POP DUP3 DUP3 SUB SWAP1 POP PUSH4 0xFFFFFFFF DUP2 GT ISZERO PUSH2 0x3A9 JUMPI PUSH2 0x3A8 PUSH2 0x34B JUMP JUMPDEST JUMPDEST SWAP3 SWAP2 POP POP JUMP JUMPDEST PUSH0 PUSH2 0x3B9 DUP3 PUSH2 0x2BF JUMP JUMPDEST SWAP2 POP PUSH2 0x3C4 DUP4 PUSH2 0x2BF JUMP JUMPDEST SWAP3 POP DUP3 DUP3 ADD SWAP1 POP PUSH4 0xFFFFFFFF DUP2 GT ISZERO PUSH2 0x3E0 JUMPI PUSH2 0x3DF PUSH2 0x34B JUMP JUMPDEST JUMPDEST SWAP3 SWAP2 POP POP JUMP JUMPDEST PUSH32 0x4E487B7100000000000000000000000000000000000000000000000000000000 PUSH0 MSTORE PUSH1 0x12 PUSH1 0x4 MSTORE PUSH1 0x24 PUSH0 REVERT JUMPDEST PUSH0 PUSH2 0x41D DUP3 PUSH2 0x2BF JUMP JUMPDEST SWAP2 POP PUSH2 0x428 DUP4 PUSH2 0x2BF JUMP JUMPDEST SWAP3 POP DUP3 PUSH2 0x438 JUMPI PUSH2 0x437 PUSH2 0x3E6 JUMP JUMPDEST JUMPDEST DUP3 DUP3 DIV SWAP1 POP SWAP3 SWAP2 POP POP JUMP JUMPDEST PUSH0 DUP3 DUP3 MSTORE PUSH1 0x20 DUP3 ADD SWAP1 POP SWAP3 SWAP2 POP POP JUMP JUMPDEST PUSH32 0x4D756C7469706C69636174696F6E206F766572666C6F7720696E2043616C6375 PUSH0 DUP3 ADD MSTORE PUSH32 0x6C61746F72000000000000000000000000000000000000000000000000000000 PUSH1 0x20 DUP3 ADD MSTORE POP JUMP JUMPDEST PUSH0 PUSH2 0x4AD PUSH1 0x25 DUP4 PUSH2 0x443 JUMP JUMPDEST SWAP2 POP PUSH2 0x4B8 DUP3 PUSH2 0x453 JUMP JUMPDEST PUSH1 0x40 DUP3 ADD SWAP1 POP SWAP2 SWAP1 POP JUMP JUMPDEST PUSH0 PUSH1 0x20 DUP3 ADD SWAP1 POP DUP2 DUP2 SUB PUSH0 DUP4 ADD MSTORE PUSH2 0x4DA DUP2 PUSH2 0x4A1 JUMP JUMPDEST SWAP1 POP SWAP2 SWAP1 POP JUMP JUMPDEST PUSH0 DUP2 SWAP1 POP SWAP2 SWAP1 POP JUMP JUMPDEST PUSH0 PUSH2 0x4F4 DUP3 PUSH2 0x4E1 JUMP JUMPDEST SWAP2 POP PUSH2 0x4FF DUP4 PUSH2 0x4E1 JUMP JUMPDEST SWAP3 POP DUP3 DUP3 MUL PUSH2 0x50D DUP2 PUSH2 0x4E1 JUMP JUMPDEST SWAP2 POP DUP3 DUP3 DIV DUP5 EQ DUP4 ISZERO OR PUSH2 0x524 JUMPI PUSH2 0x523 PUSH2 0x34B JUMP JUMPDEST JUMPDEST POP SWAP3 SWAP2 POP POP JUMP JUMPDEST PUSH0 PUSH2 0x535 DUP3 PUSH2 0x4E1 JUMP JUMPDEST SWAP2 POP PUSH2 0x540 DUP4 PUSH2 0x4E1 JUMP JUMPDEST SWAP3 POP DUP3 PUSH2 0x550 JUMPI PUSH2 0x54F PUSH2 0x3E6 JUMP JUMPDEST JUMPDEST DUP3 DUP3 DIV SWAP1 POP SWAP3 SWAP2 POP POP JUMP JUMPDEST PUSH32 0x4D756C7469706C69636174696F6E206F766572666C6F77000000000000000000 PUSH0 DUP3 ADD MSTORE POP JUMP JUMPDEST PUSH0 PUSH2 0x58F PUSH1 0x17 DUP4 PUSH2 0x443 JUMP JUMPDEST SWAP2 POP PUSH2 0x59A DUP3 PUSH2 0x55B JUMP JUMPDEST PUSH1 0x20 DUP3 ADD SWAP1 POP SWAP2 SWAP1 POP JUMP JUMPDEST PUSH0 PUSH1 0x20 DUP3 ADD SWAP1 POP DUP2 DUP2 SUB PUSH0 DUP4 ADD MSTORE PUSH2 0x5BC DUP2 PUSH2 0x583 JUMP JUMPDEST SWAP1 POP SWAP2 SWAP1 POP JUMP INVALID LOG2 PUSH5 0x6970667358 0x22 SLT KECCAK256 NOT CODECOPY PUSH27 0x9F0E939D1B1CBE13E6FE3ED4D1A47A656C5D229906795F9AB4ACA4 0xD8 0xB7 PUSH5 0x736F6C6343 STOP ADDMOD BYTE STOP CALLER "
		},
		"gasEstimates": {
			"creation": {
				"codeDepositCost": "305800",
				"executionCost": "24606",
				"totalCost": "330406"
			},
			"external": {
				"add(uint32)": "infinite",
				"getResult()": "2517",
				"multiply()": "infinite",
				"result()": "2463",
				"subtract(uint32)": "infinite"
			}
		},
		"methodIdentifiers": {
			"add(uint32)": "cbe3a072",
			"getResult()": "de292789",
			"multiply()": "f3593cd0",
			"result()": "65372147",
			"subtract(uint32)": "1aa93ffb"
		}
	},
	"abi": [
		{
			"inputs": [
				{
					"internalType": "uint32",
					"name": "num",
					"type": "uint32"
				}
			],
			"name": "add",
			"outputs": [],
			"stateMutability": "nonpayable",
			"type": "function"
		},
		{
			"inputs": [],
			"name": "getResult",
			"outputs": [
				{
					"internalType": "uint32",
					"name": "",
					"type": "uint32"
				}
			],
			"stateMutability": "view",
			"type": "function"
		},
		{
			"inputs": [],
			"name": "multiply",
			"outputs": [],
			"stateMutability": "nonpayable",
			"type": "function"
		},
		{
			"inputs": [],
			"name": "result",
			"outputs": [
				{
					"internalType": "uint32",
					"name": "",
					"type": "uint32"
				}
			],
			"stateMutability": "view",
			"type": "function"
		},
		{
			"inputs": [
				{
					"internalType": "uint32",
					"name": "num",
					"type": "uint32"
				}
			],
			"name": "subtract",
			"outputs": [],
			"stateMutability": "nonpayable",
			"type": "function"
		}
	]
}