{
	"data": {
		"bytecode": {
			"linkReferences": {},
			"object": "6080604052348015600e575f80fd5b5061053c8061001c5f395ff3fe608060405234801561000f575f80fd5b5060043610610029575f3560e01c80637c9cd2bc1461002d575b5f80fd5b610047600480360381019061004291906101e3565b610049565b005b805f803373ffffffffffffffffffffffffffffffffffffffff1673ffffffffffffffffffffffffffffffffffffffff1681526020019081526020015f2090816100929190610437565b5050565b5f604051905090565b5f80fd5b5f80fd5b5f80fd5b5f80fd5b5f601f19601f8301169050919050565b7f4e487b71000000000000000000000000000000000000000000000000000000005f52604160045260245ffd5b6100f5826100af565b810181811067ffffffffffffffff82111715610114576101136100bf565b5b80604052505050565b5f610126610096565b905061013282826100ec565b919050565b5f67ffffffffffffffff821115610151576101506100bf565b5b61015a826100af565b9050602081019050919050565b828183375f83830152505050565b5f61018761018284610137565b61011d565b9050828152602081018484840111156101a3576101a26100ab565b5b6101ae848285610167565b509392505050565b5f82601f8301126101ca576101c96100a7565b5b81356101da848260208601610175565b91505092915050565b5f602082840312156101f8576101f761009f565b5b5f82013567ffffffffffffffff811115610215576102146100a3565b5b610221848285016101b6565b91505092915050565b5f81519050919050565b7f4e487b71000000000000000000000000000000000000000000000000000000005f52602260045260245ffd5b5f600282049050600182168061027857607f821691505b60208210810361028b5761028a610234565b5b50919050565b5f819050815f5260205f209050919050565b5f6020601f8301049050919050565b5f82821b905092915050565b5f600883026102ed7fffffffffffffffffffffffffffffffffffffffffffffffffffffffffffffffff826102b2565b6102f786836102b2565b95508019841693508086168417925050509392505050565b5f819050919050565b5f819050919050565b5f61033b6103366103318461030f565b610318565b61030f565b9050919050565b5f819050919050565b61035483610321565b61036861036082610342565b8484546102be565b825550505050565b5f90565b61037c610370565b61038781848461034b565b505050565b5b818110156103aa5761039f5f82610374565b60018101905061038d565b5050565b601f8211156103ef576103c081610291565b6103c9846102a3565b810160208510156103d8578190505b6103ec6103e4856102a3565b83018261038c565b50505b505050565b5f82821c905092915050565b5f61040f5f19846008026103f4565b1980831691505092915050565b5f6104278383610400565b9150826002028217905092915050565b6104408261022a565b67ffffffffffffffff811115610459576104586100bf565b5b6104638254610261565b61046e8282856103ae565b5f60209050601f83116001811461049f575f841561048d578287015190505b610497858261041c565b8655506104fe565b601f1984166104ad86610291565b5f5b828110156104d4578489015182556001820191506020850194506020810190506104af565b868310156104f157848901516104ed601f891682610400565b8355505b6001600288020188555050505b50505050505056fea26469706673582212206a63d56af6c24224eb50958b58edd3c7649bccb15b24649f783be6d496b97af264736f6c634300081a0033",
			"opcodes": "PUSH1 0x80 PUSH1 0x40 MSTORE CALLVALUE DUP1 ISZERO PUSH1 0xE JUMPI PUSH0 DUP1 REVERT JUMPDEST POP PUSH2 0x53C DUP1 PUSH2 0x1C PUSH0 CODECOPY PUSH0 RETURN INVALID PUSH1 0x80 PUSH1 0x40 MSTORE CALLVALUE DUP1 ISZERO PUSH2 0xF JUMPI PUSH0 DUP1 REVERT JUMPDEST POP PUSH1 0x4 CALLDATASIZE LT PUSH2 0x29 JUMPI PUSH0 CALLDATALOAD PUSH1 0xE0 SHR DUP1 PUSH4 0x7C9CD2BC EQ PUSH2 0x2D JUMPI JUMPDEST PUSH0 DUP1 REVERT JUMPDEST PUSH2 0x47 PUSH1 0x4 DUP1 CALLDATASIZE SUB DUP2 ADD SWAP1 PUSH2 0x42 SWAP2 SWAP1 PUSH2 0x1E3 JUMP JUMPDEST PUSH2 0x49 JUMP JUMPDEST STOP JUMPDEST DUP1 PUSH0 DUP1 CALLER PUSH20 0xFFFFFFFFFFFFFFFFFFFFFFFFFFFFFFFFFFFFFFFF AND PUSH20 0xFFFFFFFFFFFFFFFFFFFFFFFFFFFFFFFFFFFFFFFF AND DUP2 MSTORE PUSH1 0x20 ADD SWAP1 DUP2 MSTORE PUSH1 0x20 ADD PUSH0 KECCAK256 SWAP1 DUP2 PUSH2 0x92 SWAP2 SWAP1 PUSH2 0x437 JUMP JUMPDEST POP POP JUMP JUMPDEST PUSH0 PUSH1 0x40 MLOAD SWAP1 POP SWAP1 JUMP JUMPDEST PUSH0 DUP1 REVERT JUMPDEST PUSH0 DUP1 REVERT JUMPDEST PUSH0 DUP1 REVERT JUMPDEST PUSH0 DUP1 REVERT JUMPDEST PUSH0 PUSH1 0x1F NOT PUSH1 0x1F DUP4 ADD AND SWAP1 POP SWAP2 SWAP1 POP JUMP JUMPDEST PUSH32 0x4E487B7100000000000000000000000000000000000000000000000000000000 PUSH0 MSTORE PUSH1 0x41 PUSH1 0x4 MSTORE PUSH1 0x24 PUSH0 REVERT JUMPDEST PUSH2 0xF5 DUP3 PUSH2 0xAF JUMP JUMPDEST DUP2 ADD DUP2 DUP2 LT PUSH8 0xFFFFFFFFFFFFFFFF DUP3 GT OR ISZERO PUSH2 0x114 JUMPI PUSH2 0x113 PUSH2 0xBF JUMP JUMPDEST JUMPDEST DUP1 PUSH1 0x40 MSTORE POP POP POP JUMP JUMPDEST PUSH0 PUSH2 0x126 PUSH2 0x96 JUMP JUMPDEST SWAP1 POP PUSH2 0x132 DUP3 DUP3 PUSH2 0xEC JUMP JUMPDEST SWAP2 SWAP1 POP JUMP JUMPDEST PUSH0 PUSH8 0xFFFFFFFFFFFFFFFF DUP3 GT ISZERO PUSH2 0x151 JUMPI PUSH2 0x150 PUSH2 0xBF JUMP JUMPDEST JUMPDEST PUSH2 0x15A DUP3 PUSH2 0xAF JUMP JUMPDEST SWAP1 POP PUSH1 0x20 DUP2 ADD SWAP1 POP SWAP2 SWAP1 POP JUMP JUMPDEST DUP3 DUP2 DUP4 CALLDATACOPY PUSH0 DUP4 DUP4 ADD MSTORE POP POP POP JUMP JUMPDEST PUSH0 PUSH2 0x187 PUSH2 0x182 DUP5 PUSH2 0x137 JUMP JUMPDEST PUSH2 0x11D JUMP JUMPDEST SWAP1 POP DUP3 DUP2 MSTORE PUSH1 0x20 DUP2 ADD DUP5 DUP5 DUP5 ADD GT ISZERO PUSH2 0x1A3 JUMPI PUSH2 0x1A2 PUSH2 0xAB JUMP JUMPDEST JUMPDEST PUSH2 0x1AE DUP5 DUP3 DUP6 PUSH2 0x167 JUMP JUMPDEST POP SWAP4 SWAP3 POP POP POP JUMP JUMPDEST PUSH0 DUP3 PUSH1 0x1F DUP4 ADD SLT PUSH2 0x1CA JUMPI PUSH2 0x1C9 PUSH2 0xA7 JUMP JUMPDEST JUMPDEST DUP2 CALLDATALOAD PUSH2 0x1DA DUP5 DUP3 PUSH1 0x20 DUP7 ADD PUSH2 0x175 JUMP JUMPDEST SWAP2 POP POP SWAP3 SWAP2 POP POP JUMP JUMPDEST PUSH0 PUSH1 0x20 DUP3 DUP5 SUB SLT ISZERO PUSH2 0x1F8 JUMPI PUSH2 0x1F7 PUSH2 0x9F JUMP JUMPDEST JUMPDEST PUSH0 DUP3 ADD CALLDATALOAD PUSH8 0xFFFFFFFFFFFFFFFF DUP2 GT ISZERO PUSH2 0x215 JUMPI PUSH2 0x214 PUSH2 0xA3 JUMP JUMPDEST JUMPDEST PUSH2 0x221 DUP5 DUP3 DUP6 ADD PUSH2 0x1B6 JUMP JUMPDEST SWAP2 POP POP SWAP3 SWAP2 POP POP JUMP JUMPDEST PUSH0 DUP2 MLOAD SWAP1 POP SWAP2 SWAP1 POP JUMP JUMPDEST PUSH32 0x4E487B7100000000000000000000000000000000000000000000000000000000 PUSH0 MSTORE PUSH1 0x22 PUSH1 0x4 MSTORE PUSH1 0x24 PUSH0 REVERT JUMPDEST PUSH0 PUSH1 0x2 DUP3 DIV SWAP1 POP PUSH1 0x1 DUP3 AND DUP1 PUSH2 0x278 JUMPI PUSH1 0x7F DUP3 AND SWAP2 POP JUMPDEST PUSH1 0x20 DUP3 LT DUP2 SUB PUSH2 0x28B JUMPI PUSH2 0x28A PUSH2 0x234 JUMP JUMPDEST JUMPDEST POP SWAP2 SWAP1 POP JUMP JUMPDEST PUSH0 DUP2 SWAP1 POP DUP2 PUSH0 MSTORE PUSH1 0x20 PUSH0 KECCAK256 SWAP1 POP SWAP2 SWAP1 POP JUMP JUMPDEST PUSH0 PUSH1 0x20 PUSH1 0x1F DUP4 ADD DIV SWAP1 POP SWAP2 SWAP1 POP JUMP JUMPDEST PUSH0 DUP3 DUP3 SHL SWAP1 POP SWAP3 SWAP2 POP POP JUMP JUMPDEST PUSH0 PUSH1 0x8 DUP4 MUL PUSH2 0x2ED PUSH32 0xFFFFFFFFFFFFFFFFFFFFFFFFFFFFFFFFFFFFFFFFFFFFFFFFFFFFFFFFFFFFFFFF DUP3 PUSH2 0x2B2 JUMP JUMPDEST PUSH2 0x2F7 DUP7 DUP4 PUSH2 0x2B2 JUMP JUMPDEST SWAP6 POP DUP1 NOT DUP5 AND SWAP4 POP DUP1 DUP7 AND DUP5 OR SWAP3 POP POP POP SWAP4 SWAP3 POP POP POP JUMP JUMPDEST PUSH0 DUP2 SWAP1 POP SWAP2 SWAP1 POP JUMP JUMPDEST PUSH0 DUP2 SWAP1 POP SWAP2 SWAP1 POP JUMP JUMPDEST PUSH0 PUSH2 0x33B PUSH2 0x336 PUSH2 0x331 DUP5 PUSH2 0x30F JUMP JUMPDEST PUSH2 0x318 JUMP JUMPDEST PUSH2 0x30F JUMP JUMPDEST SWAP1 POP SWAP2 SWAP1 POP JUMP JUMPDEST PUSH0 DUP2 SWAP1 POP SWAP2 SWAP1 POP JUMP JUMPDEST PUSH2 0x354 DUP4 PUSH2 0x321 JUMP JUMPDEST PUSH2 0x368 PUSH2 0x360 DUP3 PUSH2 0x342 JUMP JUMPDEST DUP5 DUP5 SLOAD PUSH2 0x2BE JUMP JUMPDEST DUP3 SSTORE POP POP POP POP JUMP JUMPDEST PUSH0 SWAP1 JUMP JUMPDEST PUSH2 0x37C PUSH2 0x370 JUMP JUMPDEST PUSH2 0x387 DUP2 DUP5 DUP5 PUSH2 0x34B JUMP JUMPDEST POP POP POP JUMP JUMPDEST JUMPDEST DUP2 DUP2 LT ISZERO PUSH2 0x3AA JUMPI PUSH2 0x39F PUSH0 DUP3 PUSH2 0x374 JUMP JUMPDEST PUSH1 0x1 DUP2 ADD SWAP1 POP PUSH2 0x38D JUMP JUMPDEST POP POP JUMP JUMPDEST PUSH1 0x1F DUP3 GT ISZERO PUSH2 0x3EF JUMPI PUSH2 0x3C0 DUP2 PUSH2 0x291 JUMP JUMPDEST PUSH2 0x3C9 DUP5 PUSH2 0x2A3 JUMP JUMPDEST DUP2 ADD PUSH1 0x20 DUP6 LT ISZERO PUSH2 0x3D8 JUMPI DUP2 SWAP1 POP JUMPDEST PUSH2 0x3EC PUSH2 0x3E4 DUP6 PUSH2 0x2A3 JUMP JUMPDEST DUP4 ADD DUP3 PUSH2 0x38C JUMP JUMPDEST POP POP JUMPDEST POP POP POP JUMP JUMPDEST PUSH0 DUP3 DUP3 SHR SWAP1 POP SWAP3 SWAP2 POP POP JUMP JUMPDEST PUSH0 PUSH2 0x40F PUSH0 NOT DUP5 PUSH1 0x8 MUL PUSH2 0x3F4 JUMP JUMPDEST NOT DUP1 DUP4 AND SWAP2 POP POP SWAP3 SWAP2 POP POP JUMP JUMPDEST PUSH0 PUSH2 0x427 DUP4 DUP4 PUSH2 0x400 JUMP JUMPDEST SWAP2 POP DUP3 PUSH1 0x2 MUL DUP3 OR SWAP1 POP SWAP3 SWAP2 POP POP JUMP JUMPDEST PUSH2 0x440 DUP3 PUSH2 0x22A JUMP JUMPDEST PUSH8 0xFFFFFFFFFFFFFFFF DUP2 GT ISZERO PUSH2 0x459 JUMPI PUSH2 0x458 PUSH2 0xBF JUMP JUMPDEST JUMPDEST PUSH2 0x463 DUP3 SLOAD PUSH2 0x261 JUMP JUMPDEST PUSH2 0x46E DUP3 DUP3 DUP6 PUSH2 0x3AE JUMP JUMPDEST PUSH0 PUSH1 0x20 SWAP1 POP PUSH1 0x1F DUP4 GT PUSH1 0x1 DUP2 EQ PUSH2 0x49F JUMPI PUSH0 DUP5 ISZERO PUSH2 0x48D JUMPI DUP3 DUP8 ADD MLOAD SWAP1 POP JUMPDEST PUSH2 0x497 DUP6 DUP3 PUSH2 0x41C JUMP JUMPDEST DUP7 SSTORE POP PUSH2 0x4FE JUMP JUMPDEST PUSH1 0x1F NOT DUP5 AND PUSH2 0x4AD DUP7 PUSH2 0x291 JUMP JUMPDEST PUSH0 JUMPDEST DUP3 DUP2 LT ISZERO PUSH2 0x4D4 JUMPI DUP5 DUP10 ADD MLOAD DUP3 SSTORE PUSH1 0x1 DUP3 ADD SWAP2 POP PUSH1 0x20 DUP6 ADD SWAP5 POP PUSH1 0x20 DUP2 ADD SWAP1 POP PUSH2 0x4AF JUMP JUMPDEST DUP7 DUP4 LT ISZERO PUSH2 0x4F1 JUMPI DUP5 DUP10 ADD MLOAD PUSH2 0x4ED PUSH1 0x1F DUP10 AND DUP3 PUSH2 0x400 JUMP JUMPDEST DUP4 SSTORE POP JUMPDEST PUSH1 0x1 PUSH1 0x2 DUP9 MUL ADD DUP9 SSTORE POP POP POP JUMPDEST POP POP POP POP POP POP JUMP INVALID LOG2 PUSH5 0x6970667358 0x22 SLT KECCAK256 PUSH11 0x63D56AF6C24224EB50958B PC 0xED 0xD3 0xC7 PUSH5 0x9BCCB15B24 PUSH5 0x9F783BE6D4 SWAP7 0xB9 PUSH27 0xF264736F6C634300081A0033000000000000000000000000000000 "
		},
		"gasEstimates": {
			"creation": {
				"codeDepositCost": "268000",
				"executionCost": "304",
				"totalCost": "268304"
			},
			"external": {
				"createTweet(string)": "infinite"
			}
		},
		"methodIdentifiers": {
			"createTweet(string)": "7c9cd2bc"
		}
	},
	"abi": [
		{
			"inputs": [
				{
					"internalType": "string",
					"name": "_tweet",
					"type": "string"
				}
			],
			"name": "createTweet",
			"outputs": [],
			"stateMutability": "nonpayable",
			"type": "function"
		}
	]
}