{
	"data": {
		"bytecode": {
			"linkReferences": {},
			"object": "608060405260105f55662386f26fc10000600155348015601d575f80fd5b5061091b8061002b5f395ff3fe608060405234801561000f575f80fd5b5060043610610034575f3560e01c80632052465e146100385780637bff0a0114610069575b5f80fd5b610052600480360381019061004d9190610288565b610085565b604051610060929190610332565b60405180910390f35b610083600480360381019061007e919061048c565b61013a565b005b60028181548110610094575f80fd5b905f5260205f2090600202015f91509050805f0180546100b390610500565b80601f01602080910402602001604051908101604052809291908181526020018280546100df90610500565b801561012a5780601f106101015761010080835404028352916020019161012a565b820191905f5260205f20905b81548152906001019060200180831161010d57829003601f168201915b5050505050908060010154905082565b5f61014482610154565b90506101508282610197565b5050565b5f8082604051602001610167919061056a565b604051602081830303815290604052805190602001205f1c90506001548161018f91906105ad565b915050919050565b6002604051806040016040528084815260200183815250908060018154018082558091505060019003905f5260205f2090600202015f909190919091505f820151815f0190816101e7919061077a565b506020820151816001015550507f88f026aacbbecc90c18411df4b1185fd8d9be2470f1962f192bf84a27d0704b760016002805490506102279190610876565b8383604051610238939291906108a9565b60405180910390a15050565b5f604051905090565b5f80fd5b5f80fd5b5f819050919050565b61026781610255565b8114610271575f80fd5b50565b5f813590506102828161025e565b92915050565b5f6020828403121561029d5761029c61024d565b5b5f6102aa84828501610274565b91505092915050565b5f81519050919050565b5f82825260208201905092915050565b8281835e5f83830152505050565b5f601f19601f8301169050919050565b5f6102f5826102b3565b6102ff81856102bd565b935061030f8185602086016102cd565b610318816102db565b840191505092915050565b61032c81610255565b82525050565b5f6040820190508181035f83015261034a81856102eb565b90506103596020830184610323565b9392505050565b5f80fd5b5f80fd5b7f4e487b71000000000000000000000000000000000000000000000000000000005f52604160045260245ffd5b61039e826102db565b810181811067ffffffffffffffff821117156103bd576103bc610368565b5b80604052505050565b5f6103cf610244565b90506103db8282610395565b919050565b5f67ffffffffffffffff8211156103fa576103f9610368565b5b610403826102db565b9050602081019050919050565b828183375f83830152505050565b5f61043061042b846103e0565b6103c6565b90508281526020810184848401111561044c5761044b610364565b5b610457848285610410565b509392505050565b5f82601f83011261047357610472610360565b5b813561048384826020860161041e565b91505092915050565b5f602082840312156104a1576104a061024d565b5b5f82013567ffffffffffffffff8111156104be576104bd610251565b5b6104ca8482850161045f565b91505092915050565b7f4e487b71000000000000000000000000000000000000000000000000000000005f52602260045260245ffd5b5f600282049050600182168061051757607f821691505b60208210810361052a576105296104d3565b5b50919050565b5f81905092915050565b5f610544826102b3565b61054e8185610530565b935061055e8185602086016102cd565b80840191505092915050565b5f610575828461053a565b915081905092915050565b7f4e487b71000000000000000000000000000000000000000000000000000000005f52601260045260245ffd5b5f6105b782610255565b91506105c283610255565b9250826105d2576105d1610580565b5b828206905092915050565b5f819050815f5260205f209050919050565b5f6020601f8301049050919050565b5f82821b905092915050565b5f600883026106397fffffffffffffffffffffffffffffffffffffffffffffffffffffffffffffffff826105fe565b61064386836105fe565b95508019841693508086168417925050509392505050565b5f819050919050565b5f61067e61067961067484610255565b61065b565b610255565b9050919050565b5f819050919050565b61069783610664565b6106ab6106a382610685565b84845461060a565b825550505050565b5f90565b6106bf6106b3565b6106ca81848461068e565b505050565b5b818110156106ed576106e25f826106b7565b6001810190506106d0565b5050565b601f82111561073257610703816105dd565b61070c846105ef565b8101602085101561071b578190505b61072f610727856105ef565b8301826106cf565b50505b505050565b5f82821c905092915050565b5f6107525f1984600802610737565b1980831691505092915050565b5f61076a8383610743565b9150826002028217905092915050565b610783826102b3565b67ffffffffffffffff81111561079c5761079b610368565b5b6107a68254610500565b6107b18282856106f1565b5f60209050601f8311600181146107e2575f84156107d0578287015190505b6107da858261075f565b865550610841565b601f1984166107f0866105dd565b5f5b82811015610817578489015182556001820191506020850194506020810190506107f2565b868310156108345784890151610830601f891682610743565b8355505b6001600288020188555050505b505050505050565b7f4e487b71000000000000000000000000000000000000000000000000000000005f52601160045260245ffd5b5f61088082610255565b915061088b83610255565b92508282039050818111156108a3576108a2610849565b5b92915050565b5f6060820190506108bc5f830186610323565b81810360208301526108ce81856102eb565b90506108dd6040830184610323565b94935050505056fea264697066735822122036601c33de898ef3679b95ffe8aa11a58b347979e8529f255a4d53a5a6e531cb64736f6c634300081a0033",
			"opcodes": "PUSH1 0x80 PUSH1 0x40 MSTORE PUSH1 0x10 PUSH0 SSTORE PUSH7 0x2386F26FC10000 PUSH1 0x1 SSTORE CALLVALUE DUP1 ISZERO PUSH1 0x1D JUMPI PUSH0 DUP1 REVERT JUMPDEST POP PUSH2 0x91B DUP1 PUSH2 0x2B PUSH0 CODECOPY PUSH0 RETURN INVALID PUSH1 0x80 PUSH1 0x40 MSTORE CALLVALUE DUP1 ISZERO PUSH2 0xF JUMPI PUSH0 DUP1 REVERT JUMPDEST POP PUSH1 0x4 CALLDATASIZE LT PUSH2 0x34 JUMPI PUSH0 CALLDATALOAD PUSH1 0xE0 SHR DUP1 PUSH4 0x2052465E EQ PUSH2 0x38 JUMPI DUP1 PUSH4 0x7BFF0A01 EQ PUSH2 0x69 JUMPI JUMPDEST PUSH0 DUP1 REVERT JUMPDEST PUSH2 0x52 PUSH1 0x4 DUP1 CALLDATASIZE SUB DUP2 ADD SWAP1 PUSH2 0x4D SWAP2 SWAP1 PUSH2 0x288 JUMP JUMPDEST PUSH2 0x85 JUMP JUMPDEST PUSH1 0x40 MLOAD PUSH2 0x60 SWAP3 SWAP2 SWAP1 PUSH2 0x332 JUMP JUMPDEST PUSH1 0x40 MLOAD DUP1 SWAP2 SUB SWAP1 RETURN JUMPDEST PUSH2 0x83 PUSH1 0x4 DUP1 CALLDATASIZE SUB DUP2 ADD SWAP1 PUSH2 0x7E SWAP2 SWAP1 PUSH2 0x48C JUMP JUMPDEST PUSH2 0x13A JUMP JUMPDEST STOP JUMPDEST PUSH1 0x2 DUP2 DUP2 SLOAD DUP2 LT PUSH2 0x94 JUMPI PUSH0 DUP1 REVERT JUMPDEST SWAP1 PUSH0 MSTORE PUSH1 0x20 PUSH0 KECCAK256 SWAP1 PUSH1 0x2 MUL ADD PUSH0 SWAP2 POP SWAP1 POP DUP1 PUSH0 ADD DUP1 SLOAD PUSH2 0xB3 SWAP1 PUSH2 0x500 JUMP JUMPDEST DUP1 PUSH1 0x1F ADD PUSH1 0x20 DUP1 SWAP2 DIV MUL PUSH1 0x20 ADD PUSH1 0x40 MLOAD SWAP1 DUP2 ADD PUSH1 0x40 MSTORE DUP1 SWAP3 SWAP2 SWAP1 DUP2 DUP2 MSTORE PUSH1 0x20 ADD DUP3 DUP1 SLOAD PUSH2 0xDF SWAP1 PUSH2 0x500 JUMP JUMPDEST DUP1 ISZERO PUSH2 0x12A JUMPI DUP1 PUSH1 0x1F LT PUSH2 0x101 JUMPI PUSH2 0x100 DUP1 DUP4 SLOAD DIV MUL DUP4 MSTORE SWAP2 PUSH1 0x20 ADD SWAP2 PUSH2 0x12A JUMP JUMPDEST DUP3 ADD SWAP2 SWAP1 PUSH0 MSTORE PUSH1 0x20 PUSH0 KECCAK256 SWAP1 JUMPDEST DUP2 SLOAD DUP2 MSTORE SWAP1 PUSH1 0x1 ADD SWAP1 PUSH1 0x20 ADD DUP1 DUP4 GT PUSH2 0x10D JUMPI DUP3 SWAP1 SUB PUSH1 0x1F AND DUP3 ADD SWAP2 JUMPDEST POP POP POP POP POP SWAP1 DUP1 PUSH1 0x1 ADD SLOAD SWAP1 POP DUP3 JUMP JUMPDEST PUSH0 PUSH2 0x144 DUP3 PUSH2 0x154 JUMP JUMPDEST SWAP1 POP PUSH2 0x150 DUP3 DUP3 PUSH2 0x197 JUMP JUMPDEST POP POP JUMP JUMPDEST PUSH0 DUP1 DUP3 PUSH1 0x40 MLOAD PUSH1 0x20 ADD PUSH2 0x167 SWAP2 SWAP1 PUSH2 0x56A JUMP JUMPDEST PUSH1 0x40 MLOAD PUSH1 0x20 DUP2 DUP4 SUB SUB DUP2 MSTORE SWAP1 PUSH1 0x40 MSTORE DUP1 MLOAD SWAP1 PUSH1 0x20 ADD KECCAK256 PUSH0 SHR SWAP1 POP PUSH1 0x1 SLOAD DUP2 PUSH2 0x18F SWAP2 SWAP1 PUSH2 0x5AD JUMP JUMPDEST SWAP2 POP POP SWAP2 SWAP1 POP JUMP JUMPDEST PUSH1 0x2 PUSH1 0x40 MLOAD DUP1 PUSH1 0x40 ADD PUSH1 0x40 MSTORE DUP1 DUP5 DUP2 MSTORE PUSH1 0x20 ADD DUP4 DUP2 MSTORE POP SWAP1 DUP1 PUSH1 0x1 DUP2 SLOAD ADD DUP1 DUP3 SSTORE DUP1 SWAP2 POP POP PUSH1 0x1 SWAP1 SUB SWAP1 PUSH0 MSTORE PUSH1 0x20 PUSH0 KECCAK256 SWAP1 PUSH1 0x2 MUL ADD PUSH0 SWAP1 SWAP2 SWAP1 SWAP2 SWAP1 SWAP2 POP PUSH0 DUP3 ADD MLOAD DUP2 PUSH0 ADD SWAP1 DUP2 PUSH2 0x1E7 SWAP2 SWAP1 PUSH2 0x77A JUMP JUMPDEST POP PUSH1 0x20 DUP3 ADD MLOAD DUP2 PUSH1 0x1 ADD SSTORE POP POP PUSH32 0x88F026AACBBECC90C18411DF4B1185FD8D9BE2470F1962F192BF84A27D0704B7 PUSH1 0x1 PUSH1 0x2 DUP1 SLOAD SWAP1 POP PUSH2 0x227 SWAP2 SWAP1 PUSH2 0x876 JUMP JUMPDEST DUP4 DUP4 PUSH1 0x40 MLOAD PUSH2 0x238 SWAP4 SWAP3 SWAP2 SWAP1 PUSH2 0x8A9 JUMP JUMPDEST PUSH1 0x40 MLOAD DUP1 SWAP2 SUB SWAP1 LOG1 POP POP JUMP JUMPDEST PUSH0 PUSH1 0x40 MLOAD SWAP1 POP SWAP1 JUMP JUMPDEST PUSH0 DUP1 REVERT JUMPDEST PUSH0 DUP1 REVERT JUMPDEST PUSH0 DUP2 SWAP1 POP SWAP2 SWAP1 POP JUMP JUMPDEST PUSH2 0x267 DUP2 PUSH2 0x255 JUMP JUMPDEST DUP2 EQ PUSH2 0x271 JUMPI PUSH0 DUP1 REVERT JUMPDEST POP JUMP JUMPDEST PUSH0 DUP2 CALLDATALOAD SWAP1 POP PUSH2 0x282 DUP2 PUSH2 0x25E JUMP JUMPDEST SWAP3 SWAP2 POP POP JUMP JUMPDEST PUSH0 PUSH1 0x20 DUP3 DUP5 SUB SLT ISZERO PUSH2 0x29D JUMPI PUSH2 0x29C PUSH2 0x24D JUMP JUMPDEST JUMPDEST PUSH0 PUSH2 0x2AA DUP5 DUP3 DUP6 ADD PUSH2 0x274 JUMP JUMPDEST SWAP2 POP POP SWAP3 SWAP2 POP POP JUMP JUMPDEST PUSH0 DUP2 MLOAD SWAP1 POP SWAP2 SWAP1 POP JUMP JUMPDEST PUSH0 DUP3 DUP3 MSTORE PUSH1 0x20 DUP3 ADD SWAP1 POP SWAP3 SWAP2 POP POP JUMP JUMPDEST DUP3 DUP2 DUP4 MCOPY PUSH0 DUP4 DUP4 ADD MSTORE POP POP POP JUMP JUMPDEST PUSH0 PUSH1 0x1F NOT PUSH1 0x1F DUP4 ADD AND SWAP1 POP SWAP2 SWAP1 POP JUMP JUMPDEST PUSH0 PUSH2 0x2F5 DUP3 PUSH2 0x2B3 JUMP JUMPDEST PUSH2 0x2FF DUP2 DUP6 PUSH2 0x2BD JUMP JUMPDEST SWAP4 POP PUSH2 0x30F DUP2 DUP6 PUSH1 0x20 DUP7 ADD PUSH2 0x2CD JUMP JUMPDEST PUSH2 0x318 DUP2 PUSH2 0x2DB JUMP JUMPDEST DUP5 ADD SWAP2 POP POP SWAP3 SWAP2 POP POP JUMP JUMPDEST PUSH2 0x32C DUP2 PUSH2 0x255 JUMP JUMPDEST DUP3 MSTORE POP POP JUMP JUMPDEST PUSH0 PUSH1 0x40 DUP3 ADD SWAP1 POP DUP2 DUP2 SUB PUSH0 DUP4 ADD MSTORE PUSH2 0x34A DUP2 DUP6 PUSH2 0x2EB JUMP JUMPDEST SWAP1 POP PUSH2 0x359 PUSH1 0x20 DUP4 ADD DUP5 PUSH2 0x323 JUMP JUMPDEST SWAP4 SWAP3 POP POP POP JUMP JUMPDEST PUSH0 DUP1 REVERT JUMPDEST PUSH0 DUP1 REVERT JUMPDEST PUSH32 0x4E487B7100000000000000000000000000000000000000000000000000000000 PUSH0 MSTORE PUSH1 0x41 PUSH1 0x4 MSTORE PUSH1 0x24 PUSH0 REVERT JUMPDEST PUSH2 0x39E DUP3 PUSH2 0x2DB JUMP JUMPDEST DUP2 ADD DUP2 DUP2 LT PUSH8 0xFFFFFFFFFFFFFFFF DUP3 GT OR ISZERO PUSH2 0x3BD JUMPI PUSH2 0x3BC PUSH2 0x368 JUMP JUMPDEST JUMPDEST DUP1 PUSH1 0x40 MSTORE POP POP POP JUMP JUMPDEST PUSH0 PUSH2 0x3CF PUSH2 0x244 JUMP JUMPDEST SWAP1 POP PUSH2 0x3DB DUP3 DUP3 PUSH2 0x395 JUMP JUMPDEST SWAP2 SWAP1 POP JUMP JUMPDEST PUSH0 PUSH8 0xFFFFFFFFFFFFFFFF DUP3 GT ISZERO PUSH2 0x3FA JUMPI PUSH2 0x3F9 PUSH2 0x368 JUMP JUMPDEST JUMPDEST PUSH2 0x403 DUP3 PUSH2 0x2DB JUMP JUMPDEST SWAP1 POP PUSH1 0x20 DUP2 ADD SWAP1 POP SWAP2 SWAP1 POP JUMP JUMPDEST DUP3 DUP2 DUP4 CALLDATACOPY PUSH0 DUP4 DUP4 ADD MSTORE POP POP POP JUMP JUMPDEST PUSH0 PUSH2 0x430 PUSH2 0x42B DUP5 PUSH2 0x3E0 JUMP JUMPDEST PUSH2 0x3C6 JUMP JUMPDEST SWAP1 POP DUP3 DUP2 MSTORE PUSH1 0x20 DUP2 ADD DUP5 DUP5 DUP5 ADD GT ISZERO PUSH2 0x44C JUMPI PUSH2 0x44B PUSH2 0x364 JUMP JUMPDEST JUMPDEST PUSH2 0x457 DUP5 DUP3 DUP6 PUSH2 0x410 JUMP JUMPDEST POP SWAP4 SWAP3 POP POP POP JUMP JUMPDEST PUSH0 DUP3 PUSH1 0x1F DUP4 ADD SLT PUSH2 0x473 JUMPI PUSH2 0x472 PUSH2 0x360 JUMP JUMPDEST JUMPDEST DUP2 CALLDATALOAD PUSH2 0x483 DUP5 DUP3 PUSH1 0x20 DUP7 ADD PUSH2 0x41E JUMP JUMPDEST SWAP2 POP POP SWAP3 SWAP2 POP POP JUMP JUMPDEST PUSH0 PUSH1 0x20 DUP3 DUP5 SUB SLT ISZERO PUSH2 0x4A1 JUMPI PUSH2 0x4A0 PUSH2 0x24D JUMP JUMPDEST JUMPDEST PUSH0 DUP3 ADD CALLDATALOAD PUSH8 0xFFFFFFFFFFFFFFFF DUP2 GT ISZERO PUSH2 0x4BE JUMPI PUSH2 0x4BD PUSH2 0x251 JUMP JUMPDEST JUMPDEST PUSH2 0x4CA DUP5 DUP3 DUP6 ADD PUSH2 0x45F JUMP JUMPDEST SWAP2 POP POP SWAP3 SWAP2 POP POP JUMP JUMPDEST PUSH32 0x4E487B7100000000000000000000000000000000000000000000000000000000 PUSH0 MSTORE PUSH1 0x22 PUSH1 0x4 MSTORE PUSH1 0x24 PUSH0 REVERT JUMPDEST PUSH0 PUSH1 0x2 DUP3 DIV SWAP1 POP PUSH1 0x1 DUP3 AND DUP1 PUSH2 0x517 JUMPI PUSH1 0x7F DUP3 AND SWAP2 POP JUMPDEST PUSH1 0x20 DUP3 LT DUP2 SUB PUSH2 0x52A JUMPI PUSH2 0x529 PUSH2 0x4D3 JUMP JUMPDEST JUMPDEST POP SWAP2 SWAP1 POP JUMP JUMPDEST PUSH0 DUP2 SWAP1 POP SWAP3 SWAP2 POP POP JUMP JUMPDEST PUSH0 PUSH2 0x544 DUP3 PUSH2 0x2B3 JUMP JUMPDEST PUSH2 0x54E DUP2 DUP6 PUSH2 0x530 JUMP JUMPDEST SWAP4 POP PUSH2 0x55E DUP2 DUP6 PUSH1 0x20 DUP7 ADD PUSH2 0x2CD JUMP JUMPDEST DUP1 DUP5 ADD SWAP2 POP POP SWAP3 SWAP2 POP POP JUMP JUMPDEST PUSH0 PUSH2 0x575 DUP3 DUP5 PUSH2 0x53A JUMP JUMPDEST SWAP2 POP DUP2 SWAP1 POP SWAP3 SWAP2 POP POP JUMP JUMPDEST PUSH32 0x4E487B7100000000000000000000000000000000000000000000000000000000 PUSH0 MSTORE PUSH1 0x12 PUSH1 0x4 MSTORE PUSH1 0x24 PUSH0 REVERT JUMPDEST PUSH0 PUSH2 0x5B7 DUP3 PUSH2 0x255 JUMP JUMPDEST SWAP2 POP PUSH2 0x5C2 DUP4 PUSH2 0x255 JUMP JUMPDEST SWAP3 POP DUP3 PUSH2 0x5D2 JUMPI PUSH2 0x5D1 PUSH2 0x580 JUMP JUMPDEST JUMPDEST DUP3 DUP3 MOD SWAP1 POP SWAP3 SWAP2 POP POP JUMP JUMPDEST PUSH0 DUP2 SWAP1 POP DUP2 PUSH0 MSTORE PUSH1 0x20 PUSH0 KECCAK256 SWAP1 POP SWAP2 SWAP1 POP JUMP JUMPDEST PUSH0 PUSH1 0x20 PUSH1 0x1F DUP4 ADD DIV SWAP1 POP SWAP2 SWAP1 POP JUMP JUMPDEST PUSH0 DUP3 DUP3 SHL SWAP1 POP SWAP3 SWAP2 POP POP JUMP JUMPDEST PUSH0 PUSH1 0x8 DUP4 MUL PUSH2 0x639 PUSH32 0xFFFFFFFFFFFFFFFFFFFFFFFFFFFFFFFFFFFFFFFFFFFFFFFFFFFFFFFFFFFFFFFF DUP3 PUSH2 0x5FE JUMP JUMPDEST PUSH2 0x643 DUP7 DUP4 PUSH2 0x5FE JUMP JUMPDEST SWAP6 POP DUP1 NOT DUP5 AND SWAP4 POP DUP1 DUP7 AND DUP5 OR SWAP3 POP POP POP SWAP4 SWAP3 POP POP POP JUMP JUMPDEST PUSH0 DUP2 SWAP1 POP SWAP2 SWAP1 POP JUMP JUMPDEST PUSH0 PUSH2 0x67E PUSH2 0x679 PUSH2 0x674 DUP5 PUSH2 0x255 JUMP JUMPDEST PUSH2 0x65B JUMP JUMPDEST PUSH2 0x255 JUMP JUMPDEST SWAP1 POP SWAP2 SWAP1 POP JUMP JUMPDEST PUSH0 DUP2 SWAP1 POP SWAP2 SWAP1 POP JUMP JUMPDEST PUSH2 0x697 DUP4 PUSH2 0x664 JUMP JUMPDEST PUSH2 0x6AB PUSH2 0x6A3 DUP3 PUSH2 0x685 JUMP JUMPDEST DUP5 DUP5 SLOAD PUSH2 0x60A JUMP JUMPDEST DUP3 SSTORE POP POP POP POP JUMP JUMPDEST PUSH0 SWAP1 JUMP JUMPDEST PUSH2 0x6BF PUSH2 0x6B3 JUMP JUMPDEST PUSH2 0x6CA DUP2 DUP5 DUP5 PUSH2 0x68E JUMP JUMPDEST POP POP POP JUMP JUMPDEST JUMPDEST DUP2 DUP2 LT ISZERO PUSH2 0x6ED JUMPI PUSH2 0x6E2 PUSH0 DUP3 PUSH2 0x6B7 JUMP JUMPDEST PUSH1 0x1 DUP2 ADD SWAP1 POP PUSH2 0x6D0 JUMP JUMPDEST POP POP JUMP JUMPDEST PUSH1 0x1F DUP3 GT ISZERO PUSH2 0x732 JUMPI PUSH2 0x703 DUP2 PUSH2 0x5DD JUMP JUMPDEST PUSH2 0x70C DUP5 PUSH2 0x5EF JUMP JUMPDEST DUP2 ADD PUSH1 0x20 DUP6 LT ISZERO PUSH2 0x71B JUMPI DUP2 SWAP1 POP JUMPDEST PUSH2 0x72F PUSH2 0x727 DUP6 PUSH2 0x5EF JUMP JUMPDEST DUP4 ADD DUP3 PUSH2 0x6CF JUMP JUMPDEST POP POP JUMPDEST POP POP POP JUMP JUMPDEST PUSH0 DUP3 DUP3 SHR SWAP1 POP SWAP3 SWAP2 POP POP JUMP JUMPDEST PUSH0 PUSH2 0x752 PUSH0 NOT DUP5 PUSH1 0x8 MUL PUSH2 0x737 JUMP JUMPDEST NOT DUP1 DUP4 AND SWAP2 POP POP SWAP3 SWAP2 POP POP JUMP JUMPDEST PUSH0 PUSH2 0x76A DUP4 DUP4 PUSH2 0x743 JUMP JUMPDEST SWAP2 POP DUP3 PUSH1 0x2 MUL DUP3 OR SWAP1 POP SWAP3 SWAP2 POP POP JUMP JUMPDEST PUSH2 0x783 DUP3 PUSH2 0x2B3 JUMP JUMPDEST PUSH8 0xFFFFFFFFFFFFFFFF DUP2 GT ISZERO PUSH2 0x79C JUMPI PUSH2 0x79B PUSH2 0x368 JUMP JUMPDEST JUMPDEST PUSH2 0x7A6 DUP3 SLOAD PUSH2 0x500 JUMP JUMPDEST PUSH2 0x7B1 DUP3 DUP3 DUP6 PUSH2 0x6F1 JUMP JUMPDEST PUSH0 PUSH1 0x20 SWAP1 POP PUSH1 0x1F DUP4 GT PUSH1 0x1 DUP2 EQ PUSH2 0x7E2 JUMPI PUSH0 DUP5 ISZERO PUSH2 0x7D0 JUMPI DUP3 DUP8 ADD MLOAD SWAP1 POP JUMPDEST PUSH2 0x7DA DUP6 DUP3 PUSH2 0x75F JUMP JUMPDEST DUP7 SSTORE POP PUSH2 0x841 JUMP JUMPDEST PUSH1 0x1F NOT DUP5 AND PUSH2 0x7F0 DUP7 PUSH2 0x5DD JUMP JUMPDEST PUSH0 JUMPDEST DUP3 DUP2 LT ISZERO PUSH2 0x817 JUMPI DUP5 DUP10 ADD MLOAD DUP3 SSTORE PUSH1 0x1 DUP3 ADD SWAP2 POP PUSH1 0x20 DUP6 ADD SWAP5 POP PUSH1 0x20 DUP2 ADD SWAP1 POP PUSH2 0x7F2 JUMP JUMPDEST DUP7 DUP4 LT ISZERO PUSH2 0x834 JUMPI DUP5 DUP10 ADD MLOAD PUSH2 0x830 PUSH1 0x1F DUP10 AND DUP3 PUSH2 0x743 JUMP JUMPDEST DUP4 SSTORE POP JUMPDEST PUSH1 0x1 PUSH1 0x2 DUP9 MUL ADD DUP9 SSTORE POP POP POP JUMPDEST POP POP POP POP POP POP JUMP JUMPDEST PUSH32 0x4E487B7100000000000000000000000000000000000000000000000000000000 PUSH0 MSTORE PUSH1 0x11 PUSH1 0x4 MSTORE PUSH1 0x24 PUSH0 REVERT JUMPDEST PUSH0 PUSH2 0x880 DUP3 PUSH2 0x255 JUMP JUMPDEST SWAP2 POP PUSH2 0x88B DUP4 PUSH2 0x255 JUMP JUMPDEST SWAP3 POP DUP3 DUP3 SUB SWAP1 POP DUP2 DUP2 GT ISZERO PUSH2 0x8A3 JUMPI PUSH2 0x8A2 PUSH2 0x849 JUMP JUMPDEST JUMPDEST SWAP3 SWAP2 POP POP JUMP JUMPDEST PUSH0 PUSH1 0x60 DUP3 ADD SWAP1 POP PUSH2 0x8BC PUSH0 DUP4 ADD DUP7 PUSH2 0x323 JUMP JUMPDEST DUP2 DUP2 SUB PUSH1 0x20 DUP4 ADD MSTORE PUSH2 0x8CE DUP2 DUP6 PUSH2 0x2EB JUMP JUMPDEST SWAP1 POP PUSH2 0x8DD PUSH1 0x40 DUP4 ADD DUP5 PUSH2 0x323 JUMP JUMPDEST SWAP5 SWAP4 POP POP POP POP JUMP INVALID LOG2 PUSH5 0x6970667358 0x22 SLT KECCAK256 CALLDATASIZE PUSH1 0x1C CALLER 0xDE DUP10 DUP15 RETURN PUSH8 0x9B95FFE8AA11A58B CALLVALUE PUSH26 0x79E8529F255A4D53A5A6E531CB64736F6C634300081A00330000 "
		},
		"gasEstimates": {
			"creation": {
				"codeDepositCost": "466200",
				"executionCost": "44708",
				"totalCost": "510908"
			},
			"external": {
				"createRandomZombie(string)": "infinite",
				"zombies(uint256)": "infinite"
			},
			"internal": {
				"_generateRandomDna(string memory)": "infinite",
				"createZombie(string memory,uint256)": "infinite"
			}
		},
		"methodIdentifiers": {
			"createRandomZombie(string)": "7bff0a01",
			"zombies(uint256)": "2052465e"
		}
	},
	"abi": [
		{
			"anonymous": false,
			"inputs": [
				{
					"indexed": false,
					"internalType": "uint256",
					"name": "zombieId",
					"type": "uint256"
				},
				{
					"indexed": false,
					"internalType": "string",
					"name": "_name",
					"type": "string"
				},
				{
					"indexed": false,
					"internalType": "uint256",
					"name": "dna",
					"type": "uint256"
				}
			],
			"name": "NewZombie",
			"type": "event"
		},
		{
			"inputs": [
				{
					"internalType": "string",
					"name": "_name",
					"type": "string"
				}
			],
			"name": "createRandomZombie",
			"outputs": [],
			"stateMutability": "nonpayable",
			"type": "function"
		},
		{
			"inputs": [
				{
					"internalType": "uint256",
					"name": "",
					"type": "uint256"
				}
			],
			"name": "zombies",
			"outputs": [
				{
					"internalType": "string",
					"name": "name",
					"type": "string"
				},
				{
					"internalType": "uint256",
					"name": "dna",
					"type": "uint256"
				}
			],
			"stateMutability": "view",
			"type": "function"
		}
	]
}